:100000000C94DF010C94E01B0C940D1C0C94070263
:100010000C9407020C9407020C9407020C9407023C
:100020000C9407020C9407020C9407020C9407022C
:100030000C9407020C9407020C9407020C9407021C
:100040000C943A1C0C9407020C94FD1D0C944F1E4A
:100050000C9407020C9407020C9407020C940702FC
:100060000C9407020C9407023D3D3D3D3D3D3D3D56
:100070003D3D3D3D3D3D3D3D3D3D3D3D3D3D3D3DB0
:100080003D3D3D3D3D3D3D3D3D3D3D3D3D3D3D3DA0
:100090003D3D3D3D3D3D3D3D005365637572697499
:1000A00079204D6F64653A20005253534920202037
:1000B0002020202020203A200053534944204E6124
:1000C0006D65202020203A20003D3D3D3D3D3D3DD9
:1000D0003D3D3D3D3D3D3D3D3D3D3D3D3D3D3D3D50
:1000E0003D3D3D3D3D3D3D3D3D3D3D3D3D3D3D3D40
:1000F0003D3D3D3D3D3D3D3D3D004E6574776F725C
:100100006B7320666F756E643A2000535349442028
:100110007363616E206661696C656421000A444EF8
:1001200053736572763A20000A44484350737276DE
:100130003A20000A476174657761793A20000A4ED7
:1001400065746D61736B3A20000A49502041646404
:10015000723A2000556E61626C6520746F20726582
:100160007472696576652074686520495020416421
:100170006472657373210D0A004D4143204164642C
:1001800072657373203A2000556E61626C6520744D
:100190006F207265747269657665204D4143204118
:1001A000646472657373210D0A002E004669726DD6
:1001B0007761726520562E203A2000556E61626C80
:1001C0006520746F20726574726965766520746845
:1001D00065206669726D77617265207665727369F4
:1001E0006F6E210D0A0020627974657300545820E7
:1001F000427566666572203A2000206279746573E4
:1002000000525820427566666572203A20000A0A3C
:10021000436C6F73696E672074686520636F6E6EE0
:10022000656374696F6E0050696E672073756363F0
:1002300065737366756C2100207265706C696573F7
:10024000000A0D50696E67696E672000436F756C18
:10025000646E2774207265736F6C76652100777702
:10026000772E61646166727569742E636F6D202DDF
:100270003E200052657175657374204448435000F8
:10028000436F6E6E656374656421004661696C65D9
:100290006421000A417474656D7074696E6720741E
:1002A0006F20636F6E6E65637420746F200046610B
:1002B000696C656421000A44656C6574696E672029
:1002C0006F6C6420636F6E6E656374696F6E20700F
:1002D000726F66696C65730057726F6E672066692E
:1002E000726D776172652076657273696F6E210039
:1002F000556E61626C6520746F20696E6974696106
:100300006C69736520746865204343333030302155
:1003100020436865636B20796F7572207769726915
:100320006E673F000A496E697469616C6973696E32
:10033000672074686520434333303030202E2E2EE2
:100340000048656C6C6F2C20434333303030210AF9
:10035000000D0A000D0A0030003078000000000097
:10036000240027002A0000000000250028002B00A0
:1003700000000000230026002900040404040404F3
:100380000404020202020202030303030303010244
:100390000408102040800102040810200102040813
:1003A0001020000000070002010000030406000006
:1003B00000000000000021024805BE1F202011247B
:1003C0001FBECFEFD8E0DEBFCDBF11E0A0E0B1E0AF
:1003D000EEEAF5E402C005900D92AA38B107D9F70C
:1003E00014E0AAE8B1E001C01D92A031B107E1F725
:1003F00013E0CEEBD3E004C02297FE010E94D1228D
:10040000C63BD107C9F70E9472200C94D5220C94E8
:100410000000FB01DC0102C001900D9241505040F0
:10042000D8F70895FB01DC014150504048F001909D
:100430000D920020C9F701C01D9241505040E0F7D5
:100440000895EF92FF920F938BE891E060E040E017
:1004500020E000E00E9414208AE891E06AE043E096
:1004600025E004E032EEE32E33E0F32E0E94250572
:100470000F91FF90EF900895CF92DF92EF92FF924D
:100480000F931F93DF93CF93CDB7DEB7A7970FB628
:10049000F894DEBF0FBECDBF8AE891E0BE016D5F6C
:1004A0007F4F0E94040B882339F482EE93E06BE0C7
:1004B00071E00E94F82071C082EE93E06AEF70E074
:1004C0000E94AD204B815C816D817E8182EE93E044
:1004D0002AE030E00E949B2182EE93E069EC70E01C
:1004E0000E94F82042E0C42ED12CCC0EDD1E8E01DD
:1004F000095F1F4F7E010894E11CF11C3BC001976E
:10050000A109B1098B839C83AD83BE838AE891E006
:10051000B701A60198010E94160882EE93E069EBEC
:1005200070E00E94AD2082EE93E0B8010E9451225B
:1005300082EE93E00E94D82082EE93E069EA70E0B8
:100540000E94AD2082EE93E069814AE050E00E9473
:10055000C12182EE93E069E970E00E94AD2082EE55
:1005600093E06A814AE050E00E94C12182EE93E06C
:100570000E94D8208B819C81AD81BE810097A1050E
:10058000B10509F0BCCF82EE93E068E670E00E940E
:10059000F8208AE891E00E94FD0AA7960FB6F89429
:1005A000DEBF0FBECDBFCF91DF911F910F91FF90A6
:1005B000EF90DF90CF900895EF92FF920F931F93EB
:1005C000DF93CF93CDB7DEB764970FB6F894DEBF55
:1005D0000FBECDBF8AE891E0BE016F5F7F4FAE01D5
:1005E0004B5F5F4F9E01275F3F4F8E01035F1F4FA1
:1005F000E1E1EE2EF12CEC0EFD1E0E94EB058823AE
:1006000041F482EE93E064E571E00E94F82080E01E
:100610004BC082EE93E069E471E00E94AD20498115
:100620005A816B817C818AE891E00E949F0882EE6A
:1006300093E06EE371E00E94AD204D815E816F8199
:1006400078858AE891E00E949F0882EE93E063E358
:1006500071E00E94AD2049855A856B857C858AE8CA
:1006600091E00E949F0882EE93E068E271E00E94B0
:10067000AD204D855E856F8578898AE891E00E947E
:100680009F0882EE93E06DE171E00E94AD20498900
:100690005A896B897C898AE891E00E949F0882EEE2
:1006A00093E00E94D82081E064960FB6F894DEBFF4
:1006B0000FBECDBFCF91DF911F910F91FF90EF90B3
:1006C00008950F931F93DF93CF9300D000D000D0F5
:1006D000CDB7DEB78AE891E08E010F5F1F4FB801FA
:1006E0000E947608882339F482EE93E068E871E08E
:1006F0000E94F8200FC082EE93E069E771E00E944B
:10070000AD208AE891E0B80126E030E040E050E01A
:100710000E94F10826960FB6F894DEBF0FBECDBF3B
:10072000CF91DF911F910F910895DF93CF9300D068
:10073000CDB7DEB78AE891E0BE016F5F7F4FAE01B3
:100740004E5F5F4F0E944F08882349F482EE93E08A
:100750006BEB71E00E94F82020E030E020C082EED8
:1007600093E06CEA71E00E94AD2082EE93E0698133
:100770004AE050E00E94AF2182EE93E06AEA71E025
:100780000E94AD2082EE93E06A814AE050E00E9430
:10079000C121998180E02A8130E0282B392BC901C1
:1007A0000F900F90CF91DF9108950F931F9302EE5A
:1007B00013E0C80161E072E00E94AD20C80163E867
:1007C00070E04AE050E00E941F22C8016AEF71E029
:1007D0000E94F820C8016DEE71E00E94AD20C801B2
:1007E00063E870E04AE050E00E941F22C80166EE14
:1007F00071E00E94F8201F910F91089568EE73E058
:1008000080E090E00E94821C0895EF920F931F9366
:10081000DF93CF9300D000D0CDB7DEB782EE93E068
:1008200040E855E260E070E00E948A1E82EE93E0AC
:1008300061E473E00E94F8200E94D50382EE93E009
:1008400060E071E00E9451220E941D0FBC0182EE07
:1008500093E04AE050E00E94322282EE93E064E2AC
:1008600073E00E94F8208AE891E060E040E020E038
:1008700030E00E945E09882339F482EE93E060EF55
:1008800072E00E94F820FFCF0E94950383519140AF
:1008900038F482EE93E068ED72E00E94F820FFCF1A
:1008A0000E9461030E943C0282EE93E066EB72E0DC
:1008B0000E94F8208AE891E00E94D607882339F444
:1008C00082EE93E06EEA72E00E94F820FFCF82EEA3
:1008D00093E063E972E00E94AD2082EE93E06BE06A
:1008E00071E00E9454228AE891E06BE071E041E1FE
:1008F00051E023E000E00E94830A882339F482EE6D
:1009000093E06BE872E00E94F820FFCF82EE93E064
:1009100060E872E00E94F82082EE93E063E772E004
:100920000E94F82006C064E670E080E090E00E943B
:10093000821C8AE891E00E943F058823A1F306C04B
:1009400068EE73E080E090E00E94821C0E94DC026E
:100950008823B1F319821A821B821C8282EE93E0F3
:100960006EE572E00E94AD208E010F5F1F4F15C033
:100970008AE891E06AE171E0A8010E945305892BA1
:1009800031F482EE93E06CE472E00E94F82064EFB0
:1009900071E080E090E00E94821C49815A816B8165
:1009A0007C81411551056105710511F38AE891E0DB
:1009B0000E949F0882EE93E061E472E00E94AD2005
:1009C00049815A816B817C818AE891E00E949F086D
:1009D00082EE93E06BE271E00E94512249815A81DC
:1009E0006B817C818AE891E025E004EF11E0F0E280
:1009F000EF2E0E945806182F82EE93E0612F4AE0F6
:100A000050E00E94AF2182EE93E068E372E00E9422
:100A1000F820112331F082EE93E067E272E00E9449
:100A2000F82082EE93E06EE072E00E94F8208AE8FF
:100A300091E00E9405080F900F900F900F90CF91BA
:100A4000DF911F910F91EF900895EF92FF920F9316
:100A5000FC011082609391014093920120939301D5
:100A60008FEF80939401009395011092CB01F09247
:100A7000CD01E092CC010F91FF90EF90089580910D
:100A8000CB0190E09695879596958795817008950E
:100A90000F9380E092E060E040E020E000E00E9400
:100AA00014200F910895FC0180818823A9F0809182
:100AB000CB0181FF11C08091CB0182FF0DC0DB0112
:100AC0000D900020E9F71197A61BB70BCB01BD01D4
:100AD0000E946E179C0102C020E030E0C901089519
:100AE000EF92FF920F931F937B018C01FA01422F2B
:100AF00080E8E81680E8F80680E0080780E018073C
:100B000031F48091CB0181608093CB012BC081E0D7
:100B1000E81680E8F80680E0080780E0180731F45E
:100B20008091CB0182608093CB0128C082E0E816DF
:100B300080E8F80680E0080780E0180731F480912B
:100B4000CB01897F8093CB012FC080E1E81680E83C
:100B5000F80680E0080780E0180721F48091CB01B7
:100B6000846009C089E9E816F1040105110531F432
:100B70008091CB0188608093CB0128C080E4E81687
:100B800080E8F80680E0080780E0180769F48091A3
:100B900096018F5F8093960127E931E0C901BF017B
:100BA00050E00E94090212C080E0E81688E8F806CA
:100BB00080E0080780E0180749F44081403230F4B3
:100BC000E42FF0E0E555FE4F81E080831F910F9107
:100BD000FF90EF9008958F929F92AF92BF92CF9225
:100BE000DF92EF92FF920F931F93DF93CF93CDB7D6
:100BF000DEB7EA970FB6F894DEBF0FBECDBFFC019B
:100C00006B015A01490180818823F1F18091CB0168
:100C100081FF3AC08091CB0182FF36C0CE010196A0
:100C20000E9429168C81882379F189819A81AB8170
:100C3000BC81F60180839183A283B3838D819E81E1
:100C4000AF81B885F50180839183A283B3838985C1
:100C50009A85AB85BC85F40180839183A283B3839D
:100C60008D859E85AF85B889F80180839183A283A5
:100C7000B38389899A89AB89BC89F7018083918381
:100C8000A283B38381E001C080E0EA960FB6F894B6
:100C9000DEBF0FBECDBFCF91DF911F910F91FF90AF
:100CA000EF90DF90CF90BF90AF909F908F9008957E
:100CB0007F928F929F92AF92BF92CF92DF92EF92EC
:100CC000FF920F931F93DF93CF9300D000D0CDB747
:100CD000DEB7FC015A016B01722E48018081882326
:100CE00009F464C08091CB0181FF60C08091CB0189
:100CF00082FF5CC0542F4427332722278D2D99274C
:100D0000AA27BB27282B392B4A2B5B2BBB27AD2DC2
:100D10009C2D8B2D8070A070B070282B392B4A2B06
:100D20005B2B80E09FEFA0E0B0E0A822B922CA22AE
:100D3000DB22BC2DAB2D9A2D8827282B392B4A2B53
:100D40005B2B29833A834B835C831092960110922C
:100D50009B0110929C0110929D0110929E01472DC3
:100D600050E060E070E00E2D10E020E030E0640123
:100D7000EE24FF24CE0101960E943D16872D90E0BF
:100D8000889EB001899E700D989E700D1124660F8B
:100D9000771F80E090E00E94821C8091960188235A
:100DA00029F020919B0130919C0102C020E030E0AD
:100DB000C9010F900F900F900F90CF91DF911F916D
:100DC0000F91FF90EF90DF90CF90BF90AF909F90EA
:100DD0008F907F9008952F923F924F925F926F92E3
:100DE0007F928F929F92AF92BF92CF92DF92EF92BB
:100DF000FF920F931F93FC01D62EC72E342E252E63
:100E00008081882309F466C02801390184E04816EE
:100E100051046104710408F05DC0A62FB72FFD01D5
:100E200001900020E9F73197EA1BFB0BB19708F01E
:100E300051C0A42FB52FFD0101900020E9F7319793
:100E4000EA1BFB0BB19708F045C060E070E080E062
:100E500090E020E030E040E050E0EE24FF24870105
:100E60000E948419611571058105910599F564EF5A
:100E700071E080E090E00E94821CED2DFC2DDF01EE
:100E80000D900020E9F78D01015010400E1B1F0B43
:100E9000E32DF22DDF010D900020E9F74D010894BC
:100EA000810891088E1A9F0A20E030E0AA24BB2412
:100EB000C301B2014D2D5C2DEE24FF24C32CD22C96
:100EC0000E94DC1920E0611571058105910519F476
:100ED00021E001C020E0822F1F910F91FF90EF9041
:100EE000DF90CF90BF90AF909F908F907F906F904A
:100EF0005F904F903F902F9008958F929F92AF9266
:100F0000BF92CF92DF92EF92FF920F931F93FC015B
:100F1000D62EC72E80818823E1F160E070E080E06A
:100F200090E020E030E040E050E0EE24FF24870134
:100F30000E948419611571058105910551F564EFD1
:100F400071E080E090E00E94821CED2DFC2DDF011D
:100F50000D900020E9F78D01015010400E1B1F0B72
:100F600020E030E060E070E080E090E04D2D5C2D0E
:100F7000EE24FF24CC24DD248824992454010E94EB
:100F8000DC1920E0611571058105910519F421E056
:100F900001C020E0822F1F910F91FF90EF90DF9012
:100FA000CF90BF90AF909F908F900895EF92FF9257
:100FB0000F931F93FC018081882301F160E070E0B2
:100FC00080E090E020E030E040E050E0EE24FF24BC
:100FD00087010E948419611571058105910571F4DD
:100FE0006FEF70E080E090E00E94501920E0611502
:100FF00071058105910519F421E001C020E0822FDF
:101000001F910F91FF90EF900895FC01808188233C
:1010100011F420E009C00E94111820E0611571054B
:101020008105910509F421E0822F0895FF920F9325
:101030001F93CF93DF93FB01DA018901F090D60172
:101040008F2D90E09595879580838091D70183704F
:101050008C934091D70146954695C42FD0E0C801A6
:101060006AED71E0AE010E941202C00FD11F18821A
:1010700060E070E080E090E04EEC51E00E942719C3
:10108000611571058105910511F080E002C08F2D79
:101090008170DF91CF911F910F91FF900895EF9292
:1010A000FF920F931F93DF93CF9300D0CDB7DEB79E
:1010B000FC018B017A018081882371F0CE010196B9
:1010C0000E949616882341F48981F80180838A81E1
:1010D000F701808381E001C080E00F900F90CF91F5
:1010E000DF911F910F91FF90EF900895CF92DF92C3
:1010F000EF92FF920F931F93FC016B018081882375
:1011000011F420E014C066E070E080E090E026E09A
:1011100030E040E050E0EE24FF2487010E94C0163A
:1011200020E0611571058105910509F421E0822F08
:101130001F910F91FF90EF90DF90CF900895EF9265
:10114000FF920F931F937A018B018091CC019091B4
:10115000CD01009709F440C0272F33274427552796
:10116000622F4AE050E00E94AF218091CC01909123
:10117000CD016EE20E94D02098014427552780912E
:10118000CC019091CD01622F4AE050E00E94AF2146
:101190008091CC019091CD016EE20E94D020552724
:1011A000412F302F2F2D8091CC019091CD01622FB6
:1011B0004AE050E00E94AF218091CC019091CD0196
:1011C0006EE20E94D0208091CC019091CD016E2DD5
:1011D0004AE050E00E94AF211F910F91FF90EF90E5
:1011E00008956F927F928F929F92AF92BF92CF920B
:1011F000DF92EF92FF920F931F93CF93DF935901EA
:101200006A018091CC019091CD01892B09F447C0EE
:10121000EB01EE24FF2487013501460108946108A3
:1012200071088108910830C069E573E00E94AD2023
:101230008881803140F48091CC019091CD0167E5A7
:1012400073E00E94AD208091CC019091CD01688126
:1012500040E150E00E94AF2182E0A816B104C10431
:10126000D10460F0E614F7040805190539F08091FF
:10127000CC019091CD0160E20E94D0200894E11C45
:10128000F11C011D111D21968091CC019091CD0181
:10129000EA14FB040C051D0538F20E94D820DF91EA
:1012A000CF911F910F91FF90EF90DF90CF90BF9063
:1012B000AF909F908F907F906F9008956F927F92E4
:1012C0008F929F92AF92BF92CF92DF92EF92FF9256
:1012D0000F931F93CF93DF93EC01962E842E722EE3
:1012E000632E8881882309F091C0909192018091AA
:1012F0009401923011F480E003C0933009F481E04E
:10130000809394018F3F09F483C00E94430E80E7CD
:1013100095E069E47BE049E35BE021E43BE001E543
:101320001BE0BFEAEB2EBBE0FB2EA9E6CA2EABE02A
:10133000DA2EFDE5AF2EFBE0BF2E0E94DD17892DD2
:1013400090E00E94C51A8820A1F460E070E080E07F
:1013500090E020E030E040E050E0EE24FF24870100
:101360000E9484196FEF70E080E090E00E945019B5
:101370000FC060E070E080E090E020E030E040E00E
:1013800050E0E1E0EE2EF12C012D112D0E94841988
:1013900064E072E880E090E00E943F1861157105FA
:1013A00081059105A9F581E08883882079F100E025
:1013B00010E00EC00E94F10C0F5F1F4F83E00A3E49
:1013C000180731F16AE070E080E090E00E94821C32
:1013D0008091CB0181FFEECF68EE73E080E090E07A
:1013E0000E94821C8091CB0182FF10C0E72DF62D58
:1013F000DF010D900020E9F71197AE1BBF0B81E0D4
:1014000090E0672D762DAD010E94191781E001C093
:1014100080E0DF91CF911F910F91FF90EF90DF90CF
:10142000CF90BF90AF909F908F907F906F900895D6
:10143000AF92BF92CF92DF92EF92FF920F931F93E2
:10144000CF93DF93FC018081882311F420E04FC00B
:101450008DB79EB742970FB6F8949EBF0FBE8DBF53
:10146000EDB7FEB731968FEF9FE1A0E0B0E0CDB7CA
:10147000DEB789839A83AB83BC8388E89FEFAFEFA5
:10148000BFEF84839583A683B78310861186128667
:1014900013868CE291E0A0E0B0E084879587A68770
:1014A000B78783E391E0918B808BCB01BA0124E174
:1014B00030E040E050E0F4E6EF2EF12C012D112D4C
:1014C000E5E0AE2EB12CC12CD12C0E94981820E062
:1014D0004DB75EB74E5E5F4F0FB6F8945EBF0FBE5E
:1014E0004DBF611571058105910509F421E0822F39
:1014F000DF91CF911F910F91FF90EF90DF90CF90F0
:10150000BF90AF9008955F926F927F928F929F925B
:10151000AF92BF92CF92DF92EF92FF920F931F9301
:10152000CF93DF93EC013B014A01522EA02E88811C
:10153000882309F452C0B02EC22EDD24EE24FF24ED
:10154000AA2051F0BB2039F48091CB0190E0969510
:101550008795817042C0BA940E94F10CCE0140EA96
:101560005FE060E070E00E94180A64E971E180E0E9
:1015700090E00E94821CCE0140E050E060E070E00C
:101580000E94180A552021F0F4018081882349F433
:10159000CE01B3010E947D078823D1F000E117E25C
:1015A00008C0CE01B301A401970186010E94EB0699
:1015B000F3CF8091CB0181FD0BC00E94F10C6AE05A
:1015C00070E080E090E00E94821C0A50104089F791
:1015D0008091CB0181FFB4CF81E0DF91CF911F914A
:1015E0000F91FF90EF90DF90CF90BF90AF909F90C2
:1015F0008F907F906F905F90089540E050E060E0A2
:1016000070E00E94180A0895CF93DF93FC01EB016C
:101610008081882351F1CF0140EA5FE060E070E013
:101620000E94180A882309F164E971E180E090E0E2
:101630000E94821C60E070E080E090E04EEC51E09F
:101640000E942719611571058105910571F480913A
:10165000CE019091CF01A091D001B091D1018883AA
:101660009983AA83BB8381E001C080E0DF91CF91A1
:101670000895FC01108211821282138280E090E0B2
:101680000895FC01108211821282138280E090E0A2
:101690000895FC01108211821282138280E090E092
:1016A0000895809192010E94A91D9C01442737FD55
:1016B0004095542FB901CA010895882321F08091E3
:1016C000930161E003C08091930160E00E94551D89
:1016D000089510921F03809194010E94CD1B0895DC
:1016E00010921F03809194010E94CD1B0895CF9307
:1016F000DF930E94700B8091910161E00E94551D63
:10170000809109028CBD80910802882319F08DB563
:10171000816002C08DB58E7F8DBDC0911602D091C3
:101720001702CE57DF4F8881C258D0408E3D09F056
:10173000FFCF82E090E0A0E0B0E0809310029093B1
:101740001102A0931202B0931302E0910A02F091E9
:101750000B02CE0105960995DF91CF91089581E0A6
:1017600080931F03809194016CE57CE042E050E09F
:101770000E94AA1B089581E080931F038091940129
:101780006CE57CE042E050E00E94AA1B08950F93B4
:101790001F93CF93DF938C01EB0184E00E947D1BAC
:1017A00020E030E093E00BC09EBD0DB407FEFDCFFE
:1017B0008EB5F801E20FF31F80832F5F3F4F2C1788
:1017C0003D0790F3DF91CF911F910F910895EF9214
:1017D000FF920F931F93CF93DF93C0911602D09186
:1017E00017028D81823021F0843009F047C01BC080
:1017F000CE01059663E070E00E94E90E9C0140E096
:1018000050E080FD05C02F5F3F4F4F4F5F4F05C039
:10181000211531054105510589F1CE010A96B9011D
:101820000E94C70B2BC08885282F30E040E050E095
:1018300079018A010894E108F10801091109DA0126
:10184000C9010996A11DB11D80FF02C079018A015D
:10185000E114F1040105110529F0CE010A96B70142
:101860000E94C70B88E090E0A0E0B0E080931002F7
:1018700090931102A0931202B093130260E070E003
:1018800080E090E0DF91CF911F910F91FF90EF905A
:1018900008950E94E70B611571058105910511F40A
:1018A0000E94770B089580911602909117026AE0CA
:1018B00070E00E94C70B089581E080931E03809121
:1018C000100290911102A0911202B09113020097A0
:1018D000A105B10569F481E090E0A0E0B0E080935B
:1018E000100290931102A0931202B093130276C0DB
:1018F00082309105A105B105B1F586E090E0A0E048
:10190000B0E08093100290931102A0931202B09362
:1019100013028091910160E00E94551D8CB5809367
:1019200009028DB5817080930802809106028CBDFA
:1019300080910702882319F08DB5816002C08DB5B2
:101940008E7F8DBD0E94530C88E090E0A0E0B0E057
:101950008093100290931102A0931202B09313028D
:101960000E94490C3BC00397A105B105B9F56091F0
:1019700014027091150240910C0250910D0220E06A
:1019800030E00BC0FB01E20FF31F80818EBD0DB470
:1019900007FEFDCF8EB52F5F3F4F2417350790F31D
:1019A00082E090E0A0E0B0E08093100290931102FA
:1019B000A0931202B09313028091910161E00E9402
:1019C000551D809109028CBD80910802882319F071
:1019D0008DB5816002C08DB58E7F8DBD10921E03C6
:1019E0000895809192010E94A91D892B51F4809144
:1019F0001E03882331F480911F03882311F00E9475
:101A00005C0C08950F931F93CF93DF93EC018B0130
:101A10008091910160E00E94551D8CB58093090270
:101A20008DB5817080930802809106028CBD8091F3
:101A30000702882319F08DB5816002C08DB58E7FB5
:101A40008DBD61E070E080E090E00E94821C20E0AB
:101A500030E0FE01E20FF31F80818EBD0DB407FE62
:101A6000FDCF8EB52F5F3F4F2430310591F761E0F8
:101A700070E080E090E00E94821CB80164507040E9
:101A8000FE0120E030E009C084818EBD0DB407FE68
:101A9000FDCF8EB52F5F3F4F319626173707A0F346
:101AA00082E090E0A0E0B0E08093100290931102F9
:101AB000A0931202B09313028091910161E00E9401
:101AC000551D809109028CBD80910802882319F070
:101AD0008DB5816002C08DB58E7F8DBD60E070E0F8
:101AE00080E090E0DF91CF911F910F9108950F93C7
:101AF0001F93CF93DF93EC0190E060FF91E081E0D2
:101B000088839B01290F311D3983960F9A831B828D
:101B10001C8280911D038E3D09F0FFCF8091100241
:101B200090911102A0911202B09113020097A105A9
:101B3000B10509F4FFCF89010B5F1F4F0197A10584
:101B4000B10529F4CE01B8010E94020D85C0E091D3
:101B50003403F091350309958091100290911102A0
:101B6000A0911202B09113020297A105B10509F0EC
:101B700089C083E090E0A0E0B0E0809310029093F1
:101B80001102A0931202B0931302D0931502C093D6
:101B9000140210930D0200930C028091910160E0F9
:101BA0000E94551D8CB5809309028DB5817080937C
:101BB0000802809106028CBD80910702882319F0EB
:101BC0008DB5816002C08DB58E7F8DBDE0913203F1
:101BD000F09133030995E0913003F09131030995B9
:101BE0006115710581059105B9F560911402709137
:101BF000150240910C0250910D0220E030E00BC024
:101C0000FB01E20FF31F80818EBD0DB407FEFDCFF7
:101C10008EB52F5F3F4F2417350790F382E090E099
:101C2000A0E0B0E08093100290931102A093120202
:101C3000B09313028091910161E00E94551D809143
:101C400009028CBD80910802882319F08DB581604E
:101C500002C08DB58E7F8DBD8091100290911102D2
:101C6000A0911202B09113020297A105B10549F4A7
:101C700060E070E080E090E0DF91CF911F910F91E4
:101C80000895FFCFFFCF8091930161E00E94161D60
:101C90008091930160E00E94551D64EF71E080E047
:101CA00090E00E94821C8091910161E00E94161DCB
:101CB0008091920162E00E94161D8CB5809309020A
:101CC0008DB58170809308020E94931B84E00E946E
:101CD0007D1B81E00E94741B809195010E94821BF4
:101CE0008CB5809306028DB5817080930702809138
:101CF000910161E00E94551D809109028CBD809187
:101D00000802882319F08DB5816002C08DB58E7FE1
:101D10008DBD80E090E00895CF93DF931092100284
:101D2000109211021092120210921302A8E1B2E076
:101D300023E8ED01E22F1992EA95E9F7EBE9F2E0E9
:101D4000EF0119922A95E9F790930B0280930A020A
:101D500010920D0210920C021092150210921402B1
:101D6000B0931702A093160210920F0210920E0267
:101D70008EED80939A0280931D03E0913203F091DF
:101D800033030995DF91CF910895CF93DF93FC0141
:101D9000DC014D939D01BB27A72F962F852F8183B3
:101DA000F9013196CB01AA27BB27E9018983472F87
:101DB00055276627772741833296CF01DF91CF9150
:101DC0000895DC01FC01619311967C933196CF015B
:101DD0000895FB01E80FF91F318120E08081280F71
:101DE000311DC9010895FB01E80FF91F238130E07F
:101DF00040E050E0522F442733272227828190E091
:101E0000A0E0B0E0DC0199278827280F391F4A1F7E
:101E10005B1F8081280F311D411D511D818190E084
:101E2000A0E0B0E0BA2FA92F982F8827280F391FDC
:101E30004A1F5B1FB901CA010895DF93CF9300D0F9
:101E4000CDB7DEB720910A0430910B04CE01019684
:101E50002115310519F48051944002C0821B930B67
:101E60009A83898389819A810F900F90CF91DF9116
:101E700008958F929F92AF92BF92CF92DF92EF928E
:101E8000FF920F931F93DF93CF93CDB7DEB7A99740
:101E90000FB6F894DEBF0FBECDBF8C0161E070E0DD
:101EA0000E94E90E9C016C01EE24FF24D6FE6DC059
:101EB00081E42030380709F068C0C80165E070E0AF
:101EC0000E94E90E4C0197E0A92EB12CA00EB11E84
:101ED000CC24DD24EE24FF24870112C0C50162E07A
:101EE00070E00E94E90EA0E0B0E0E80EF91E0A1FC3
:101EF0001B1FA4E0B0E0AA0EBB1E0894C11CD11C9D
:101F0000C814D90458F380913C0390913D038E0D81
:101F10009F1D90933D0380933C03809148039091D3
:101F20004903A0914A03B0914B03E80EF91E0A1F22
:101F30001B1FE0924803F092490300934A03109359
:101F40004B03209148033091490340914A0350913B
:101F50004B038091440390914503A0914603B091B7
:101F60004703281739074A075B0709F0A2C0809189
:101F70004C03882309F49DC0E0912E03F0912F03B8
:101F800069E970E080E090E03FC0C6018070907821
:101F9000892B09F4E7C0B0E820313B07C9F1E0E83C
:101FA00021313E0770F4F0E821303F0708F47DC18D
:101FB00080E823303807D8F02450304809F075C144
:101FC00016C0A0E820383A0791F0B0E821383B0766
:101FD00028F42054304809F068C170C0F2E820307D
:101FE0003F0729F02050384809F05FC1A9C080910F
:101FF0002E0390912F03892B09F45BC0E0912E03EF
:10200000F0912F03C701B60140E050E020E050C03E
:10201000F8013596D80115968C9115978D8B818195
:102020008E8B82818F8B8381888FF80139961996E8
:102030008C911997898F81818A8F82818B8F83817F
:102040008C8FF8013D961D968C911D978D8F818107
:102050008E8F82818F8F838188A3F801719651962C
:102060008C91519789A381818AA382818BA38381DB
:102070008CA3F801759655968C9155978DA3818107
:102080008EA382818FA3838188A714968C9189A7C0
:1020900080912E0390912F03892B59F0E0912E030C
:1020A000F0912F03C701B601AE014B5E5F4F25E1F2
:1020B000099521E030E040E050E0FBC00B5F1F4F8E
:1020C000C80160E070E00E94F30E69837A838B831D
:1020D0009C83C80164E070E00E94F30E6D837E83F0
:1020E0008F839887C80168E070E00E94F30E6987CB
:1020F0007A878B879C87C8016CE070E00E94F30EA2
:102100006D877E878F87988BC80160E170E00E94A1
:10211000F30E9B01AC0180912E0390912F03892B2C
:1021200041F2E0912E03F0912F03298B3A8B4B8BD8
:102130005C8BC701B601AE014F5F5F4F24E1B8CFA2
:1021400080912E0390912F03892B09F4B2CFE09157
:102150002E03F0912F030B5F1F4FC701B601A8019B
:1021600021E0A6CFB3E0CB16B0E1DB06B0E0EB0692
:10217000B0E0FB0699F0EFE0CE16E0E1DE06E0E02D
:10218000EE06E0E0FE0651F0FEE0CF16F0E1DF06DD
:10219000F0E0EF06F0E0FF0609F06AC085E0C82E27
:1021A000D12CC00ED11EC60164E070E00E94F30E77
:1021B000675C7F4F8F4F9F4F09F077C0D80114960F
:1021C0008C9190E0A0E0B0E08093380390933903C5
:1021D000A0933A03B0933B03C60160E070E00E9415
:1021E000F30E7B018C01C60164E070E00E94F30EE7
:1021F000675C7F4F8F4F9F4F09F05BCFE8E0EE1693
:10220000F1040105110508F054CF81E090E00E2C97
:1022100002C0880F991F0A94E2F780959095AA272B
:1022200097FDA095BA2F20912F0130913001409158
:1022300031015091320182239323A423B52321E05D
:1022400030E040E050E00E2C04C0220F331F441F4A
:10225000551F0A94D2F7822B932BA42BB52B809376
:102260002F0190933001A0933101B093320121CF1F
:102270008091200390912103A0E0B0E0C816D90618
:10228000EA06FB0691F060E0F0E0CF16F0E1DF0631
:10229000F0E0EF06F0E0FF0609F461E081E0682776
:1022A000262F30E040E050E004C020E030E040E085
:1022B00050E0B901CA01A9960FB6F894DEBF0FBE6F
:1022C000CDBFCF91DF911F910F91FF90EF90DF90E5
:1022D000CF90BF90AF909F908F90089580912203F0
:1022E00090912303892BD1F0E0912403F0912503F1
:1022F0008081843099F4CF010E94390F61307105DB
:102300008105910559F410922303109222030E9433
:10231000BB0B21E030E040E050E004C020E030E0C2
:1023200040E050E0B901CA010895DF93CF9300D097
:1023300000D0CDB7DEB719821A821B821C82FC0145
:102340008581823021F1833009F43FC0813009F06A
:102350005FC080912A0390912B03892B91F0E0912B
:102360002A03F0912B03CE0101960995AC01009749
:1023700041F0609126037091270329813A8181E021
:1023800045C0609126037091270381E03BC0809196
:10239000280390912903892B91F0E0912803F09173
:1023A0002903CE0101960995AC01009741F0609197
:1023B00026037091270329813A8182E027C060912A
:1023C00026037091270382E01DC080912C03909119
:1023D0002D03892B91F0E0912C03F0912D03CE0178
:1023E00001960995AC01009741F060912603709128
:1023F000270329813A8183E009C060912603709107
:10240000270383E040E050E020E030E00E948D159B
:102410000F900F900F900F90CF91DF9108954F92F2
:102420005F926F927F928F929F92AF92BF92CF9264
:10243000DF92EF92FF920F931F93CF93DF936C0184
:102440002B013A01AA24BB240E94F10C80912203A3
:1024500090912303892BC1F380902403909025034E
:10246000D4018C91843009F0BFC2C40161E070E0F6
:102470000E94E90E5C01C4010E94390F61157105CB
:102480008105910509F0A4C2E4012596B8E0AB16D8
:10249000B0E1BB0608F056C0E6E0AE16E0E1BE06CD
:1024A00008F0CCC0F2E0AF16F2E0BF0609F4C6C0F7
:1024B00003E0A01602E0B00600F51DE0A116B1048D
:1024C00080F468E0A616B10408F0B8C081E0A81650
:1024D000B10408F47DC297E0A916B10408F4AEC0B7
:1024E000D4C1ADE0AA16B10409F4A3C0B1E0AB16A3
:1024F000B2E0BB0609F06CC29CC0E3E0AE16E0E1BE
:10250000BE0698F4F1E0AF16F0E1BF0608F096C001
:1025100005E0A01602E0B00608F48BC017E0A11693
:1025200012E0B10609F054C28DC064E0A61660E165
:10253000B60609F4DCC085E0A81680E1B80608F00C
:10254000B1C042C191E1A91690E1B90609F471C088
:10255000A2E1AA16A0E1BA0658F5BBE0AB16B0E1BD
:10256000BB0609F46BC0ECE0AE16E0E1BE0668F411
:10257000F9E0AF16F0E1BF0609F460C00AE0A0166A
:1025800000E1B00608F073C13AC11FE0A11610E1E6
:10259000B10609F419C160E1A61660E1B60608F0BB
:1025A00061C08DE0A81680E1B80609F011C29FC095
:1025B00095E0A91690E2B90609F4A4C1A6E0AA160E
:1025C000A0E2BA0668F4B2E1AB16B0E1BB0609F4CA
:1025D00060C0E1E0AE16E0E2BE0608F4F9C129C031
:1025E000FAE0AF16F0E2BF0660F408E0A01600E2E1
:1025F000B006F8F416E0A11610E2B10609F0E8C141
:1026000018C06BE0A61660E4B60609F0E1C1D4017B
:1026100015968C9190E090933D0380933C03CE01FE
:1026200061E070E00E94E90E90933F0380933E03C7
:10263000CFC1E4018C81F6018083CAC1CE0160E084
:1026400070E01EC0F4018481D6018D936D01CE012E
:1026500060E070E00E94F30EAB01BC01C6010E9475
:10266000C50EB6C1CE0160E070E00E94F30EF60127
:1026700061937193819391936F01CE0164E070E057
:102680000E94F30ED6016D937D938D939C931397C7
:102690009FC1CE0160E070E00E94E90EE6019983DF
:1026A000888396C1CE0160E070E00E94F30EF601CF
:1026B00061937193819391938F01CE0164E070E0F7
:1026C0000E94F30ED60114966D937D938D939C9387
:1026D0001797E4E0CE2ED12CC00ED11ED601FE01FC
:1026E000389680E101900D928150E1F771C1CE01E1
:1026F00060E070E00E94F30EF601619371938193A4
:1027000091938F01CE0164E070E00E94F30ED60138
:1027100014966D937D938D939C93179774E0C72EB9
:10272000D12CC00ED11ECE0168E070E00E94F30EE5
:102730009B01AC01E8016C837D838E839F83F6014E
:1027400084819581A681B781875C9F4FAF4FBF4F32
:1027500009F03EC1283031054105510508F038C166
:10276000822F21E030E0082E02C0220F331F0A948E
:10277000E2F720953095442737FD4095542FE0909F
:102780002F01F090300100913101109132012E2182
:102790003F214023512361E0E62EF12C012D112D24
:1027A00004C0EE0CFF1C001F111F8A95D2F72E29C2
:1027B0003F29402B512B20932F0130933001409320
:1027C00031015093320104C1CE0160E070E00E94FB
:1027D000F30ED6016D937D938D939D938D01CE0164
:1027E00064E070E00E94F30EE6016C837D838E83CB
:1027F0009F8354E0C52ED12CC00ED11EE9C0CE015E
:1028000060E070E00E94F30EF60161937193819392
:1028100091938F01CE0164E070E00E94F30ED60127
:1028200014966D937D938D939C93179744E0E42EBB
:10283000F12CE00EF11ECE0168E070E00E94F30E74
:10284000F801648375838683978334E0C32ED12C8B
:10285000CE0CDF1CCE016CE070E00E94F30ED701BD
:1028600014966D937D938D939C931797B1C0E4015B
:102870008C81F60184838D819E81AF81B885E601CC
:1028800088839983AA83BB83A3C0CE0160E070E0F4
:102890000E94F30EF60161937193819391938F01DE
:1028A000CE0164E070E00E94F30ED60114966D93A1
:1028B0007D938D939C931797CE0168E070E00E9402
:1028C000E90EA0E0B0E0F80184839583A683B78386
:1028D000CE016AE070E00E94E90EA0E0B0E0F601EF
:1028E00082879387A487B5872CE0E22EF12CCE0C4B
:1028F000DF1CD601FE013C9686E201900D928150CC
:10290000E1F766C0D40115968C91F6018193898117
:10291000D60111968C9311978A8181838B81828352
:102920001496F4013996E4018985E6018C8381814E
:102930008D8382818E8383818F839D012C5F3F4FA6
:10294000F4013D96E4018D8514968C931497818152
:10295000E601898782818A8783818B87F40171965A
:10296000E4018989E9018C838181E6018D87828177
:102970008E8783818F87F4017596E4018D89E90143
:10298000888781811D968C931D9782811E968C93DA
:102990001E9783811F968C93E4019601F401D60162
:1029A000A4014A5F5F4F818D54968C935497319662
:1029B0001196E417F507B9F7A401405E5F4F8F8DBC
:1029C000F901828F21962F5F3F4FC417D507B9F7C2
:1029D0008091200390912103A816B906B9F51092B1
:1029E00021031092200332C0D40112960C91C4012D
:1029F00063E070E00E94E90EEC0141145104A1F083
:102A0000C401059664E070E00E94F30E462FF301C6
:102A1000608371838283938394012B5E3F4FC20155
:102A2000B90150E00E940902202F30E0FE01E21BB4
:102A3000F30B2B5F3F4F280D391DC601B901AF01C4
:102A40000E94090210924303109242031092230342
:102A5000109222030E94BB0BD4018C91843041F46C
:102A6000B0E0AB16B0E1BB0619F4C4010E949511A9
:102A70008091200390912103892B09F0E5CC80916E
:102A8000420390914303892B09F0DECC80E090E073
:102A9000DF91CF911F910F91FF90EF90DF90CF903A
:102AA000BF90AF909F908F907F906F905F904F906E
:102AB000089521E030E030934303209342030E94C5
:102AC0000F1208959093210380932003CB0160E0BF
:102AD00070E040E050E00E940F120895EF92FF92E4
:102AE0000F931F939C017B01042F81E0FB018583E1
:102AF000CB010696B9010E94E10EFC01008310E0B3
:102B00000C5F1F4FC701B8010E94770D80E090E075
:102B10001F910F91FF90EF9008954F925F926F92E7
:102B20007F928F929F92AF92BF92CF92DF92EF925D
:102B3000FF920F931F93CF93DF936B014A01E9013B
:102B400045E0442E512C460E571E93E0FB01958321
:102B5000868337E0632E712C660E771E8E010E5F22
:102B60001F4FC301B8010E94E10E7C012BE0A22E91
:102B7000B12CAC0CBD1CF3E0C93EDF0790F4BE01E4
:102B80000E94E10EC701BE010E94E10EC501B40121
:102B9000AE010E9409022696C601BE010E94770D71
:102BA00047C0CE0168EE73E00E948622660F771F51
:102BB000060F171FC701B8010E94E10EC70168EE9A
:102BC00073E00E94E10ED501F40188EE93E00190DC
:102BD0000D920197E1F78E01085E134088EEE82E12
:102BE00083E0F82EE80CF91CC6016EEE73E01BC002
:102BF0000E94F10C83E0093E180720F4E80100E090
:102C000010E004C0085E1340C8EED3E0F201D183A7
:102C1000C083C301B701AE010E940902EC0EFD1E84
:102C20002296C201BE010E94770D0115110501F720
:102C3000DF91CF911F910F91FF90EF90DF90CF9098
:102C4000BF90AF909F908F907F906F905F904F90CC
:102C500008950F931F938C016091260370912703B1
:102C600085E090E240E00E946E1585E090E2B801B8
:102C70000E9462151F910F9108954F925F926F927B
:102C80007F928F929F92AF92BF92CF92DF92EF92FC
:102C9000FF920F931F93DF93CF930F92CDB7DEB7C1
:102CA000FC014A015B01280139018FEF8983009102
:102CB0002603109127034081518162817381C801ED
:102CC00009960E94C50EB501A4010E94C50EB3016C
:102CD000A2010E94C50EB701A6010E94C50E82E0A6
:102CE00090E2B80140E10E946E1582E090E2BE01E0
:102CF0006F5F7F4F0E9462152981332727FD309532
:102D0000432F532FB901CA010F90CF91DF911F912B
:102D10000F91FF90EF90DF90CF90BF90AF909F907A
:102D20008F907F906F905F904F9008950F931F93B7
:102D3000DF93CF9300D000D00F92CDB7DEB78C01D8
:102D4000609126037091270387E092E040E00E94A3
:102D50006E1587E092E0BE016F5F7F4F0E946215A3
:102D60008C81F80180838D81818389810F900F9000
:102D70000F900F900F90CF91DF911F910F910895B9
:102D80002F923F924F925F926F927F928F929F927B
:102D9000AF92BF92CF92DF92EF92FF920F931F9369
:102DA000DF93CF930F92CDB7DEB74B015C012901C2
:102DB0003A018FEF89832090260330902703C101C9
:102DC0000996B501A4010E94C50EB301A2010E949B
:102DD000C50EB801A7010E94C50E81E092E0B101C5
:102DE0004CE00E946E1581E092E0BE016F5F7F4F64
:102DF0000E946215C60160E070E040E050E00E9471
:102E00005915698170E080E090E00F90CF91DF91DB
:102E10001F910F91FF90EF90DF90CF90BF90AF90F8
:102E20009F908F907F906F905F904F903F902F90EA
:102E30000895CF92DF92EF92FF920F931F93DF934B
:102E4000CF930F92CDB7DEB7D62EC72E8A0141326F
:102E5000510518F02FEF3FEF36C0E0902603F090B9
:102E60002703AC0160E070E0C70109960E94C50E1F
:102E700048E050E060E070E00E94C50EA80160E00C
:102E800070E00E94C50EDC018D2D9C2DFC019F0180
:102E9000200F311F02C081918D93E217F307D9F7FC
:102EA000402F445F81E190E1B7010E946E1581E1FE
:102EB00090E1BE016F5F7F4F0E9462158981282FCC
:102EC000332727FD3095C9010F90CF91DF911F91D6
:102ED0000F91FF90EF90DF90CF900895AF92BF9247
:102EE000CF92DF92EF92FF920F931F93DF93CF93D6
:102EF000CDB7DEB728970FB6F894DEBF0FBECDBFB3
:102F0000B82EA92E8B016A018FEF9FEF90930F04CB
:102F100080930E04673E710518F02FEF3FEF3BC022
:102F2000E0902603F0902703C701099648E050E09F
:102F300060E070E00E94C50EA80160E070E00E94B1
:102F4000C50EDC018B2D9A2DFC019F01200F311F36
:102F500002C081918D93E217F307D9F7402F485FA4
:102F600080E190E1B7010E946E1580E190E1BE0121
:102F70006F5F7F4F0E94621529813A8130930F0461
:102F800020930E048D819E81AF81B885F6018083E8
:102F90009183A283B383C90128960FB6F894DEBF4C
:102FA0000FBECDBFCF91DF911F910F91FF90EF909A
:102FB000DF90CF90BF90AF900895AF92BF92CF9225
:102FC000DF92EF92FF920F931F9370932903609308
:102FD000280350932B0340932A0330932D0320930F
:102FE0002C031093310300933003F0923303E092EB
:102FF0003203D0923503C0923403B0923703A092CB
:10300000360390932F0380932E0381E080934C032B
:103010001F910F91FF90EF90DF90CF90BF90AF90F6
:103020000895DF93CF9300D000D0CDB7DEB78FEFF8
:103030009FEFAFEFBFEF89839A83AB83BC8360912F
:1030400026037091270382E090E040E00E946E1515
:1030500082E090E0BE016F5F7F4F0E946215698140
:103060007A818B819C819B0120930E0430930F0405
:103070000F900F900F900F90CF91DF9108950F93C5
:103080001F93DF93CF9300D000D0CDB7DEB7AB0155
:10309000BC01DB01CA0188709078A070B0708850C4
:1030A0009048A040B040A9F410924C03483080E80A
:1030B000580780E0680780E0780729F420E030E0D6
:1030C00040E050E02AC0477F5F77607070705068C2
:1030D00003C081E080934C038FEF9FEFAFEFBFEF12
:1030E00089839A83AB83BC830091260310912703C5
:1030F000C80109960E94C50E88E090E0B80144E03E
:103100000E946E1588E090E0BE016F5F7F4F0E94C5
:10311000621529813A814B815C81B901CA010F9006
:103120000F900F900F90CF91DF911F910F91089505
:103130002F923F924F925F926F927F928F929F92C7
:10314000AF92BF92CF92DF92EF92FF920F931F93B5
:10315000DF93CF93CDB7DEB728970FB6F894DEBFD5
:103160000FBECDBF3B014C0119012A018DA58F83F4
:103170009EA5988780912603909127039E838D8337
:10318000099644E250E060E070E00E94C50EB40190
:10319000A3010E94C50EB201A1010E94C50EB80193
:1031A000A7010E94C50EB601A5010E94C50E4D8D56
:1031B0005E8D6F8D78A10E94C50E49A15AA16BA1A9
:1031C0007CA10E94C50E4DA15EA16FA178A50E94B1
:1031D000C50E49A55AA56BA57CA50E94C50EDC01AC
:1031E0008F819885FC019F01205C3F4F02C0819137
:1031F0008D93E217F307D9F783E090E06D817E812C
:1032000044E60E946E1583E090E0BE016F5F7F4F41
:103210000E94621569817A818B819C8128960FB604
:10322000F894DEBF0FBECDBFCF91DF911F910F91FC
:10323000FF90EF90DF90CF90BF90AF909F908F90D6
:103240007F906F905F904F903F902F900895CF9216
:10325000DF92EF92FF920F931F938B019C016A0103
:10326000E0902603F0902703C7010996B901A80151
:103270000E94C50E87E090E0B70144E00E946E1501
:1032800087E090E0B6010E94621560E070E080E0A7
:1032900090E01F910F91FF90EF90DF90CF900895F5
:1032A0000F931F93DF93CF9300D000D0CDB7DEB73D
:1032B000AB01BC010091260310912703C8010996B8
:1032C0000E94C50E8FEF9FEFAFEFBFEF89839A8308
:1032D000AB83BC8386E090E0B80144E00E946E15A9
:1032E00086E090E0BE016F5F7F4F0E9462156981AA
:1032F0007A818B819C810F900F900F900F90CF91CE
:10330000DF911F910F9108954F925F926F927F927C
:103310008F929F92AF92BF92CF92DF92EF92FF92E5
:103320000F931F93DF93CF9300D000D0CDB7DEB7BC
:103330005B016C0139014A018FEF9FEFAFEFBFEFE7
:1033400089839A83AB83BC834090260350902703E4
:10335000C2010996B601A5010E94C50EB401A301E0
:103360000E94C50EB801A7010E94C50E84E090E03E
:10337000B2014CE00E946E1584E090E0BE016F5FE8
:103380007F4F0E94621569817A818B819C810F90A9
:103390000F900F900F90CF91DF911F910F91FF90A1
:1033A000EF90DF90CF90BF90AF909F908F907F90E5
:1033B0006F905F904F9008952F923F924F925F923F
:1033C0006F927F928F929F92AF92BF92CF92DF9235
:1033D000EF92FF920F931F93DF93CF93CDB7DEB79A
:1033E00060970FB6F894DEBF0FBECDBF2B013C0136
:1033F0005C874B870D871E872F87388B16018E01C0
:103400000B5F1F4F86E0D8011D928A95E9F78FEF79
:103410009FEFAFEFBFEF89839A83AB83BC83C090EC
:103420002603D0902703C60109964CE150E060E0E6
:1034300070E00E94C50E4D855E856F8578890E947B
:10344000C50EB301A2010E94C50E4D855E856F8534
:103450007889405F5F4F6F4F7F4F0E94C50EB50167
:10346000A4010E94C50E60E070E00E94E10EDC0144
:10347000E114F10481F0AC0120E030E0F701E20F4B
:10348000F31F8081FA018193AF012F5F3F4F2630F8
:103490003105A1F70EC0B8019C01AE01455F5F4F39
:1034A000FB018191BF01F90181939F0164177507A9
:1034B000B9F7BD016A5F7F4F20E030E040E050E0A7
:1034C0000CC0EB85FC85E20FF31F8081DB018D933F
:1034D000BD012F5F3F4F4F4F5F4F8D859E85AF855D
:1034E000B889281739074A075B075CF381149104F0
:1034F000A104B104C9F021143104B1F020E030E09E
:1035000040E050E00CC0F901DB01A20FB31FE20D57
:10351000F31D80818C932F5F3F4F4F4F5F4F2815D6
:1035200039054A055B057CF34D85445E480D81E015
:1035300090E0B6010E946E1581E090E0BE016F5FE1
:103540007F4F0E94621569817A818B819C819B01EA
:1035500020930E0430930F0460960FB6F894DEBFEC
:103560000FBECDBFCF91DF911F910F91FF90EF90D4
:10357000DF90CF90BF90AF909F908F907F906F9093
:103580005F904F903F902F900895EF92FF920F938E
:103590001F93CF93DF93EC011092440310924503E5
:1035A0001092460310924703109248031092490369
:1035B00010924A0310924B031092210310922003A1
:1035C00010923D0310923C0310923F0310923E0371
:1035D0001092410310924003109243031092420351
:1035E000109238031092390310923A0310923B0361
:1035F00010922303109222031092250310922403A9
:103600008BE992E0909327038093260387E69BE162
:103610000E948C0EE0913003F091310309957B01FB
:103620008C01E0913603F091370381E00995E114B4
:10363000F1040105110559F0E0913003F0913103D7
:1036400009956115710581059105B1F714C0E091E7
:103650003003F091310309956115710581059105DC
:10366000B1F3E0913003F0913103099561157105D3
:1036700081059105B1F7E0912603F0912703CD2B49
:1036800011F480E001C082E0818780E090E4BF0116
:1036900041E00E946E1580E090E460E070E00E94DE
:1036A000621560912603709127038BE090E440E05F
:1036B0000E946E158BE090E460E070E00E9462155D
:1036C000DF91CF911F910F91FF90EF90089521E02E
:1036D00030E03093230320932203909325038093BB
:1036E00024030E946E110895882319F48CB580621A
:1036F00002C08CB58F7D8CBD08959CB5937F982BAF
:103700009CBD08952CB5382F33702C7F322B3CBDD7
:103710002DB590E0959587959595879581702E7F2D
:10372000822B8DBD08958AE061E00E94551D8AE0DC
:1037300061E00E94161D8CB580618CBD8CB58064E3
:103740008CBD8DE061E00E94161D8BE061E00E945F
:10375000161D0895823000F5E82FF0E0EE0FFF1FF0
:10376000E35BFC4F71836083882319F08130A1F4FF
:1037700008C0809169008C7F842B80936900E89A4F
:10378000089580916900440F551F440F551F837F92
:10379000842B80936900E99A0895823080F488230D
:1037A00019F0813021F402C0E89801C0E998E82FAF
:1037B000F0E0EE0FFF1FE35BFC4F118210820895D3
:1037C0001F920F920FB60F9211242F933F934F9396
:1037D0005F936F937F938F939F93AF93BF93EF9379
:1037E000FF9380914D0390914E03892B29F0E09136
:1037F0004D03F0914E030995FF91EF91BF91AF9169
:103800009F918F917F916F915F914F913F912F91F8
:103810000F900FBE0F901F9018951F920F920FB62A
:103820000F9211242F933F934F935F936F937F9346
:103830008F939F93AF93BF93EF93FF9380914F0329
:1038400090915003892B29F0E0914F03F0915003A0
:103850000995FF91EF91BF91AF919F918F917F91CA
:103860006F915F914F913F912F910F900FBE0F90ED
:103870001F9018951F920F920FB60F9211242F933D
:103880003F938F939F93AF93BF93809155039091F4
:103890005603A0915703B0915803309159030196F4
:1038A000A11DB11D232F2D5F2D3720F02D5701961F
:1038B000A11DB11D20935903809355039093560386
:1038C000A0935703B09358038091510390915203F2
:1038D000A0915303B09154030196A11DB11D809393
:1038E000510390935203A0935303B0935403BF9199
:1038F000AF919F918F913F912F910F900FBE0F909D
:103900001F9018959B01AC017FB7F89480915103EB
:1039100090915203A0915303B091540366B5A89BB4
:1039200005C06F3F19F00196A11DB11D7FBFBA2FD1
:10393000A92F982F8827860F911DA11DB11D62E028
:10394000880F991FAA1FBB1F6A95D1F7BC012DC014
:10395000FFB7F8948091510390915203A0915303C3
:10396000B0915403E6B5A89B05C0EF3F19F001964E
:10397000A11DB11DFFBFBA2FA92F982F88278E0F29
:10398000911DA11DB11DE2E0880F991FAA1FBB1F49
:10399000EA95D1F7861B970B885E9340C8F22150B9
:1039A00030404040504068517C4F21153105410561
:1039B000510571F60895789484B5826084BD84B50C
:1039C000816084BD85B5826085BD85B5816085BD1A
:1039D000EEE6F0E0808181608083E1E8F0E0108233
:1039E000808182608083808181608083E0E8F0E074
:1039F000808181608083E1EBF0E08081846080835E
:103A0000E0EBF0E0808181608083EAE7F0E0808194
:103A100084608083808182608083808181608083F4
:103A20008081806880831092C1000895CF93DF93D6
:103A3000482F50E0CA0182579C4FFC0134914658F0
:103A40005C4FFA018491882369F190E0880F991FF7
:103A5000FC01E45AFC4FA591B491FC01EA59FC4FDA
:103A6000C591D491662351F42FB7F8948C91932F7C
:103A7000909589238C93888189230BC0623061F4EF
:103A80002FB7F8948C91932F909589238C938881EC
:103A9000832B88832FBF06C09FB7F8948C91832B0C
:103AA0008C939FBFDF91CF910895482F50E0CA01BA
:103AB0008E559C4FFC012491CA0182579C4FFC01FA
:103AC000949146585C4FFA013491332309F440C075
:103AD000222351F1233071F0243028F42130A1F059
:103AE000223011F514C02630B1F02730C1F0243057
:103AF000D9F404C0809180008F7703C0809180004A
:103B00008F7D8093800010C084B58F7702C084B50C
:103B10008F7D84BD09C08091B0008F7703C08091F4
:103B2000B0008F7D8093B000E32FF0E0EE0FFF1F19
:103B3000EA59FC4FA591B4912FB7F894662321F46C
:103B40008C919095892302C08C91892B8C932FBFE7
:103B50000895682F70E0CB018E559C4FFC01249195
:103B6000CB0182579C4FFC01449166587C4FFB016E
:103B70009491992319F420E030E03CC0222351F1C4
:103B8000233071F0243028F42130A1F0223011F5D7
:103B900014C02630B1F02730C1F02430D9F404C06D
:103BA000809180008F7703C0809180008F7D80930B
:103BB000800010C084B58F7702C084B58F7D84BD2E
:103BC00009C08091B0008F7703C08091B0008F7DD5
:103BD0008093B000892F90E0880F991F80599C4FE7
:103BE000FC01A591B4918C9120E030E0842311F088
:103BF00021E030E0C901089508951F920F920FB699
:103C00000F9211242F933F934F938F939F93EF9392
:103C1000FF938091C00082FD1DC04091C60020919D
:103C20009A0330919B032F5F3F4F2F733070809129
:103C30009C0390919D032817390771F0E0919A0336
:103C4000F0919B03E65AFC4F408330939B032093F3
:103C50009A0302C08091C600FF91EF919F918F91CE
:103C60004F913F912F910F900FBE0F901F9018957D
:103C7000E091EE03F091EF03E05CFF4F81919191B1
:103C800020813181805C9F4F821B930B60E470E048
:103C90000E949A22892B11F00E94FC1D08951F9208
:103CA0000F920FB60F9211242F933F938F939F93F0
:103CB000EF93FF932091DE033091DF038091E003C7
:103CC0009091E1032817390731F48091C1008F7D6D
:103CD0008093C10014C0E091E003F091E103E2564B
:103CE000FC4F20818091E0039091E10301968F7356
:103CF00090709093E1038093E0032093C600FF91BE
:103D0000EF919F918F913F912F910F900FBE0F9048
:103D10001F901895AF92BF92DF92EF92FF920F9390
:103D20001F93CF93DF93EC017A018B01DD244030A8
:103D300081EE580780E0680780E0780711F0DD2405
:103D4000D39491E0A92EB12CEC89FD89DD2069F096
:103D5000C50108A002C0880F991F0A94E2F780836A
:103D600060E079E08DE390E005C0108260E874E8DF
:103D70008EE190E0A80197010E94AD2221503040D1
:103D800040405040569547953795279580E1203023
:103D9000380720F0DD2011F0DD24D6CFE889F9893D
:103DA0003083EA89FB89208319A2EE89FF8940814B
:103DB00021E030E0C9010C8C02C0880F991F0A94E1
:103DC000E2F7482B4083EE89FF894081C9010D8CC1
:103DD00002C0880F991F0A94E2F7482B4083EE89AE
:103DE000FF894081C9010E8C02C0880F991F0A9477
:103DF000E2F7482B4083EE89FF8980810F8C02C057
:103E0000220F331F0A94E2F7209528232083DF91A5
:103E1000CF911F910F91FF90EF90DF90BF90AF90E7
:103E20000895DC011C96ED91FC911D97E05CFF4F1D
:103E30008191919120813181805C9F4F821B930BF6
:103E400060E470E00E949A220895DC011C96ED91D6
:103E5000FC911D97E05CFF4F20813181E054F040E0
:103E6000DF01AE5BBF4F8D919C91119728173907E9
:103E700019F42FEF3FEF07C08D919C91E80FF91FC8
:103E80008081282F30E0C9010895DC011C96ED9156
:103E9000FC911D97E05CFF4F20813181E054F040A0
:103EA000DF01AE5BBF4F8D919C91119728173907A9
:103EB00019F42FEF3FEF10C08D919C911197E80FEF
:103EC000F91F20818D919C91119701968F739070AD
:103ED00011969C938E9330E0C9010895DC01919670
:103EE0008C919197882339F05496ED91FC915597D8
:103EF000808186FFF9CF91961C920895CF93DF932E
:103F0000EC01EE85FF85E05CFF4F20813181E054BC
:103F1000F0402F5F3F4F2F733070DF01AE5BBF4F1C
:103F20008D919C91119728173907D1F3E05CFF4FD1
:103F300080819181E054F040E80FF91F6083EE85A5
:103F4000FF85E05CFF4F31832083EE89FF8920816C
:103F500081E090E00F8C02C0880F991F0A94E2F76D
:103F6000282B208381E089A3EC89FD8980818064EE
:103F7000808381E090E0DF91CF9108951092E50376
:103F80001092E40388EE93E0A0E0B0E08093E603B3
:103F90009093E703A093E803B093E90387E791E0E8
:103FA0009093E3038093E2038AE593E09093EF0319
:103FB0008093EE038EE993E09093F1038093F003F6
:103FC00085EC90E09093F3038093F20384EC90E00F
:103FD0009093F5038093F40380EC90E09093F703C3
:103FE0008093F60381EC90E09093F9038093F803BB
:103FF00082EC90E09093FB038093FA0386EC90E0D0
:104000009093FD038093FC0384E08093FE0383E0A0
:104010008093FF0387E08093000485E08093010490
:1040200081E08093020408950F93FC0187E891E0FA
:104030009183808362834383248305830F91089552
:1040400087E891E09093050480930404109206049D
:1040500010920704109208041092090408958F9298
:104060009F92AF92BF92CF92DF92EF92FF920F9307
:104070001F93CF93DF934C016B017C01AA24BB24D7
:10408000C0E0D0E0C601F70162814AE050E00E9442
:10409000AF218C01C6016EE20E94D020080F191FCB
:1040A000A00EB11E21960894E11CF11CC330D1056D
:1040B00049F7C601F40165814AE050E00E94AF2152
:1040C0009501280F391FC901DF91CF911F910F91E1
:1040D000FF90EF90DF90CF90BF90AF909F908F9028
:1040E00008950895CF93DF930E94DB1C0E947120F6
:1040F0000E940504C8E3DEE10E94FE032097E1F37D
:104100000E94381EF9CFCF92DF92EF92FF920F9369
:104110001F93CF93DF937C016B018A01C0E0D0E055
:104120000FC0D6016D916D01D701ED91FC91019009
:10413000F081E02DC7010995C80FD91F015010402B
:104140000115110571F7CE01DF91CF911F910F91EC
:10415000FF90EF90DF90CF900895EF92FF920F9332
:104160001F93CF93DF937C018B01C0E0D0E0F80177
:104170000F5F1F4F6491662359F0D701ED91FC91B9
:104180000190F081E02DC7010995C80FD91FEFCF2D
:10419000CE01DF91CF911F910F91FF90EF90089585
:1041A000DC01ED91FC910190F081E02D09950895DD
:1041B000EF92FF920F931F938C01DC01ED91FC9124
:1041C0000190F081E02D6DE009957C01D801ED9121
:1041D000FC910190F081E02DC8016AE009959C01F5
:1041E0002E0D3F1DC9011F910F91FF90EF90089573
:1041F000EF92FF920F931F937C010E94AD208C01E0
:10420000C7010E94D8209C01200F311FC9011F91B6
:104210000F91FF90EF900895CF93DF93EC0161151C
:10422000710519F420E030E00FC0DB010D90002093
:10423000E9F71197A61BB70BE881F9810280F3819A
:10424000E02DAD0109959C01C901DF91CF91089541
:104250004F925F927F928F929F92AF92BF92CF9236
:10426000DF92EF92FF920F931F93DF93CF93CDB71F
:10427000DEB7A1970FB6F894DEBF0FBECDBF2C01FD
:10428000742ECB01223008F42AE019A231E2C32EA9
:10429000D12CCC0EDD1E822E9924AA24BB24672D9E
:1042A000752FA50194010E94AD2279018A01C801F0
:1042B000B701A50194010E946722472D461B08946F
:1042C000C108D1084A3014F4405D01C0495CF601D0
:1042D0004083E114F1040105110521F07E2C5F2DCE
:1042E000C801DDCFC201B6010E940C21A1960FB614
:1042F000F894DEBF0FBECDBFCF91DF911F910F911C
:10430000FF90EF90DF90CF90BF90AF909F908F90F5
:104310007F905F904F900895DC012115310541F4A5
:10432000ED91FC910190F081E02D642F09950895A5
:104330000E9428210895EF92FF920F931F937C0112
:104340000E948C218C01C7010E94D8209C01200F63
:10435000311FC9011F910F91FF90EF900895EF92C7
:10436000FF920F931F939A01E62EFF2400E010E0C6
:10437000B801A7010E948C211F910F91FF90EF902F
:104380000895CF92DF92EF92FF920F931F936C01EB
:10439000E62E9A01FF2400E010E0B801A7010E9478
:1043A0008C218C01C6010E94D820080F191FC8015A
:1043B0001F910F91FF90EF90DF90CF900895CF92D3
:1043C000DF92EF92FF920F931F93CF93DF93EC0155
:1043D0006A017B012115310541F4E881F9810190E1
:1043E000F081E02D642F09951FC02A303105D1F4EA
:1043F00077FF17C0E881F9810190F081E02D6DE22F
:1044000009958C0144275527BA014C195D096E099D
:104410007F09CE012AE00E9428219801280F391F28
:1044200004C02AE00E9428219C01C901DF91CF919C
:104430001F910F91FF90EF90DF90CF900895EF9232
:10444000FF920F931F937B019A010027F7FC0095C1
:10445000102FB801A7010E94DF211F910F91FF903B
:10446000EF900895CF92DF92EF92FF920F931F93F8
:104470006C017B019A010027F7FC0095102FB80111
:10448000A7010E94DF218C01C6010E94D820080FDD
:10449000191FC8011F910F91FF90EF90DF90CF90EF
:1044A00008950E940C210895EF92FF920F931F939D
:1044B0007C010E940C218C01C7010E94D820080FAA
:1044C000191FC8011F910F91FF90EF900895629FEF
:1044D000D001739FF001829FE00DF11D649FE00DFC
:1044E000F11D929FF00D839FF00D749FF00D659F5D
:1044F000F00D9927729FB00DE11DF91F639FB00D5C
:10450000E11DF91FBD01CF0111240895AA1BBB1B9A
:1045100051E107C0AA1FBB1FA617B70710F0A61BC3
:10452000B70B881F991F5A95A9F780959095BC01E4
:10453000CD01089597FB092E07260AD077FD04D0F8
:10454000E5DF06D000201AF4709561957F4F08953D
:10455000F6F7909581959F4F0895A1E21A2EAA1B18
:10456000BB1BFD010DC0AA1FBB1FEE1FFF1FA21723
:10457000B307E407F50720F0A21BB30BE40BF50B20
:10458000661F771F881F991F1A9469F760957095A9
:10459000809590959B01AC01BD01CF010895EE0F70
:0E45A000FF1F0590F491E02D0994F894FFCFD1
:1045AE00467265652052414D3A20006A6F6E657302
:1045BE00006A6F6E6173726F74007777772E616425
:1045CE006166727569742E636F6D002E2E2E00FF5C
:1045DE00FF0000D0070000D0070000D0070000D079
:1045EE00070000D0070000D0070000D0070000D061
:1045FE00070000D0070000D0070000D0070000D051
:10460E00070000D0070000D0070000D0070000D040
:10461E00070000000000007E1F8320111F451F258C
:0A462E001F6E1F000000002F200087
:00000001FF
