:100000000C9462000C948A000C948A000C948A0070
:100010000C948A000C948A000C948A000C948A0038
:100020000C948A000C948A000C948A000C948A0028
:100030000C948A000C948A000C948A000C948A0018
:100040000C9453030C948A000C942F050C94810596
:100050000C948A000C948A000C948A000C948A00F8
:100060000C948A000C948A000000000024002700F1
:100070002A0000000000250028002B0000000000DE
:1000800023002600290004040404040404040202DA
:100090000202020203030303030301020408102007
:1000A0004080010204081020010204081020000012
:1000B0000007000201000003040600000000000029
:1000C0000000F00611241FBECFEFD8E0DEBFCDBF89
:1000D00011E0A0E0B1E0E0E6F2E102C005900D928F
:1000E000AC3BB107D9F712E0ACEBB1E001C01D9217
:1000F000A53AB107E1F710E0C4ECD0E004C02297C4
:10010000FE010E942A09C23CD107C9F70E94470795
:100110000C942E090C94000086E060E00E944504D7
:1001200087E065E040E02AEA0E94EC0486E061E0B6
:100130000E94450408950F931F93CF93DF93621B92
:10014000730B7093E3016093E20183E892E00E94F5
:1001500082076091E2017091E30183E892E04AE056
:1001600050E00E94970883E892E060E071E00E940E
:10017000AA0883E892E0B8014AE050E00E9497089C
:1001800083E892E060E271E00E94AA08F801EE0FB5
:10019000FF1FEE0FFF1FEA52FE4F40815181628127
:1001A000738183E892E02AE030E00E94430883E80C
:1001B00092E063E371E00E94AA084091DE01509151
:1001C000DF016091E0017091E10183E892E02AE0B3
:1001D00030E00E9483081092CA011092CB010115F1
:1001E000110551F4E091F001F091F101EC51FE4F55
:1001F00081E0808316820CC00130110549F4E09142
:10020000F001F091F101EC51FE4F81E08683108204
:100210008091F0019091F10101969093F10180930A
:10022000F001E801CC0FDD1FC00FD11FCC0FDD1F87
:10023000CC51DE4F00E010E083E892E069914AE0A3
:1002400050E00E94310883E892E06AE471E00E9485
:10025000AA080F5F1F4F0630110571F783E892E07F
:100260000E9482071092CC011092CD01DF91CF91B4
:100270001F910F9108952F923F924F925F926F922C
:100280007F928F929F92AF92BF92CF92DF92EF9226
:10029000FF920F931F93CF93DF938FE00E94E403AD
:1002A0009C019093BD018093BC01853191050CF4B4
:1002B0005DC08091C2019091C301821793070CF039
:1002C00055C00E949B032091DE013091DF014091D7
:1002D000E0015091E101621B730B840B950B20919F
:1002E000A8013091A901442737FD4095542F2617C6
:1002F00037074807590788F48091CA01882369F0B5
:1003000081E08093CB0183E892E06DE471E00E948C
:10031000AD081092CC011092CD018091BC0190915A
:10032000BD019093C3018093C2010E949B0360931F
:10033000DE017093DF018093E0019093E10181E0A1
:100340008093CA0183E892E069E571E00E94AA08FF
:100350004091DE015091DF016091E0017091E10177
:1003600083E892E02AE030E00E9483080E949B0329
:10037000E090DE01F090DF010091E0011091E101D9
:100380006E197F09800B910B2091A8013091A90172
:10039000442737FD4095542F26173707480759073C
:1003A00048F4E114F1040105110521F01092C30194
:1003B0001092C20182E00E9499041092BF01109233
:1003C000BE01892B31F481E090E09093BF018093CE
:1003D000BE0183E00E9499041092C1011092C001F5
:1003E000892B31F481E090E09093C1018093C001AA
:1003F000AEEB2A2EA1E03A2EF6EDCF2EF1E0DF2E65
:10040000ECEC6E2EE1E07E2E7EEC472E71E0572E56
:1004100064EC862E61E0962E56ECA52E51E0B52EAA
:10042000C0E0D0E0FE01E853FE4F808190E0F10192
:10043000208131812817390739F00E949B03F2018E
:1004400060837183828393830E949B03F2012081E6
:10045000318142815381621B730B840B950B209178
:10046000A6013091A701442737FD4095542F261748
:1004700037074807590708F040C0F1012081318152
:10048000F401808190E02817390721F0208381E072
:10049000F5018083F4018081813079F5F501808157
:1004A000882359F10E949B03F60160837183828344
:1004B000938383E892E06EE671E00E94AA08F60159
:1004C000408151816281738183E892E02AE030E0CB
:1004D0000E94430883E892E06AE871E00E94AA085B
:1004E00083E892E0BE014AE050E00E94970883E86A
:1004F00092E00E948207F5011082F601408151814D
:10050000628173812091DE013091DF01241B350B64
:1005100012161306C4F48091A4019091A501281726
:1005200039078CF4411551056105710561F0F3013E
:100530008081882341F481E0808383E892E06BE945
:1005400071E00E94AD088091CA01882341F1F60153
:10055000208131814281538112161306140615063B
:10056000F4F4E090DE01F090DF010091E0011091E1
:10057000E101DA01C9018E199F09A00BB10B181610
:1005800019061A061B065CF4F3018081882339F4EE
:10059000CA01B901A80197018E010E949B00219612
:1005A00082E090E0280E391EE4E0F0E0CE0EDF1E7F
:1005B0000894611C711C4E0E5F1E0894811C911CD6
:1005C0000894A11CB11CC230D10509F02BCF809139
:1005D000BE018093C8018091C0018093C9018091C0
:1005E000C401882321F48091C501882319F089E092
:1005F00061E002C089E060E00E9445040E948C0036
:10060000DF91CF911F910F91FF90EF90DF90CF90EE
:10061000BF90AF909F908F907F906F905F904F9022
:100620003F902F90089583E892E040E855E260E023
:1006300070E00E94BC058FE060E00E94060482E04A
:1006400062E00E94060483E062E00E94060489E002
:1006500061E00E94060486E061E00E94060485E0F5
:1006600061E00E94060487E061E00E94060420E049
:1006700030E00AC0119201968B309105D9F72F5FB7
:100680003F4F2C30310561F0F901EE0FFF1FE20FF3
:10069000F31FEE0FFF1FEC51FE4F80E090E0EACF1A
:1006A0000E948C0008951F920F920FB60F92112492
:1006B0002F933F938F939F93AF93BF938091F601B6
:1006C0009091F701A091F801B091F9013091FA01F0
:1006D0000196A11DB11D232F2D5F2D3720F02D5721
:1006E0000196A11DB11D2093FA018093F60190930C
:1006F000F701A093F801B093F9018091F201909174
:10070000F301A091F401B091F5010196A11DB11D75
:100710008093F2019093F301A093F401B093F5015B
:10072000BF91AF919F918F913F912F910F900FBEED
:100730000F901F9018958FB7F8942091F601309183
:10074000F7014091F8015091F9018FBFB901CA0139
:100750000895789484B5826084BD84B5816084BD39
:1007600085B5826085BD85B5816085BDEEE6F0E02A
:10077000808181608083E1E8F0E010828081826086
:100780008083808181608083E0E8F0E08081816007
:100790008083E1EBF0E0808184608083E0EBF0E037
:1007A000808181608083EAE7F0E0808184608083DB
:1007B0008081826080838081816080838081806885
:1007C00080831092C1000895982F8E3008F09E50BB
:1007D00097708091AA018295880F880F807C892B61
:1007E00080937C0080917A00806480937A0080916D
:1007F0007A0086FDFCCF2091780040917900942FFB
:1008000080E030E0282B392BC9010895CF93DF9386
:10081000482F50E0CA0186569F4FFC0134914A5739
:100820005F4FFA018491882369F190E0880F991F46
:10083000FC01E859FF4FA591B491FC01EE58FF4F20
:10084000C591D491662351F42FB7F8948C91932FCE
:10085000909589238C93888189230BC0623061F441
:100860002FB7F8948C91932F909589238C9388813E
:10087000832B88832FBF06C09FB7F8948C91832B5E
:100880008C939FBFDF91CF910895482F50E0CA010C
:1008900082559F4FFC012491CA0186569F4FFC014F
:1008A00094914A575F4FFA013491332309F440C0C1
:1008B000222351F1233071F0243028F42130A1F0AB
:1008C000223011F514C02630B1F02730C1F02430A9
:1008D000D9F404C0809180008F7703C0809180009C
:1008E0008F7D8093800010C084B58F7702C084B55F
:1008F0008F7D84BD09C08091B0008F7703C0809147
:10090000B0008F7D8093B000E32FF0E0EE0FFF1F6B
:10091000EE58FF4FA591B4912FB7F894662321F4B8
:100920008C919095892302C08C91892B8C932FBF39
:100930000895682F70E0CB0182559F4FFC012491F0
:10094000CB0186569F4FFC0144916A577F4FFB01B4
:100950009491992319F420E030E03CC0222351F116
:10096000233071F0243028F42130A1F0223011F529
:1009700014C02630B1F02730C1F02430D9F404C0BF
:10098000809180008F7703C0809180008F7D80935D
:10099000800010C084B58F7702C084B58F7D84BD80
:1009A00009C08091B0008F7703C08091B0008F7D27
:1009B0008093B000892F90E0880F991F84589F4F33
:1009C000FC01A591B4918C9120E030E0842311F0DA
:1009D00021E030E0C9010895BF92CF92DF92EF92FB
:1009E000FF920F931F93CF93DF93E82EF62EB42E32
:1009F000C7E0D0E0022F10E087E0C82ED12CBB204A
:100A000059F4B6016C1B7D0BC80102C09595879502
:100A10006A95E2F7BC0107C0B8010C2E02C07595BB
:100A200067950A94E2F761708E2D0E9445048F2D20
:100A300061E00E9445048F2D60E00E9445042197EB
:100A40009FEFCF3FD907D9F6DF91CF911F910F913B
:100A5000FF90EF90DF90CF90BF90089508951F9280
:100A60000F920FB60F9211242F933F934F938F93B2
:100A70009F93EF93FF938091C00082FD1DC0409132
:100A8000C60020913B0230913C022F5F3F4F2F73F5
:100A9000307080913D0290913E022817390771F025
:100AA000E0913B02F0913C02E550FE4F40833093D1
:100AB0003C0220933B0202C08091C600FF91EF915F
:100AC0009F918F914F913F912F910F900FBE0F905B
:100AD0001F901895E0918F02F0919002E05CFF4F1B
:100AE0008191919120813181805C9F4F821B930B7A
:100AF00060E470E00E94DF08892B11F00E942E054F
:100B000008951F920F920FB60F9211242F933F93C7
:100B10008F939F93EF93FF9320917F0230918002F8
:100B200080918102909182022817390731F48091D7
:100B3000C1008F7D8093C10014C0E0918102F091CB
:100B40008202E15CFD4F20818091810290918202BE
:100B500001968F739070909382028093810220930C
:100B6000C600FF91EF919F918F913F912F910F9030
:100B70000FBE0F901F901895AF92BF92DF92EF9229
:100B8000FF920F931F93CF93DF93EC017A018B01B8
:100B9000DD24403081EE580780E0680780E0780768
:100BA00011F0DD24D39491E0A92EB12CEC89FD89BC
:100BB000DD2069F0C50108A002C0880F991F0A94C2
:100BC000E2F7808360E079E08DE390E005C0108279
:100BD00060E874E88EE190E0A80197010E94F208B5
:100BE00021503040404050405695479537952795C5
:100BF00080E12030380720F0DD2011F0DD24D6CF51
:100C0000E889F9893083EA89FB89208319A2EE8972
:100C1000FF89408121E030E0C9010C8C02C0880FBF
:100C2000991F0A94E2F7482B4083EE89FF8940819F
:100C3000C9010D8C02C0880F991F0A94E2F7482B56
:100C40004083EE89FF894081C9010E8C02C0880F64
:100C5000991F0A94E2F7482B4083EE89FF8980812F
:100C60000F8C02C0220F331F0A94E2F7209528232D
:100C70002083DF91CF911F910F91FF90EF90DF9034
:100C8000BF90AF900895DC011C96ED91FC911D97EB
:100C9000E05CFF4F8191919120813181805C9F4F79
:100CA000821B930B60E470E00E94DF080895DC0172
:100CB0001C96ED91FC911D97E05CFF4F20813181E6
:100CC000E054F040DF01AE5BBF4F8D919C911197D6
:100CD0002817390719F42FEF3FEF07C08D919C912A
:100CE000E80FF91F8081282F30E0C9010895DC0149
:100CF0001C96ED91FC911D97E05CFF4F20813181A6
:100D0000E054F040DF01AE5BBF4F8D919C91119795
:100D10002817390719F42FEF3FEF10C08D919C91E0
:100D20001197E80FF91F20818D919C9111970196E1
:100D30008F73907011969C938E9330E0C901089543
:100D4000DC0191968C919197882339F05496ED911E
:100D5000FC915597808186FFF9CF91961C9208955A
:100D6000CF93DF93EC01EE85FF85E05CFF4F2081A0
:100D70003181E054F0402F5F3F4F2F733070DF011F
:100D8000AE5BBF4F8D919C91119728173907D1F316
:100D9000E05CFF4F80819181E054F040E80FF91F43
:100DA0006083EE85FF85E05CFF4F31832083EE8911
:100DB000FF89208181E090E00F8C02C0880F991F8D
:100DC0000A94E2F7282B208381E089A3EC89FD892E
:100DD00080818064808381E090E0DF91CF910895ED
:100DE000109286021092850288EE93E0A0E0B0E0B7
:100DF0008093870290938802A0938902B0938A021D
:100E00008FEA91E090938402809383028BEF91E0CC
:100E10009093900280938F028FE392E090939202DE
:100E20008093910285EC90E09093940280939302DA
:100E300084EC90E0909396028093950280EC90E091
:100E4000909398028093970281EC90E090939A029D
:100E50008093990282EC90E090939C0280939B0295
:100E600086EC90E090939E0280939D0284E08093B4
:100E70009F0283E08093A00287E08093A10285E037
:100E80008093A20281E08093A30208950895CF93F6
:100E9000DF930E94A9030E9446070E941303CAE63B
:100EA000D5E00E943B012097E1F30E946A05F9CF4B
:100EB000CF92DF92EF92FF920F931F93CF93DF9326
:100EC0007C016B018A01C0E0D0E00FC0D6016D91BA
:100ED0006D01D701ED91FC910190F081E02DC701EA
:100EE0000995C80FD91F015010400115110571F760
:100EF000CE01DF91CF911F910F91FF90EF90DF9086
:100F0000CF900895EF92FF920F931F938C01DC0115
:100F1000ED91FC910190F081E02D6DE009957C014F
:100F2000D801ED91FC910190F081E02DC8016AE0BB
:100F300009959C012E0D3F1DC9011F910F91FF9036
:100F4000EF900895CF93DF93EC016115710519F4CB
:100F500020E030E00FC0DB010D900020E9F7119791
:100F6000A61BB70BE881F9810280F381E02DAD016A
:100F700009959C01C901DF91CF9108954F925F922D
:100F80007F928F929F92AF92BF92CF92DF92EF9219
:100F9000FF920F931F93DF93CF93CDB7DEB7A19747
:100FA0000FB6F894DEBF0FBECDBF2C01742ECB015F
:100FB000223008F42AE019A231E2C32ED12CCC0E43
:100FC000DD1E822E9924AA24BB24672D752FA5012E
:100FD00094010E94F20879018A01C801B701A501B4
:100FE00094010E94C008472D461B0894C108D108EF
:100FF0004A3014F4405D01C0495CF6014083E114BD
:10100000F1040105110521F07E2C5F2DC801DDCF13
:10101000C201B6010E94A207A1960FB6F894DEBFE6
:101020000FBECDBFCF91DF911F910F91FF90EF9039
:10103000DF90CF90BF90AF909F908F907F905F9008
:101040004F900895DC012115310541F4ED91FC919B
:101050000190F081E02D642F099508950E94BE074C
:101060000895EF92FF920F931F939A01E62EFF24AB
:1010700000E010E0B801A7010E9422081F910F9123
:10108000FF90EF900895CF92DF92EF92FF920F932F
:101090001F93CF93DF93EC016A017B01211531058A
:1010A00041F4E881F9810190F081E02D642F0995E8
:1010B0001FC02A303105D1F477FF17C0E881F981CC
:1010C0000190F081E02D6DE209958C0144275527B0
:1010D000BA014C195D096E097F09CE012AE00E9410
:1010E000BE079801280F391F04C02AE00E94BE07DE
:1010F0009C01C901DF91CF911F910F91FF90EF905B
:10110000DF90CF900895EF92FF920F931F937C0191
:101110000E9443088C01C7010E9482079C01200F96
:10112000311FC9011F910F91FF90EF900895EF9229
:10113000FF920F931F937B019A010027F7FC009504
:10114000102FB801A7010E9443081F910F91FF9033
:10115000EF9008950E94A2070895EF92FF920F93D7
:101160001F937C010E94A2078C01C7010E94820785
:10117000080F191FC8011F910F91FF90EF9008955C
:10118000629FD001739FF001829FE00DF11D649F6B
:10119000E00DF11D929FF00D839FF00D749FF00DF7
:1011A000659FF00D9927729FB00DE11DF91F639F98
:1011B000B00DE11DF91FBD01CF011124089597FB6A
:1011C000092E07260AD077FD04D02ED006D00020A5
:1011D0001AF4709561957F4F0895F6F79095819573
:1011E0009F4F0895A1E21A2EAA1BBB1BFD010DC043
:1011F000AA1FBB1FEE1FFF1FA217B307E407F507C7
:1012000020F0A21BB30BE40BF50B661F771F881FA2
:10121000991F1A9469F760957095809590959B0138
:10122000AC01BD01CF010895AA1BBB1B51E107C052
:10123000AA1FBB1FA617B70710F0A61BB70B881F66
:10124000991F5A95A9F780959095BC01CD010895F5
:10125000EE0FFF1F0590F491E02D0994F894FFCF55
:10126000203D205265616374696F6E2044656C6136
:10127000792066726F6D20506C617965723A20003A
:1012800020E28093206C61737420427574746F6ED9
:101290003A200020E2809320616E64206C617374B8
:1012A000205369676E616C3A20002C2000324E4456
:1012B000205369676E616C21005F5F5F5F5F5F5EF7
:1012C0005F5F204E4557205045414B3A20004C610E
:1012D00073742054696D6520427574746F6E20506C
:1012E000726573736564203A2000206F6620506C2D
:1012F00061796572204E722E3A200042494720469D
:1013000041494C00BC023200F4010100000000B071
:0C131000065807430677065706A00600A3
:00000001FF
