:100000000C9462000C948A000C948A000C948A0070
:100010000C948A000C948A000C948A000C948A0038
:100020000C948A000C948A000C948A000C948A0028
:100030000C948A000C948A000C948A000C948A0018
:100040000C9403030C948A000C949D040C94EF040C
:100050000C948A000C948A000C948A000C948A00F8
:100060000C948A000C948A000000000024002700F1
:100070002A0000000000250028002B0000000000DE
:1000800023002600290004040404040404040202DA
:100090000202020203030303030301020408102007
:1000A0004080010204081020010204081020000012
:1000B0000007000201000003040600000000000029
:1000C00000005E0611241FBECFEFD8E0DEBFCDBF1B
:1000D00011E0A0E0B1E0EAEFF0E102C005900D927E
:1000E000A83BB107D9F712E0A8EBB1E001C01D921F
:1000F000A33AB107E1F710E0C4ECD0E004C02297C6
:10010000FE010E947708C23CD107C9F70E94B506DC
:100110000C947B080C940000EF92FF920F931F93B6
:10012000621B730B7093DF016093DE0151E8E52ED3
:1001300052E0F52EC7010E94F0066091DE01709139
:10014000DF01C7014AE050E00E94E407C70160E018
:1001500071E00E94F707C701B8014AE050E00E9431
:10016000E407C70160E271E00E94F707F801EE0FB3
:10017000FF1FEE0FFF1FEE52FE4F40815181628143
:100180007381C7012AE030E00E949007C70163E352
:1001900071E00E94F7074091DA015091DB01609114
:1001A000DC017091DD01C7012AE030E00E94D00738
:1001B0001092C6011092C701F801EE0FFF1FDF0178
:1001C000A451BE4F8D919C911197E00FF11FEE0F3E
:1001D000FF1FE80FF91FE052FE4F21E02083019638
:1001E0008D939C931092C8011092C9011F910F9199
:1001F000FF90EF9008952F923F924F925F926F92EF
:100200007F928F929F92AF92BF92CF92DF92EF92A6
:10021000FF920F931F93CF93DF938FE00E9494037D
:100220009C019093B9018093B801853191050CF43C
:100230005DC08091BE019091BF01821793070CF0C1
:1002400055C00E944B032091DA013091DB014091AF
:10025000DC015091DD01621B730B840B950B209127
:10026000A5013091A601442737FD4095542F26174C
:1002700037074807590788F48091C601882369F039
:1002800081E08093C70181E892E06AE471E00E9416
:10029000FA071092C8011092C9018091B80190919B
:1002A000B9019093BF018093BE010E944B036093FC
:1002B000DA017093DB018093DC019093DD0181E032
:1002C0008093C60181E892E066E571E00E94F7073D
:1002D0004091DA015091DB016091DC017091DD0108
:1002E00081E892E02AE030E00E94D0070E944B03B0
:1002F000E090DA01F090DB010091DC011091DD016A
:100300006E197F09800B910B2091A5013091A601F8
:10031000442737FD4095542F2617370748075907BC
:1003200048F4E114F1040105110521F01092BF0118
:100330001092BE0182E00E9449041092BB0110920B
:10034000BA01892B31F481E090E09093BB01809356
:10035000BA0183E00E9449041092BD011092BC01D1
:10036000892B31F481E090E09093BD018093BC0132
:10037000BAEB2B2EB1E03B2EA2EDCA2EA1E0DA2E75
:10038000F8EC6F2EF1E07F2EEAEC4E2EE1E05E2ECF
:1003900070EC872E71E0972E62ECA62E61E0B62EEF
:1003A000C0E0D0E0FE01EC53FE4F808190E0F1010F
:1003B000208131812817390739F00E944B03F2015F
:1003C00060837183828393830E944B03F2012081B7
:1003D000318142815381621B730B840B950B2091F9
:1003E000A3013091A401442737FD4095542F2617CF
:1003F00037074807590708F040C0F10120813181D3
:10040000F401808190E02817390721F0208381E0F2
:10041000F5018083F4018081813079F5F5018081D7
:10042000882359F10E944B03F60160837183828314
:10043000938381E892E06BE671E00E94F707F60192
:10044000408151816281738181E892E02AE030E04D
:100450000E94900781E892E067E871E00E94F70748
:1004600081E892E0BE014AE050E00E94E40781E8A2
:1004700092E00E94F006F5011082F6014081518160
:10048000628173812091DA013091DB01241B350BED
:1004900012161306C4F48091A1019091A2012817AD
:1004A00039078CF4411551056105710561F0F301BF
:1004B0008081882341F481E0808381E892E068E9CB
:1004C00071E00E94FA078091C601882341F1F6018C
:1004D00020813181428153811216130614061506BC
:1004E000F4F4E090DA01F090DB010091DC0110916E
:1004F000DD01DA01C9018E199F09A00BB10B181695
:1005000019061A061B065CF4F3018081882339F46E
:10051000CA01B901A80197018E010E948C002196A1
:1005200082E090E0280E391EE4E0F0E0CE0EDF1EFF
:100530000894611C711C4E0E5F1E0894811C911C56
:100540000894A11CB11CC230D10509F02BCF8091B9
:10055000BA018093C4018091BC018093C501809150
:10056000C001882321F48091C101882319F089E01A
:1005700061E002C089E060E00E94F503DF91CF9165
:100580001F910F91FF90EF90DF90CF90BF90AF90B1
:100590009F908F907F906F905F904F903F902F90A3
:1005A000089581E892E040E855E260E070E00E9442
:1005B0002A058FE060E00E94B60382E062E00E94BC
:1005C000B60383E062E00E94B60389E061E00E9426
:1005D000B60320E030E00AC0119201968B309105FD
:1005E000D9F72F5F3F4F2C30310561F0F901EE0F45
:1005F000FF1FE20FF31FEE0FFF1FE052FE4F80E0E0
:1006000090E0EACF08951F920F920FB60F92112437
:100610002F933F938F939F93AF93BF938091F40158
:100620009091F501A091F601B091F7013091F80198
:100630000196A11DB11D232F2D5F2D3720F02D57C1
:100640000196A11DB11D2093F8018093F4019093B0
:10065000F501A093F601B093F7018091F00190911C
:10066000F101A091F201B091F3010196A11DB11D1C
:100670008093F0019093F101A093F201B093F30104
:10068000BF91AF919F918F913F912F910F900FBE8E
:100690000F901F9018958FB7F8942091F401309126
:1006A000F5014091F6015091F7018FBFB901CA01E0
:1006B0000895789484B5826084BD84B5816084BDDA
:1006C00085B5826085BD85B5816085BDEEE6F0E0CB
:1006D000808181608083E1E8F0E010828081826027
:1006E0008083808181608083E0E8F0E080818160A8
:1006F0008083E1EBF0E0808184608083E0EBF0E0D8
:10070000808181608083EAE7F0E08081846080837B
:100710008081826080838081816080838081806825
:1007200080831092C1000895982F8E3008F09E505B
:1007300097708091A7018295880F880F807C892B04
:1007400080937C0080917A00806480937A0080910D
:100750007A0086FDFCCF2091780040917900942F9B
:1007600080E030E0282B392BC9010895CF93DF9327
:10077000482F50E0CA0186569F4FFC0134914A57DA
:100780005F4FFA018491882369F190E0880F991FE7
:10079000FC01E859FF4FA591B491FC01EE58FF4FC1
:1007A000C591D491662351F42FB7F8948C91932F6F
:1007B000909589238C93888189230BC0623061F4E2
:1007C0002FB7F8948C91932F909589238C938881DF
:1007D000832B88832FBF06C09FB7F8948C91832BFF
:1007E0008C939FBFDF91CF910895482F50E0CA01AD
:1007F00082559F4FFC012491CA0186569F4FFC01F0
:1008000094914A575F4FFA013491332309F440C061
:10081000222351F1233071F0243028F42130A1F04B
:10082000223011F514C02630B1F02730C1F0243049
:10083000D9F404C0809180008F7703C0809180003C
:100840008F7D8093800010C084B58F7702C084B5FF
:100850008F7D84BD09C08091B0008F7703C08091E7
:10086000B0008F7D8093B000E32FF0E0EE0FFF1F0C
:10087000EE58FF4FA591B4912FB7F894662321F459
:100880008C919095892302C08C91892B8C932FBFDA
:100890000895682F70E0CB0182559F4FFC01249191
:1008A000CB0186569F4FFC0144916A577F4FFB0155
:1008B0009491992319F420E030E03CC0222351F1B7
:1008C000233071F0243028F42130A1F0223011F5CA
:1008D00014C02630B1F02730C1F02430D9F404C060
:1008E000809180008F7703C0809180008F7D8093FE
:1008F000800010C084B58F7702C084B58F7D84BD21
:1009000009C08091B0008F7703C08091B0008F7DC7
:100910008093B000892F90E0880F991F84589F4FD3
:10092000FC01A591B4918C9120E030E0842311F07A
:1009300021E030E0C901089508951F920F920FB68B
:100940000F9211242F933F934F938F939F93EF9385
:10095000FF938091C00082FD1DC04091C600209190
:10096000390230913A022F5F3F4F2F7330708091E0
:100970003B0290913C022817390771F0E09139024F
:10098000F0913A02E750FE4F408330933A022093B1
:10099000390202C08091C600FF91EF919F918F9123
:1009A0004F913F912F910F900FBE0F901F90189570
:1009B000E0918D02F0918E02E05CFF4F8191919168
:1009C00020813181805C9F4F821B930B60E470E03B
:1009D0000E942C08892B11F00E949C0408951F92FC
:1009E0000F920FB60F9211242F933F938F939F93E3
:1009F000EF93FF9320917D0230917E0280917F02E0
:100A0000909180022817390731F48091C1008F7DC1
:100A10008093C10014C0E0917F02F0918002E35CFA
:100A2000FD4F208180917F029091800201968F730B
:100A300090709093800280937F022093C600FF9174
:100A4000EF919F918F913F912F910F900FBE0F903B
:100A50001F901895AF92BF92DF92EF92FF920F9383
:100A60001F93CF93DF93EC017A018B01DD2440309B
:100A700081EE580780E0680780E0780711F0DD24F8
:100A8000D39491E0A92EB12CEC89FD89DD2069F089
:100A9000C50108A002C0880F991F0A94E2F780835D
:100AA00060E079E08DE390E005C0108260E874E8D2
:100AB0008EE190E0A80197010E943F08215030404C
:100AC00040405040569547953795279580E1203016
:100AD000380720F0DD2011F0DD24D6CFE889F98930
:100AE0003083EA89FB89208319A2EE89FF8940813E
:100AF00021E030E0C9010C8C02C0880F991F0A94D4
:100B0000E2F7482B4083EE89FF894081C9010D8CB3
:100B100002C0880F991F0A94E2F7482B4083EE89A0
:100B2000FF894081C9010E8C02C0880F991F0A9469
:100B3000E2F7482B4083EE89FF8980810F8C02C049
:100B4000220F331F0A94E2F7209528232083DF9198
:100B5000CF911F910F91FF90EF90DF90BF90AF90DA
:100B60000895DC011C96ED91FC911D97E05CFF4F10
:100B70008191919120813181805C9F4F821B930BE9
:100B800060E470E00E942C080895DC011C96ED9151
:100B9000FC911D97E05CFF4F20813181E054F040D3
:100BA000DF01AE5BBF4F8D919C91119728173907DC
:100BB00019F42FEF3FEF07C08D919C91E80FF91FBB
:100BC0008081282F30E0C9010895DC011C96ED9149
:100BD000FC911D97E05CFF4F20813181E054F04093
:100BE000DF01AE5BBF4F8D919C911197281739079C
:100BF00019F42FEF3FEF10C08D919C911197E80FE2
:100C0000F91F20818D919C91119701968F7390709F
:100C100011969C938E9330E0C9010895DC01919662
:100C20008C919197882339F05496ED91FC915597CA
:100C3000808186FFF9CF91961C920895CF93DF9320
:100C4000EC01EE85FF85E05CFF4F20813181E054AF
:100C5000F0402F5F3F4F2F733070DF01AE5BBF4F0F
:100C60008D919C91119728173907D1F3E05CFF4FC4
:100C700080819181E054F040E80FF91F6083EE8598
:100C8000FF85E05CFF4F31832083EE89FF8920815F
:100C900081E090E00F8C02C0880F991F0A94E2F760
:100CA000282B208381E089A3EC89FD8980818064E1
:100CB000808381E090E0DF91CF91089510928402CB
:100CC0001092830288EE93E0A0E0B0E0809385026A
:100CD00090938602A0938702B09388028CEA91E0F9
:100CE000909382028093810289EF91E090938E022B
:100CF00080938D028DE392E09093900280938F0217
:100D000085EC90E0909392028093910284EC90E0C5
:100D1000909394028093930280EC90E090939602DB
:100D20008093950281EC90E09093980280939702D3
:100D300082EC90E090939A028093990286EC90E086
:100D400090939C0280939B0284E080939D0283E0B9
:100D500080939E0287E080939F0285E08093A002AB
:100D600081E08093A10208950895CF93DF930E94BC
:100D700059030E94B4060E94D102C8EDD4E00E943B
:100D8000FB002097E1F30E94D804F9CFCF92DF92C5
:100D9000EF92FF920F931F93CF93DF937C016B0130
:100DA0008A01C0E0D0E00FC0D6016D916D01D7017E
:100DB000ED91FC910190F081E02DC7010995C80FDC
:100DC000D91F015010400115110571F7CE01DF91B7
:100DD000CF911F910F91FF90EF90DF90CF900895EA
:100DE000EF92FF920F931F938C01DC01ED91FC9128
:100DF0000190F081E02D6DE009957C01D801ED9125
:100E0000FC910190F081E02DC8016AE009959C01F8
:100E10002E0D3F1DC9011F910F91FF90EF90089576
:100E2000CF93DF93EC016115710519F420E030E0F8
:100E30000FC0DB010D900020E9F71197A61BB70B3F
:100E4000E881F9810280F381E02DAD0109959C01D3
:100E5000C901DF91CF9108954F925F927F928F9257
:100E60009F92AF92BF92CF92DF92EF92FF920F9339
:100E70001F93DF93CF93CDB7DEB7A1970FB6F8944A
:100E8000DEBF0FBECDBF2C01742ECB01223008F483
:100E90002AE019A231E2C32ED12CCC0EDD1E822E07
:100EA0009924AA24BB24672D752FA50194010E94C3
:100EB0003F0879018A01C801B701A50194010E9488
:100EC0000D08472D461B0894C108D1084A3014F478
:100ED000405D01C0495CF6014083E114F104010565
:100EE000110521F07E2C5F2DC801DDCFC201B601B6
:100EF0000E941007A1960FB6F894DEBF0FBECDBFBB
:100F0000CF91DF911F910F91FF90EF90DF90CF90E5
:100F1000BF90AF909F908F907F905F904F9008957B
:100F2000CF92DF92EF92FF920F931F93CF93DF93B5
:100F3000EC016A017B012115310541F4E881F98159
:100F40000190F081E02D642F09951FC02A303105F2
:100F5000D1F477FF17C0E881F9810190F081E02D8D
:100F60006DE209958C0144275527BA014C195D099A
:100F70006E097F09CE012AE00E942C079801280FF4
:100F8000391F04C02AE00E942C079C01C901DF918F
:100F9000CF911F910F91FF90EF90DF90CF90089528
:100FA000EF92FF920F931F937C010E9490078C0198
:100FB000C7010E94F0069C01200F311FC9011F913B
:100FC0000F91FF90EF900895EF92FF920F931F9370
:100FD0007B019A010027F7FC0095102FB801A701AB
:100FE0000E9490071F910F91FF90EF9008950E942B
:100FF00010070895EF92FF920F931F937C010E94B8
:1010000010078C01C7010E94F006080F191FC801C4
:101010001F910F91FF90EF900895629FD001739FF1
:10102000F001829FE00DF11D649FE00DF11D929F84
:10103000F00D839FF00D749FF00D659FF00D9927C3
:10104000729FB00DE11DF91F639FB00DE11DF91FE7
:10105000BD01CF011124089597FB092E07260AD060
:1010600077FD04D02ED006D000201AF4709561953B
:101070007F4F0895F6F7909581959F4F0895A1E2CF
:101080001A2EAA1BBB1BFD010DC0AA1FBB1FEE1F02
:10109000FF1FA217B307E407F50720F0A21BB30B4D
:1010A000E40BF50B661F771F881F991F1A9469F7C9
:1010B00060957095809590959B01AC01BD01CF0125
:1010C0000895AA1BBB1B51E107C0AA1FBB1FA6178F
:1010D000B70710F0A61BB70B881F991F5A95A9F7E1
:1010E00080959095BC01CD010895EE0FFF1F0590EE
:0A10F000F491E02D0994F894FFCF6D
:1010FA00203D205265616374696F6E2044656C619E
:10110A00792066726F6D20506C617965723A2000A1
:10111A0020E28093206C61737420427574746F6E40
:10112A003A200020E2809320616E64206C6173741F
:10113A00205369676E616C3A2000324E442053692D
:10114A00676E616C21005F5F5F5F5F5F5E5F5F205C
:10115A004E4557205045414B3A20004C617374204C
:10116A0054696D6520427574746F6E205072657390
:10117A00736564203A2000206F6620506C6179659F
:10118A0072204E722E3A2000424947204641494C6D
:10119A0000BC023200F40101000000001E06C6066F
:0811AA00B105E505C5050E06BF
:00000001FF
