:100000000C9462000C948A000C948A000C948A0070
:100010000C948A000C948A000C948A000C948A0038
:100020000C948A000C948A000C948A000C948A0028
:100030000C948A000C948A000C948A000C948A0018
:100040000C94E9040C948A000C9481010C94D30163
:100050000C948A000C948A000C948A000C948A00F8
:100060000C948A000C948A000000000024002700F1
:100070002A0000000000250028002B0000000000DE
:1000800023002600290004040404040404040202DA
:100090000202020203030303030301020408102007
:1000A0004080010204081020010204081020000012
:1000B0000007000201000003040600000000000029
:1000C0000000420311241FBECFEFD8E0DEBFCDBF3A
:1000D00011E0A0E0B1E0E8EBFBE002C005900D927A
:1000E000A831B107D9F711E0A8E1B1E001C01D9234
:1000F000AB3CB107E1F710E0C4ECD0E004C02297BC
:10010000FE010E94D605C23CD107C9F70E9499039F
:100110000C94DA050C940000CF93DF938FE00E94DB
:10012000CB00EC0180EA91E0BE014AE050E00E9481
:10013000C70481E0CD32D807B4F089E061E00E94C5
:100140002C0180EA91E0BE014AE050E00E94B40434
:1001500080EA91E060E071E00E94E60480EA91E0CC
:100160000E94D40304C089E060E00E942C01DF916A
:10017000CF91089580EA91E040E855E260E070E0B8
:100180000E940E028FE060E00E94ED0089E061E0D5
:100190000E94ED000895982F8E3008F09E509770C1
:1001A000809106018295880F880F807C892B80932F
:1001B0007C0080917A00806480937A0080917A003C
:1001C00086FDFCCF2091780040917900942F80E04B
:1001D00030E0282B392BC9010895CF93DF93482FA6
:1001E00050E0CA0186569F4FFC0134914A575F4F39
:1001F000FA018491882369F190E0880F991FFC012E
:10020000E859FF4FA591B491FC01EE58FF4FC591FD
:10021000D491662351F42FB7F8948C91932F909535
:1002200089238C93888189230BC0623061F42FB7B6
:10023000F8948C91932F909589238C938881832BAC
:1002400088832FBF06C09FB7F8948C91832B8C9323
:100250009FBFDF91CF910895482F50E0CA0182558A
:100260009F4FFC012491CA0186569F4FFC01949137
:100270004A575F4FFA013491332309F440C02223D7
:1002800051F1233071F0243028F42130A1F02230D4
:1002900011F514C02630B1F02730C1F02430D9F464
:1002A00004C0809180008F7703C0809180008F7D93
:1002B0008093800010C084B58F7702C084B58F7D95
:1002C00084BD09C08091B0008F7703C08091B000D9
:1002D0008F7D8093B000E32FF0E0EE0FFF1FEE580C
:1002E000FF4FA591B4912FB7F894662321F48C9118
:1002F0009095892302C08C91892B8C932FBF0895F0
:1003000008951F920F920FB60F9211242F933F93CF
:100310004F938F939F93EF93FF938091C00082FD43
:100320001DC04091C60020915801309159012F5FA6
:100330003F4F2F73307080915A0190915B012817C5
:10034000390771F0E0915801F0915901E85EFE4FD4
:100350004083309359012093580102C08091C60018
:10036000FF91EF919F918F914F913F912F910F901E
:100370000FBE0F901F901895E091AC01F091AD0168
:10038000E05CFF4F8191919120813181805C9F4F92
:10039000821B930B60E470E00E948B05892B11F0A7
:1003A0000E94800108951F920F920FB60F921124A0
:1003B0002F933F938F939F93EF93FF9320919C01F3
:1003C00030919D0180919E0190919F0128173907DE
:1003D00031F48091C1008F7D8093C10014C0E09101
:1003E0009E01F0919F01E45AFE4F208180919E0171
:1003F00090919F0101968F73907090939F018093CD
:100400009E012093C600FF91EF919F918F913F91A4
:100410002F910F900FBE0F901F901895AF92BF9223
:10042000DF92EF92FF920F931F93CF93DF93EC0134
:100430007A018B01DD24403081EE580780E06807A7
:1004400080E0780711F0DD24D39491E0A92EB12C3F
:10045000EC89FD89DD2069F0C50108A002C0880F84
:10046000991F0A94E2F7808360E079E08DE390E0E1
:1004700005C0108260E874E88EE190E0A801970161
:100480000E949E052150304040405040569547956F
:100490003795279580E12030380720F0DD2011F0D6
:1004A000DD24D6CFE889F9893083EA89FB89208366
:1004B00019A2EE89FF89408121E030E0C9010C8C4E
:1004C00002C0880F991F0A94E2F7482B4083EE89F7
:1004D000FF894081C9010D8C02C0880F991F0A94C1
:1004E000E2F7482B4083EE89FF894081C9010E8CD9
:1004F00002C0880F991F0A94E2F7482B4083EE89C7
:10050000FF8980810F8C02C0220F331F0A94E2F70B
:10051000209528232083DF91CF911F910F91FF9089
:10052000EF90DF90BF90AF900895DC011C96ED91A5
:10053000FC911D97E05CFF4F819191912081318169
:10054000805C9F4F821B930B60E470E00E948B05E0
:100550000895DC011C96ED91FC911D97E05CFF4F26
:1005600020813181E054F040DF01AE5BBF4F8D91BF
:100570009C9111972817390719F42FEF3FEF07C007
:100580008D919C91E80FF91F8081282F30E0C901DF
:100590000895DC011C96ED91FC911D97E05CFF4FE6
:1005A00020813181E054F040DF01AE5BBF4F8D917F
:1005B0009C9111972817390719F42FEF3FEF10C0BE
:1005C0008D919C911197E80FF91F20818D919C913D
:1005D000119701968F73907011969C938E9330E0D3
:1005E000C9010895DC0191968C919197882339F087
:1005F0005496ED91FC915597808186FFF9CF9196A5
:100600001C920895CF93DF93EC01EE85FF85E05CAB
:10061000FF4F20813181E054F0402F5F3F4F2F7317
:100620003070DF01AE5BBF4F8D919C911197281701
:100630003907D1F3E05CFF4F80819181E054F040B5
:10064000E80FF91F6083EE85FF85E05CFF4F318383
:100650002083EE89FF89208181E090E00F8C02C029
:10066000880F991F0A94E2F7282B208381E089A341
:10067000EC89FD8980818064808381E090E0DF9156
:10068000CF9108951092A3011092A20188EE93E0F9
:10069000A0E0B0E08093A4019093A501A093A601EF
:1006A000B093A7018BE091E09093A1018093A0010A
:1006B00088E191E09093AD018093AC018CE591E0ED
:1006C0009093AF018093AE0185EC90E09093B101DF
:1006D0008093B00184EC90E09093B3018093B201D9
:1006E00080EC90E09093B5018093B40181EC90E0B0
:1006F0009093B7018093B60182EC90E09093B9019A
:100700008093B80186EC90E09093BB018093BA018E
:1007100084E08093BC0183E08093BD0187E08093F7
:10072000BE0185E08093BF0181E08093C001089500
:100730000895CF93DF930E9431050E9498030E9491
:10074000BA00CCEBD1E00E948C002097E1F30E942C
:10075000BC01F9CFCF92DF92EF92FF920F931F93DC
:10076000CF93DF937C016B018A01C0E0D0E00FC022
:10077000D6016D916D01D701ED91FC910190F08151
:10078000E02DC7010995C80FD91F01501040011570
:10079000110571F7CE01DF91CF911F910F91FF905D
:1007A000EF90DF90CF900895EF92FF920F931F93F9
:1007B0008C01DC01ED91FC910190F081E02D6DE068
:1007C00009957C01D801ED91FC910190F081E02D1B
:1007D000C8016AE009959C012E0D3F1DC9011F91BA
:1007E0000F91FF90EF900895CF93DF93EC01611587
:1007F000710519F420E030E00FC0DB010D900020FE
:10080000E9F71197A61BB70BE881F9810280F38104
:10081000E02DAD0109959C01C901DF91CF910895AB
:100820004F925F927F928F929F92AF92BF92CF92A0
:10083000DF92EF92FF920F931F93DF93CF93CDB789
:10084000DEB7A1970FB6F894DEBF0FBECDBF2C0167
:10085000742ECB01223008F42AE019A231E2C32E13
:10086000D12CCC0EDD1E822E9924AA24BB24672D08
:10087000752FA50194010E949E0579018A01C80186
:10088000B701A50194010E946C05472D461B0894F1
:10089000C108D1084A3014F4405D01C0495CF6013A
:1008A0004083E114F1040105110521F07E2C5F2D38
:1008B000C801DDCFC201B6010E94F403A1960FB6B4
:1008C000F894DEBF0FBECDBFCF91DF911F910F9186
:1008D000FF90EF90DF90CF90BF90AF909F908F9060
:1008E0007F905F904F900895CF92DF92EF92FF92AA
:1008F0000F931F93CF93DF93EC016A017B012115C6
:10090000310541F4E881F9810190F081E02D642FF7
:1009100009951FC02A303105D1F477FF17C0E8814F
:10092000F9810190F081E02D6DE209958C01442759
:100930005527BA014C195D096E097F09CE012AE0DD
:100940000E9410049801280F391F04C02AE00E9459
:1009500010049C01C901DF91CF911F910F91FF906D
:10096000EF90DF90CF900895EF92FF920F931F9337
:100970007B019A010027F7FC0095102FB801A70111
:100980000E9474041F910F91FF90EF900895CF92F1
:10099000DF92EF92FF920F931F936C017B019A01FC
:1009A0000027F7FC0095102FB801A7010E947404DE
:1009B0008C01C6010E94D403080F191FC8011F91A2
:1009C0000F91FF90EF90DF90CF9008950E94F40375
:1009D00008951F920F920FB60F9211242F933F93F9
:1009E0008F939F93AF93BF938091C6019091C7015E
:1009F000A091C801B091C9013091CA010196A11D11
:100A0000B11D232F2D5F2D3720F02D570196A11DED
:100A1000B11D2093CA018093C6019093C701A09392
:100A2000C801B093C9018091C2019091C301A09106
:100A3000C401B091C5010196A11DB11D8093C201F1
:100A40009093C301A093C401B093C501BF91AF912E
:100A50009F918F913F912F910F900FBE0F901F90FC
:100A60001895789484B5826084BD84B5816084BD16
:100A700085B5826085BD85B5816085BDEEE6F0E017
:100A8000808181608083E1E8F0E010828081826073
:100A90008083808181608083E0E8F0E080818160F4
:100AA0008083E1EBF0E0808184608083E0EBF0E024
:100AB000808181608083EAE7F0E0808184608083C8
:100AC0008081826080838081816080838081806872
:100AD00080831092C1000895629FD001739FF0013E
:100AE000829FE00DF11D649FE00DF11D929FF00DBE
:100AF000839FF00D749FF00D659FF00D9927729FF5
:100B0000B00DE11DF91F639FB00DE11DF91FBD017F
:100B1000CF011124089597FB092E07260AD077FDEF
:100B200004D02ED006D000201AF4709561957F4F26
:100B30000895F6F7909581959F4F0895A1E21A2E9A
:100B4000AA1BBB1BFD010DC0AA1FBB1FEE1FFF1F71
:100B5000A217B307E407F50720F0A21BB30BE40BC1
:100B6000F50B661F771F881F991F1A9469F7609508
:100B70007095809590959B01AC01BD01CF010895C2
:100B8000AA1BBB1B51E107C0AA1FBB1FA617B707B3
:100B900010F0A61BB70B881F991F5A95A9F78095CF
:100BA0009095BC01CD010895EE0FFF1F0590F491C3
:080BB000E02D0994F894FFCF39
:100BB80020484947480001000000000203AA0395A5
:080BC80002C902A902F20200B9
:00000001FF
