:100000000C9462000C948A000C948A000C948A0070
:100010000C948A000C948A000C948A000C948A0038
:100020000C948A000C948A000C948A000C948A0028
:100030000C948A000C948A000C948A000C948A0018
:100040000C9477030C948A000C9453050C94A5052A
:100050000C948A000C948A000C948A000C948A00F8
:100060000C948A000C948A000000000024002700F1
:100070002A0000000000250028002B0000000000DE
:1000800023002600290004040404040404040202DA
:100090000202020203030303030301020408102007
:1000A0004080010204081020010204081020000012
:1000B0000007000201000003040600000000000029
:1000C0000000140711241FBECFEFD8E0DEBFCDBF64
:1000D00011E0A0E0B1E0E6E6F2E102C005900D9289
:1000E000A83BB107D9F712E0A8EBB1E001C01D921F
:1000F000A13AB107E1F710E0C4ECD0E004C02297C8
:10010000FE010E942D09C23CD107C9F70E946B076E
:100110000C9431090C9400000F931F9300E020E031
:1001200030E041E050E060E070E0F901E052FE4F65
:100130008081882361F0DB01CA01022E04C0880F90
:10014000991FAA1FBB1F0A94D2F7082B0CC0DB0112
:10015000CA01022E04C0880F991FAA1FBB1F0A9450
:10016000D2F7809508232F5F3F4F26303105E9F6FF
:10017000E6EEF1E010E020E030E041E050E060E049
:1001800070E08081882361F0DB01CA01022E04C087
:10019000880F991FAA1FBB1F0A94D2F7182B0CC0F7
:1001A000DB01CA01022E04C0880F991FAA1FBB1FC2
:1001B0000A94D2F7809518232F5F3F4F319626304F
:1001C0003105F9F686E060E00E94690487E065E0A9
:1001D00041E0202F0E94100587E065E041E0212FDB
:1001E0000E94100586E061E00E9469041F910F9152
:1001F00008950F931F93621B730B7093DF0160933D
:10020000DE018FE792E00E94A6076091DE01709107
:10021000DF018FE792E04AE050E00E949A088FE702
:1002200092E060E071E00E94AD088FE792E0B801D3
:100230004AE050E00E949A088FE792E060E271E0A5
:100240000E94AD08F801EE0FFF1FEE0FFF1FEE52E8
:10025000FE4F40815181628173818FE792E02AE0F5
:1002600030E00E9446088FE792E063E371E00E946D
:10027000AD084091DA015091DB016091DC01709191
:10028000DD018FE792E02AE030E00E9486081092BC
:10029000C6011092C7010115110551F4E091EC015E
:1002A000F091ED01E052FE4F81E0808316820CC098
:1002B0000130110549F4E091EC01F091ED01E052BB
:1002C000FE4F81E0868310828091EC019091ED01D8
:1002D00001969093ED018093EC018FE792E00E94EC
:1002E000A6071092C8011092C9010E948C001F91AC
:1002F0000F9108952F923F924F925F926F927F924B
:100300008F929F92AF92BF92CF92DF92EF92FF9225
:100310000F931F93CF93DF938FE00E9408049C01FB
:100320009093B9018093B801853191050CF45DC0BB
:100330008091BE019091BF01821793070CF055C0C8
:100340000E94BF032091DA013091DB014091DC0172
:100350005091DD01621B730B840B950B2091A5015D
:100360003091A601442737FD4095542F26173707B3
:100370004807590788F48091C601882369F081E015
:100380008093C7018FE792E06AE471E00E94B008B1
:100390001092C8011092C9018091B8019091B901E1
:1003A0009093BF018093BE010E94BF036093DA0166
:1003B0007093DB018093DC019093DD0181E08093F9
:1003C000C6018FE792E066E571E00E94AD084091BA
:1003D000DA015091DB016091DC017091DD018FE762
:1003E00092E02AE030E00E9486080E94BF03E0907D
:1003F000DA01F090DB010091DC011091DD016E1952
:100400007F09800B910B2091A5013091A601442713
:1004100037FD4095542F261737074807590748F4EA
:10042000E114F1040105110521F01092BF011092B1
:10043000BE0182E00E94BD049093BB018093BA018B
:1004400083E00E94BD041092BD011092BC01892B73
:1004500031F481E090E09093BD018093BC01EAEB20
:100460002E2EE1E03E2E72EDC72E71E0D72E68EC05
:10047000662E61E0762E5AEC452E51E0552E40EC6A
:10048000842E41E0942E32ECA32E31E0B32EC0E056
:10049000D0E0FE01EC53FE4F808190E0F10120811D
:1004A00031812817390739F00E94BF03F2016083B8
:1004B0007183828393830E94BF03F2012081318183
:1004C00042815381621B730B840B950B2091A30116
:1004D0003091A401442737FD4095542F2617370744
:1004E0004807590708F040C0F10120813181F4012B
:1004F000808190E02817390721F0208381E0F50101
:100500008083F4018081813079F5F5018081882331
:1005100059F10E94BF03F601608371838283938344
:100520008FE792E06BE671E00E94AD08F601408132
:100530005181628173818FE792E02AE030E00E946E
:1005400046088FE792E067E871E00E94AD088FE708
:1005500092E0BE014AE050E00E949A088FE792E0E4
:100560000E94A607F5011082F60140815181628147
:1005700073812091DA013091DB01241B350B1216B7
:100580001306C4F48091A1019091A20128173907A4
:100590008CF4411551056105710561F0F30180810D
:1005A000882341F481E080838FE792E068E971E07D
:1005B0000E94B0088091C601882341F1F601208194
:1005C0003181428153811216130614061506F4F484
:1005D000E090DA01F090DB010091DC011091DD0187
:1005E000DA01C9018E199F09A00BB10B1816190663
:1005F0001A061B065CF4F3018081882339F4CA01D2
:10060000B901A80197018E010E94F900219682E0AC
:1006100090E0280E391EE4E0F0E0CE0EDF1E0894D4
:10062000611C711C4E0E5F1E0894811C911C089465
:10063000A11CB11CC230D10509F02BCF8091BA01A9
:100640008093C4018091BC018093C501DF91CF915B
:100650001F910F91FF90EF90DF90CF90BF90AF90E0
:100660009F908F907F906F905F904F903F902F90D2
:1006700008958FE792E040E855E260E070E00E9464
:10068000E0058FE060E00E942A0482E060E00E94C2
:100690002A0483E062E00E942A0489E061E00E946B
:1006A0002A0486E061E00E942A0485E061E00E945D
:1006B0002A0487E061E00E942A0420E030E00AC0BA
:1006C000119201968B309105D9F72F5F3F4F2C3057
:1006D000310561F0F901EE0FFF1FE20FF31FEE0F7E
:1006E000FF1FE052FE4F80E090E0EACF08951F9296
:1006F0000F920FB60F9211242F933F938F939F93D6
:10070000AF93BF938091F2019091F301A091F40116
:10071000B091F5013091F6010196A11DB11D232F75
:100720002D5F2D3720F02D570196A11DB11D20936F
:10073000F6018093F2019093F301A093F401B0933A
:10074000F5018091EE019091EF01A091F001B0913F
:10075000F1010196A11DB11D8093EE019093EF016F
:10076000A093F001B093F101BF91AF919F918F9150
:100770003F912F910F900FBE0F901F9018958FB73C
:10078000F8942091F2013091F3014091F4015091DD
:10079000F5018FBFB901CA010895789484B58260CC
:1007A00084BD84B5816084BD85B5826085BD85B515
:1007B000816085BDEEE6F0E0808181608083E1E8C4
:1007C000F0E01082808182608083808181608083FC
:1007D000E0E8F0E0808181608083E1EBF0E08081FF
:1007E00084608083E0EBF0E0808181608083EAE7D1
:1007F000F0E080818460808380818260808380815A
:10080000816080838081806880831092C100089518
:10081000982F8E3008F09E5097708091A701829596
:10082000880F880F807C892B80937C0080917A00D0
:10083000806480937A0080917A0086FDFCCF2091BD
:10084000780040917900942F80E030E0282B392BFC
:10085000C9010895CF93DF93482F50E0CA0186560F
:100860009F4FFC0134914A575F4FFA0184918823CE
:1008700069F190E0880F991FFC01E859FF4FA5919D
:10088000B491FC01EE58FF4FC591D491662351F409
:100890002FB7F8948C91932F909589238C9388810E
:1008A00089230BC0623061F42FB7F8948C91932F99
:1008B000909589238C938881832B88832FBF06C0D2
:1008C0009FB7F8948C91832B8C939FBFDF91CF912E
:1008D0000895482F50E0CA0182559F4FFC01249192
:1008E000CA0186569F4FFC0194914A575F4FFA0107
:1008F0003491332309F440C0222351F1233071F0A5
:10090000243028F42130A1F0223011F514C0263013
:10091000B1F02730C1F02430D9F404C080918000B8
:100920008F7703C0809180008F7D8093800010C0FE
:1009300084B58F7702C084B58F7D84BD09C0809156
:10094000B0008F7703C08091B0008F7D8093B0009E
:10095000E32FF0E0EE0FFF1FEE58FF4FA591B4918B
:100960002FB7F894662321F48C919095892302C0C7
:100970008C91892B8C932FBF0895682F70E0CB0149
:1009800082559F4FFC012491CB0186569F4FFC015D
:1009900044916A577F4FFB019491992319F420E009
:1009A00030E03CC0222351F1233071F0243028F490
:1009B0002130A1F0223011F514C02630B1F02730DB
:1009C000C1F02430D9F404C0809180008F7703C037
:1009D000809180008F7D8093800010C084B58F77D8
:1009E00002C084B58F7D84BD09C08091B0008F772F
:1009F00003C08091B0008F7D8093B000892F90E07C
:100A0000880F991F84589F4FFC01A591B4918C9138
:100A100020E030E0842311F021E030E0C9010895A6
:100A2000BF92CF92DF92EF92FF920F931F93CF93DB
:100A3000DF93E82EF62EB42EC7E0D0E0022F10E0B0
:100A400087E0C82ED12CBB2059F4B6016C1B7D0B5E
:100A5000C80102C0959587956A95E2F7BC0107C069
:100A6000B8010C2E02C0759567950A94E2F7617083
:100A70008E2D0E9469048F2D61E00E9469048F2DE4
:100A800060E00E94690421979FEFCF3FD907D9F614
:100A9000DF91CF911F910F91FF90EF90DF90CF905A
:100AA000BF90089508951F920F920FB60F921124D0
:100AB0002F933F934F938F939F93EF93FF93809147
:100AC000C00082FD1DC04091C600209137023091C8
:100AD00038022F5F3F4F2F73307080913902909111
:100AE0003A022817390771F0E0913702F091380285
:100AF000E950FE4F4083309338022093370202C002
:100B00008091C600FF91EF919F918F914F913F91FE
:100B10002F910F900FBE0F901F901895E0918B02B0
:100B2000F0918C02E05CFF4F8191919120813181A5
:100B3000805C9F4F821B930B60E470E00E94E20890
:100B4000892B11F00E94520508951F920F920FB643
:100B50000F9211242F933F938F939F93EF93FF93C3
:100B600020917B0230917C0280917D0290917E02E7
:100B70002817390731F48091C1008F7D8093C1001F
:100B800014C0E0917D02F0917E02E55CFD4F208172
:100B900080917D0290917E0201968F739070909368
:100BA0007E0280937D022093C600FF91EF919F917A
:100BB0008F913F912F910F900FBE0F901F9018951E
:100BC000AF92BF92DF92EF92FF920F931F93CF935A
:100BD000DF93EC017A018B01DD24403081EE580770
:100BE00080E0680780E0780711F0DD24D39491E07D
:100BF000A92EB12CEC89FD89DD2069F0C50108A082
:100C000002C0880F991F0A94E2F7808360E079E0C0
:100C10008DE390E005C0108260E874E88EE190E01A
:100C2000A80197010E94F5082150304040405040F3
:100C3000569547953795279580E12030380720F065
:100C4000DD2011F0DD24D6CFE889F9893083EA89E7
:100C5000FB89208319A2EE89FF89408121E030E0E1
:100C6000C9010C8C02C0880F991F0A94E2F7482B27
:100C70004083EE89FF894081C9010D8C02C0880F35
:100C8000991F0A94E2F7482B4083EE89FF8940813F
:100C9000C9010E8C02C0880F991F0A94E2F7482BF5
:100CA0004083EE89FF8980810F8C02C0220F331FA1
:100CB0000A94E2F7209528232083DF91CF911F919A
:100CC0000F91FF90EF90DF90BF90AF900895DC01FF
:100CD0001C96ED91FC911D97E05CFF4F81919191E5
:100CE00020813181805C9F4F821B930B60E470E018
:100CF0000E94E2080895DC011C96ED91FC911D977D
:100D0000E05CFF4F20813181E054F040DF01AE5BB9
:100D1000BF4F8D919C9111972817390719F42FEF28
:100D20003FEF07C08D919C91E80FF91F8081282F1C
:100D300030E0C9010895DC011C96ED91FC911D97EE
:100D4000E05CFF4F20813181E054F040DF01AE5B79
:100D5000BF4F8D919C9111972817390719F42FEFE8
:100D60003FEF10C08D919C911197E80FF91F2081E2
:100D70008D919C91119701968F73907011969C9311
:100D80008E9330E0C9010895DC0191968C91919782
:100D9000882339F05496ED91FC915597808186FF18
:100DA000F9CF91961C920895CF93DF93EC01EE85D5
:100DB000FF85E05CFF4F20813181E054F0402F5FE0
:100DC0003F4F2F733070DF01AE5BBF4F8D919C9111
:100DD000119728173907D1F3E05CFF4F808191818B
:100DE000E054F040E80FF91F6083EE85FF85E05C7A
:100DF000FF4F31832083EE89FF89208181E090E0DD
:100E00000F8C02C0880F991F0A94E2F7282B2083C9
:100E100081E089A3EC89FD8980818064808381E001
:100E200090E0DF91CF91089510928202109281029A
:100E300088EE93E0A0E0B0E0809383029093840278
:100E4000A0938502B09386028CEA91E09093800291
:100E500080937F0287EF91E090938C0280938B02C6
:100E60008BE392E090938E0280938D0285EC90E06C
:100E70009093900280938F0284EC90E09093920282
:100E80008093910280EC90E090939402809393027F
:100E900081EC90E0909396028093950282EC90E032
:100EA000909398028093970286EC90E090939A0238
:100EB0008093990284E080939B0283E080939C025C
:100EC00087E080939D0285E080939E0281E080937D
:100ED0009F0208950895CF93DF930E94CD030E944F
:100EE0006A070E943903CEE8D5E00E947A01209774
:100EF000E1F30E948E05F9CFCF92DF92EF92FF923D
:100F00000F931F93CF93DF937C016B018A01C0E0A5
:100F1000D0E00FC0D6016D916D01D701ED91FC912C
:100F20000190F081E02DC7010995C80FD91F01502C
:100F300010400115110571F7CE01DF91CF911F917E
:100F40000F91FF90EF90DF90CF900895EF92FF9276
:100F50000F931F938C01DC01ED91FC910190F081C6
:100F6000E02D6DE009957C01D801ED91FC91019097
:100F7000F081E02DC8016AE009959C012E0D3F1D0E
:100F8000C9011F910F91FF90EF900895CF93DF93C8
:100F9000EC016115710519F420E030E00FC0DB01B0
:100FA0000D900020E9F71197A61BB70BE881F98196
:100FB0000280F381E02DAD0109959C01C901DF910B
:100FC000CF9108954F925F927F928F929F92AF92AE
:100FD000BF92CF92DF92EF92FF920F931F93DF9316
:100FE000CF93CDB7DEB7A1970FB6F894DEBF0FBE93
:100FF000CDBF2C01742ECB01223008F42AE019A2B7
:1010000031E2C32ED12CCC0EDD1E822E9924AA24CF
:10101000BB24672D752FA50194010E94F508790165
:101020008A01C801B701A50194010E94C308472D98
:10103000461B0894C108D1084A3014F4405D01C031
:10104000495CF6014083E114F1040105110521F02A
:101050007E2C5F2DC801DDCFC201B6010E94C607FC
:10106000A1960FB6F894DEBF0FBECDBFCF91DF9132
:101070001F910F91FF90EF90DF90CF90BF90AF90B6
:101080009F908F907F905F904F900895CF92DF92C6
:10109000EF92FF920F931F93CF93DF93EC016A01BE
:1010A0007B012115310541F4E881F9810190F0813E
:1010B000E02D642F09951FC02A303105D1F477FF48
:1010C00017C0E881F9810190F081E02D6DE209956A
:1010D0008C0144275527BA014C195D096E097F0917
:1010E000CE012AE00E94E2079801280F391F04C0B0
:1010F0002AE00E94E2079C01C901DF91CF911F9174
:101100000F91FF90EF90DF90CF900895EF92FF92B4
:101110000F931F937C010E9446088C01C7010E9417
:10112000A6079C01200F311FC9011F910F91FF904D
:10113000EF900895EF92FF920F931F937B019A0116
:101140000027F7FC0095102FB801A7010E94460860
:101150001F910F91FF90EF9008950E94C607089588
:10116000EF92FF920F931F937C010E94C6078C01A0
:10117000C7010E94A607080F191FC8011F910F91F0
:10118000FF90EF900895629FD001739FF001829FBE
:10119000E00DF11D649FE00DF11D929FF00D839F06
:1011A000F00D749FF00D659FF00D9927729FB00DA3
:1011B000E11DF91F639FB00DE11DF91FBD01CF01B6
:1011C0001124089597FB092E07260AD077FD04D035
:1011D0002ED006D000201AF4709561957F4F0895A7
:1011E000F6F7909581959F4F0895A1E21A2EAA1BBC
:1011F000BB1BFD010DC0AA1FBB1FEE1FFF1FA217C7
:10120000B307E407F50720F0A21BB30BE40BF50BC3
:10121000661F771F881F991F1A9469F7609570954C
:10122000809590959B01AC01BD01CF010895AA1B4B
:10123000BB1B51E107C0AA1FBB1FA617B70710F0C1
:10124000A61BB70B881F991F5A95A9F780959095F3
:10125000BC01CD010895EE0FFF1F0590F491E02D24
:061260000994F894FFCF91
:10126600203D205265616374696F6E2044656C6130
:10127600792066726F6D20506C617965723A200034
:1012860020E28093206C61737420427574746F6ED3
:101296003A200020E2809320616E64206C617374B2
:1012A600205369676E616C3A2000324E44205369C0
:1012B600676E616C21005F5F5F5F5F5F5E5F5F20EF
:1012C6004E4557205045414B3A20004C61737420DF
:1012D60054696D6520427574746F6E205072657323
:1012E600736564203A2000206F6620506C61796532
:1012F60072204E722E3A2000424947204641494C00
:1013060000BC023200F4010100000000D4067C0794
:0813160067069B067B06C40676
:00000001FF
