:100000000C9462000C948A000C948A000C948A0070
:100010000C948A000C948A000C948A000C948A0038
:100020000C948A000C948A000C948A000C948A0028
:100030000C948A000C948A000C948A000C948A0018
:100040000C942D040C948A000C9462060C94B40653
:100050000C948A000C948A000C948A000C948A00F8
:100060000C948A000C948A000000000024002700F1
:100070002A0000000000250028002B0000000000DE
:1000800023002600290004040404040404040202DA
:100090000202020203030303030301020408102007
:1000A0004080010204081020010204081020000012
:1000B0000007000201000003040600000000000029
:1000C0000000230811241FBECFEFD8E0DEBFCDBF54
:1000D00011E0A0E0B1E0E4E0F5E102C005900D928E
:1000E000A83CB107D9F712E0A8ECB1E001C01D921D
:1000F000A73BB107E1F710E0C4ECD0E004C02297C1
:10010000FE010E947C0AC23CD107C9F70E947A080E
:100110000C94800A0C94000086E060E00E94780550
:1001200087E065E041E02FEF0E941F0687E065E071
:1001300041E02FEF0E941F0686E061E00E947805F3
:100140000895CF93DF931092D90160E177E280E0C8
:1001500090E00E94830485E992E060E071E00E94F3
:10016000FF091092DA011092DB0189E060E00E9441
:1001700078058AE060E00E9478051092F301109201
:10018000F201C0E0D0E00E948C006EE571E080E0FA
:1001900090E00E94830486E060E00E94780587E09A
:1001A00065E041E020E00E941F0687E065E041E055
:1001B00020E00E941F0686E061E00E9478056EE55F
:1001C00071E080E090E00E9483042196C330D10565
:1001D000D1F620E030E00AC0119201968D309105F1
:1001E000D9F72F5F3F4F2E30310569F0F90193E0C9
:1001F000EE0FFF1F9A95E1F7E21BF30BEC50FE4F59
:1002000080E090E0E9CFDF91CF910895EF92FF92E7
:100210000F931F93CF93DF93EE24FF241DC085E936
:1002200092E069914AE050E00E94640985E992E019
:100230006BE071E00E94FC090F5F1F4F0730110552
:1002400071F785E992E00E94B5080894E11CF11C61
:1002500082E0E816F10469F0E70123E0CC0FDD1F2E
:100260002A95E1F7CE19DF09CC50DE4F00E010E00F
:10027000D6CFDF91CF911F910F91FF90EF9008950E
:100280000F931F93621B730B7093F1016093F00146
:1002900085E992E00E94B5086091F0017091F1014A
:1002A00085E992E04AE050E00E94CA0985E992E0BF
:1002B0006EE071E00E94FC0985E992E0B8014AE035
:1002C00050E00E94CA0985E992E06EE271E00E9466
:1002D000FC09F801EE0FFF1FEE0FFF1FEC51FE4F60
:1002E000408151816281738185E992E02AE030E0AA
:1002F0000E94760985E992E061E471E00E94FC09C0
:100300004091EC015091ED016091EE017091EF018F
:1003100085E992E02AE030E00E94B6091092D60109
:100320001092D7010115110551F4E0910202F091EC
:100330000302EC50FE4F81E0808317820CC0013035
:10034000110549F4E0910202F0910302EC50FE4FD6
:1003500081E08783108280910202909103020196CE
:10036000909303028093020285E992E00E94B5080F
:100370001092DA011092DB010E948C000E940601AB
:100380001F910F9108952F923F924F925F926F921B
:100390007F928F929F92AF92BF92CF92DF92EF9215
:1003A000FF920F931F93CF93DF938FE00E94170567
:1003B000BC019093C9018093C8011816190634F442
:1003C00085E992E04AE050E00E94DD092091C801F1
:1003D0003091C9012B3031050CF461C08091CE0100
:1003E0009091CF01821793070CF059C00E947504B9
:1003F0002091EC013091ED014091EE015091EF011F
:10040000621B730B840B950B2091B5013091B601E3
:10041000442737FD4095542F2617370748075907BB
:1004200088F48091D601882369F081E08093D70118
:1004300085E992E068E571E00E94FF091092DA0117
:100440001092DB018091C8019091C9019093CF0176
:100450008093CE010E9475046093EC017093ED01CE
:100460008093EE019093EF0111E01093D601109369
:10047000D80185E992E064E671E00E94FC094091B0
:10048000EC015091ED016091EE017091EF0185E971
:1004900092E02AE030E00E94B6091093D9010E9450
:1004A0007504E090EC01F090ED010091EE011091E7
:1004B000EF016E197F09800B910B2091B5013091EE
:1004C000B601442737FD4095542F261737074807B4
:1004D000590748F4E114F1040105110521F01092C7
:1004E000CF011092CE010E9475042091EC01309151
:1004F000ED014091EE015091EF01621B730B840BF3
:10050000950B2091B1013091B201442737FD409500
:10051000542F261737074807590730F48091D9011F
:10052000882311F00E94A1000E9475042091EC0123
:100530003091ED014091EE015091EF01621B730B80
:10054000840B950B2091B5013091B601442737FDFE
:100550004095542F261737074807590778F480919C
:10056000D801882359F08091F2019091F30101960E
:100570009093F3018093F2011092D80182E00E94DF
:10058000CC059093CB018093CA0183E00E94CC05F7
:100590009093CD018093CC01FAEC2F2EF1E03F2E09
:1005A000E4EECE2EE1E0DE2E7AED672E71E0772EBE
:1005B0006CED462E61E0562E50ED852E51E0952EC5
:1005C00042EDA42E41E0B42EC0E0D0E0FE01EC529A
:1005D000FE4F808190E0F101208131812817390799
:1005E00039F00E947504F2016083718382839383E2
:1005F0000E947504F2012081318142815381621B86
:10060000730B840B950B2091B3013091B4014427F7
:1006100037FD4095542F261737074807590708F02C
:1006200040C0F10120813181F401808190E02817E0
:10063000390721F0208381E0F5018083F401808176
:10064000813079F5F5018081882359F10E94750484
:10065000F601608371838283938385E992E069E781
:1006600071E00E94FC09F601408151816281738131
:1006700085E992E02AE030E00E94760985E992E07F
:1006800065E971E00E94FC0985E992E0BE014AE05B
:1006900050E00E94CA0985E992E00E94B508F50180
:1006A0001082F60140815181628173812091EC01B9
:1006B0003091ED01241B350B12161306C4F4809102
:1006C000AF019091B001281739078CF441155105FD
:1006D0006105710561F0F3018081882341F481E0B7
:1006E000808385E992E066EA71E00E94FF098091CB
:1006F000D601882341F1F601208131814281538165
:100700001216130614061506F4F4E090EC01F090AE
:10071000ED010091EE011091EF01DA01C9018E198E
:100720009F09A00BB10B181619061A061B065CF4DC
:10073000F3018081882339F4CA01B901A801970126
:100740008E010E944001219682E090E0280E391E21
:10075000E4E0F0E0CE0EDF1E0894611C711C4E0E2A
:100760005F1E0894811C911C0894A11CB11CC2300E
:10077000D10509F02BCF8091CA018093D4018091DB
:10078000CC018093D50189E061E00E9478058AE080
:1007900061E00E9478058091F2019091F301079742
:1007A00011F40E94A1000E948C00DF91CF911F9153
:1007B0000F91FF90EF90DF90CF90BF90AF909F9000
:1007C0008F907F906F905F904F903F902F90089503
:1007D00085E992E040E855E260E070E00E94EF06B3
:1007E0008FE060E00E94390582E060E00E943905F8
:1007F00083E060E00E94390589E061E00E943905EC
:100800008AE061E00E94390586E061E00E943905D6
:1008100085E061E00E94390587E061E00E943905CA
:1008200020E030E00AC0119201968D309105D9F791
:100830002F5F3F4F2E30310569F0F901A3E0EE0F35
:10084000FF1FAA95E1F7E21BF30BEC50FE4F80E08F
:1008500090E0E9CF0E948C0008951F920F920FB68E
:100860000F9211242F933F938F939F93AF93BF9336
:100870008091080290910902A0910A02B0910B02A6
:1008800030910C020196A11DB11D232F2D5F2D3734
:1008900020F02D570196A11DB11D20930C028093CD
:1008A000080290930902A0930A02B0930B02809170
:1008B000040290910502A0910602B09107020196F0
:1008C000A11DB11D8093040290930502A09306021E
:1008D000B0930702BF91AF919F918F913F912F915C
:1008E0000F900FBE0F901F9018958FB7F89420911E
:1008F00008023091090240910A0250910B028FBF09
:10090000B901CA0108959B01AC017FB7F8948091A9
:10091000040290910502A0910602B091070266B50B
:10092000A89B05C06F3F19F00196A11DB11D7FBFA7
:10093000BA2FA92F982F8827860F911DA11DB11DB1
:1009400062E0880F991FAA1FBB1F6A95D1F7BC01EF
:100950002DC0FFB7F8948091040290910502A091F8
:100960000602B0910702E6B5A89B05C0EF3F19F05B
:100970000196A11DB11DFFBFBA2FA92F982F88275F
:100980008E0F911DA11DB11DE2E0880F991FAA1FB6
:10099000BB1FEA95D1F7861B970B885E9340C8F280
:1009A000215030404040504068517C4F2115310566
:1009B0004105510571F60895789484B5826084BD2F
:1009C00084B5816084BD85B5826085BD85B5816053
:1009D00085BDEEE6F0E0808181608083E1E8F0E0B3
:1009E0001082808182608083808181608083E0E8E2
:1009F000F0E0808181608083E1EBF0E080818460C1
:100A00008083E0EBF0E0808181608083EAE7F0E0C2
:100A10008081846080838081826080838081816026
:100A200080838081806880831092C1000895982F10
:100A30008E3008F09E5097708091B7018295880F94
:100A4000880F807C892B80937C0080917A00806461
:100A500080937A0080917A0086FDFCCF2091780007
:100A600040917900942F80E030E0282B392BC90188
:100A70000895CF93DF93482F50E0CA0186569F4FC9
:100A8000FC0134914A575F4FFA018491882369F140
:100A900090E0880F991FFC01E859FF4FA591B49190
:100AA000FC01EE58FF4FC591D491662351F42FB746
:100AB000F8948C91932F909589238C938881892326
:100AC0000BC0623061F42FB7F8948C91932F9095FE
:100AD00089238C938881832B88832FBF06C09FB77F
:100AE000F8948C91832B8C939FBFDF91CF910895C5
:100AF000482F50E0CA0182559F4FFC012491CA0142
:100B000086569F4FFC0194914A575F4FFA013491EA
:100B1000332309F440C0222351F1233071F02430F3
:100B200028F42130A1F0223011F514C02630B1F0A4
:100B30002730C1F02430D9F404C0809180008F7731
:100B400003C0809180008F7D8093800010C084B5A9
:100B50008F7702C084B58F7D84BD09C08091B000BD
:100B60008F7703C08091B0008F7D8093B000E32F1A
:100B7000F0E0EE0FFF1FEE58FF4FA591B4912FB795
:100B8000F894662321F48C919095892302C08C916E
:100B9000892B8C932FBF0895682F70E0CB0182556D
:100BA0009F4FFC012491CB0186569F4FFC0144913D
:100BB0006A577F4FFB019491992319F420E030E0AC
:100BC0003CC0222351F1233071F0243028F421302D
:100BD000A1F0223011F514C02630B1F02730C1F059
:100BE0002430D9F404C0809180008F7703C08091B5
:100BF00080008F7D8093800010C084B58F7702C005
:100C000084B58F7D84BD09C08091B0008F7703C00B
:100C10008091B0008F7D8093B000892F90E0880F85
:100C2000991F84589F4FFC01A591B4918C9120E0AD
:100C300030E0842311F021E030E0C9010895BF9233
:100C4000CF92DF92EF92FF920F931F93CF93DF9398
:100C5000E82EF62EB42EC7E0D0E0022F10E087E099
:100C6000C82ED12CBB2059F4B6016C1B7D0BC801DA
:100C700002C0959587956A95E2F7BC0107C0B80157
:100C80000C2E02C0759567950A94E2F761708E2D5F
:100C90000E9478058F2D61E00E9478058F2D60E01D
:100CA0000E94780521979FEFCF3FD907D9F6DF91B2
:100CB000CF911F910F91FF90EF90DF90CF90BF9059
:100CC000089508951F920F920FB60F9211242F933B
:100CD0003F934F938F939F93EF93FF938091C00027
:100CE00082FD1DC04091C60020914D0230914E0200
:100CF0002F5F3F4F2F73307080914F0290915002C1
:100D00002817390771F0E0914D02F0914E02E35F30
:100D1000FD4F408330934E0220934D0202C08091DC
:100D2000C600FF91EF919F918F914F913F912F912D
:100D30000F900FBE0F901F901895E091A102F091B7
:100D4000A202E05CFF4F8191919120813181805C12
:100D50009F4F821B930B60E470E00E94310A892B45
:100D600011F00E94610608951F920F920FB60F9224
:100D700011242F933F938F939F93EF93FF93209191
:100D800091023091920280919302909194022817DF
:100D9000390731F48091C1008F7D8093C10014C068
:100DA000E0919302F0919402EF5AFD4F20818091DF
:100DB00093029091940201968F7390709093940295
:100DC000809393022093C600FF91EF919F918F91A2
:100DD0003F912F910F900FBE0F901F901895AF92DB
:100DE000BF92DF92EF92FF920F931F93CF93DF9307
:100DF000EC017A018B01DD24403081EE580780E060
:100E0000680780E0780711F0DD24D39491E0A92EE3
:100E1000B12CEC89FD89DD2069F0C50108A002C074
:100E2000880F991F0A94E2F7808360E079E08DE3F0
:100E300090E005C0108260E874E88EE190E0A801BF
:100E400097010E94440A215030404040504056953E
:100E500047953795279580E12030380720F0DD2031
:100E600011F0DD24D6CFE889F9893083EA89FB893E
:100E7000208319A2EE89FF89408121E030E0C90179
:100E80000C8C02C0880F991F0A94E2F7482B40830C
:100E9000EE89FF894081C9010D8C02C0880F991F1E
:100EA0000A94E2F7482B4083EE89FF894081C9010B
:100EB0000E8C02C0880F991F0A94E2F7482B4083DA
:100EC000EE89FF8980810F8C02C0220F331F0A94A4
:100ED000E2F7209528232083DF91CF911F910F9176
:100EE000FF90EF90DF90BF90AF900895DC011C96CB
:100EF000ED91FC911D97E05CFF4F819191912081D4
:100F00003181805C9F4F821B930B60E470E00E94F4
:100F1000310A0895DC011C96ED91FC911D97E05C6F
:100F2000FF4F20813181E054F040DF01AE5BBF4FC5
:100F30008D919C9111972817390719F42FEF3FEFE6
:100F400007C08D919C91E80FF91F8081282F30E018
:100F5000C9010895DC011C96ED91FC911D97E05CA0
:100F6000FF4F20813181E054F040DF01AE5BBF4F85
:100F70008D919C9111972817390719F42FEF3FEFA6
:100F800010C08D919C911197E80FF91F20818D91D0
:100F90009C91119701968F73907011969C938E93EC
:100FA00030E0C9010895DC0191968C9191978823D6
:100FB00039F05496ED91FC915597808186FFF9CFD9
:100FC00091961C920895CF93DF93EC01EE85FF85F7
:100FD000E05CFF4F20813181E054F0402F5F3F4FB4
:100FE0002F733070DF01AE5BBF4F8D919C911197D5
:100FF00028173907D1F3E05CFF4F80819181E054DD
:10100000F040E80FF91F6083EE85FF85E05CFF4F3D
:1010100031832083EE89FF89208181E090E00F8C6D
:1010200002C0880F991F0A94E2F7282B208381E0E1
:1010300089A3EC89FD8980818064808381E090E0D0
:10104000DF91CF910895109298021092970288EE46
:1010500093E0A0E0B0E08093990290939A02A0936D
:101060009B02B0939C028CEB91E09093960280934C
:1010700095028DE092E09093A2028093A10281E517
:1010800092E09093A4028093A30285EC90E0909369
:10109000A6028093A50284EC90E09093A80280932E
:1010A000A70280EC90E09093AA028093A90281ECC1
:1010B00090E09093AC028093AB0282EC90E090932E
:1010C000AE028093AD0286EC90E09093B0028093E4
:1010D000AF0284E08093B10283E08093B20287E0A4
:1010E0008093B30285E08093B40281E08093B502DF
:1010F00008950895CF93DF930E94DC040E9479083D
:101100000E94E803CDE9D6E00E94C3012097E1F3F5
:101110000E949D06F9CFCF92DF92EF92FF920F933C
:101120001F93CF93DF937C016B018A01C0E0D0E075
:101130000FC0D6016D916D01D701ED91FC91019029
:10114000F081E02DC7010995C80FD91F015010404B
:101150000115110571F7CE01DF91CF911F910F910C
:10116000FF90EF90DF90CF900895EF92FF920F9352
:101170001F938C01DC01ED91FC910190F081E02D39
:101180006DE009957C01D801ED91FC910190F08111
:10119000E02DC8016AE009959C012E0D3F1DC90193
:1011A0001F910F91FF90EF900895CF93DF93EC0183
:1011B0006115710519F420E030E00FC0DB010D90DE
:1011C0000020E9F71197A61BB70BE881F98102808F
:1011D000F381E02DAD0109959C01C901DF91CF910B
:1011E00008954F925F927F928F929F92AF92BF929B
:1011F000CF92DF92EF92FF920F931F93DF93CF93E3
:10120000CDB7DEB7A1970FB6F894DEBF0FBECDBF46
:101210002C01742ECB01223008F42AE019A231E20D
:10122000C32ED12CCC0EDD1E822E9924AA24BB24E1
:10123000672D752FA50194010E94440A79018A0146
:10124000C801B701A50194010E94120A472D461B4F
:101250000894C108D1084A3014F4405D01C0495CCB
:10126000F6014083E114F1040105110521F07E2C03
:101270005F2DC801DDCFC201B6010E94D508A1963D
:101280000FB6F894DEBF0FBECDBFCF91DF911F9197
:101290000F91FF90EF90DF90CF90BF90AF909F9015
:1012A0008F907F905F904F900895DC01211531055C
:1012B00041F4ED91FC910190F081E02D642F0995AE
:1012C00008950E94F1080895EF92FF920F931F93E3
:1012D0009A01E62EFF2400E010E0B801A7010E9469
:1012E00055091F910F91FF90EF900895CF92DF92D3
:1012F000EF92FF920F931F93CF93DF93EC016A015C
:101300007B012115310541F4E881F9810190F081DB
:10131000E02D642F09951FC02A303105D1F477FFE5
:1013200017C0E881F9810190F081E02D6DE2099507
:101330008C0144275527BA014C195D096E097F09B4
:10134000CE012AE00E94F1089801280F391F04C03D
:101350002AE00E94F1089C01C901DF91CF911F9101
:101360000F91FF90EF90DF90CF900895EF92FF9252
:101370000F931F937C010E9476098C01C7010E9484
:10138000B5089C01200F311FC9011F910F91FF90DB
:10139000EF900895EF92FF920F931F937B019A01B4
:1013A0000027F7FC0095102FB801A7010E947609CD
:1013B0001F910F91FF90EF900895CF92DF92EF92DF
:1013C000FF920F931F936C017B019A010027F7FC9A
:1013D0000095102FB801A7010E9476098C01C60163
:1013E0000E94B508080F191FC8011F910F91FF90A7
:1013F000EF90DF90CF9008950E94D5080895EF9266
:10140000FF920F931F937C010E94D5088C01C701A6
:101410000E94B508080F191FC8011F910F91FF9076
:10142000EF900895629FD001739FF001829FE00DBD
:10143000F11D649FE00DF11D929FF00D839FF00D53
:10144000749FF00D659FF00D9927729FB00DE11DFF
:10145000F91F639FB00DE11DF91FBD01CF011124DC
:10146000089597FB092E07260AD077FD04D02ED0C9
:1014700006D000201AF4709561957F4F0895F6F715
:10148000909581959F4F0895A1E21A2EAA1BBB1B30
:10149000FD010DC0AA1FBB1FEE1FFF1FA217B30740
:1014A000E407F50720F0A21BB30BE40BF50B661F56
:1014B000771F881F991F1A9469F76095709580951A
:1014C00090959B01AC01BD01CF010895AA1BBB1BE8
:1014D00051E107C0AA1FBB1FA617B70710F0A61B34
:1014E000B70B881F991F5A95A9F780959095BC0155
:1014F000CD010895EE0FFF1F0590F491E02D0994A2
:04150000F894FFCF8D
:1015040052455345542047414D4500202C00203D71
:10151400205265616374696F6E2044656C61792043
:1015240066726F6D20506C617965723A200020E21A
:101534008093206C61737420427574746F6E3A20CA
:101544000020E2809320616E64206C6173742053E8
:1015540069676E616C3A2000324E44205369676EAD
:10156400616C21005F5F5F5F5F5F5E5F5F204E4580
:1015740057205045414B3A20004C61737420546904
:101584006D6520427574746F6E2050726573736557
:1015940064203A2000206F6620506C6179657220C7
:1015A4004E722E3A2000424947204641494C00C21F
:1015B40001B80B3200F4010100000000E3078B08BE
:0815C4007607AA078A07D30786
:00000001FF
