:100000000C9462000C948A000C948A000C948A0070
:100010000C948A000C948A000C948A000C948A0038
:100020000C948A000C948A000C948A000C948A0028
:100030000C948A000C948A000C948A000C948A0018
:100040000C94BC020C948A000C9456040C94A804E2
:100050000C948A000C948A000C948A000C948A00F8
:100060000C948A000C948A000000000024002700F1
:100070002A0000000000250028002B0000000000DE
:1000800023002600290004040404040404040202DA
:100090000202020203030303030301020408102007
:1000A0004080010204081020010204081020000012
:1000B0000007000201000003040600000000000029
:1000C0000000170611241FBECFEFD8E0DEBFCDBF62
:1000D00011E0A0E0B1E0EAEAF0E102C005900D9283
:1000E000AC37B107D9F712E0ACE7B1E001C01D921F
:1000F000A636B107E1F710E0C4ECD0E004C02297C7
:10010000FE010E944F08C23CD107C9F70E946E064B
:100110000C9453080C940000AF92BF92CF92DF92E0
:10012000EF92FF920F931F936B017C01C21AD30AC7
:10013000D092A201C092A10144E4A42E42E0B42EC8
:10014000C501B6014AE050E00E949D07C50160E08C
:1001500071E00E94CF0710928A01F801EE0FFF1F95
:10016000DF01A155BE4F8D919C911197E00FF11FBA
:10017000EE0FFF1FE80FF91FED55FE4F21E0208322
:1001800001968D939C931F910F91FF90EF90DF90BC
:10019000CF90BF90AF9008952F923F924F925F9271
:1001A0006F927F928F929F92AF92BF92CF92DF9287
:1001B000EF92FF920F931F93DF93CF9300D000D065
:1001C00000D0CDB7DEB78FE00E944D03BC01909305
:1001D0007D0180937C018530910534F084E492E0C8
:1001E0004AE050E00E94B00720917C0130917D01EF
:1001F0002A31310564F18091820190918301821747
:1002000093072CF530938301209382010E9404030D
:1002100060939D0170939E0180939F019093A00134
:1002200081E080938A0184E492E062E171E00E94BF
:10023000CF0740919D0150919E0160919F01709167
:10024000A00184E492E02AE030E00E9489070E9445
:100250000403E0909D01F0909E0100919F01109198
:10026000A0016E197F09800B910B209169013091DB
:100270006A01442737FD4095542F26173707480752
:100280005907B8F4E114F1040105110591F0109239
:100290009D0110929E0110929F011092A001109258
:1002A00083011092820184E492E066E271E00E9490
:1002B000D20782E00E94020410927F0110927E0118
:1002C000892B31F481E090E090937F0180937E014F
:1002D00083E00E9402041092810110928001892B18
:1002E00031F481E090E090938101809380018EE76A
:1002F00091E09C838B83EBE8F1E0FA83E983E5E905
:100300004E2EE1E05E2E7DE8272E71E0372E64E868
:10031000662E61E0762E56E8852E51E0952E1E82DF
:100320001D82ED81FE81E857FE4F808190E0EB81D8
:10033000FC81208131812817390739F00E9404039C
:10034000F10160837183828393830E940403F1012E
:100350002081318142815381621B730B840B950B89
:100360002091670130916801442737FD4095542F53
:10037000261737074807590708F042C0EB81FC8170
:1003800020813181F301808190E02817390721F025
:10039000208381E0F4018083F3018081813081F545
:1003A000F4018081882361F10E940403F2016083DB
:1003B00071838283938384E492E068E371E00E9416
:1003C000CF07F201408151816281738184E492E020
:1003D0002AE030E00E94490784E492E064E571E09D
:1003E0000E94CF0784E492E06D817E814AE050E074
:1003F0000E949D0784E492E00E94A906F401108205
:10040000A0909D01B0909E01C0909F01D090A0014E
:10041000F201E080F18002811381A60195012E197D
:100420003F09400B510B8091650190916601AA270D
:1004300097FDA095BA2F281739074A075B0724F4C0
:1004400081E0E981FA81808380918A01882391F09B
:100450001E141F04100611066CF4E981FA818081D4
:10046000882341F4C801B701A60195010D811E81C1
:100470000E948C008D819E8101969E838D83EB81ED
:10048000FC813296FC83EB8389819A8101969A8361
:100490008983E4E0F0E04E0E5F1E2E0E3F1E0894AE
:1004A000611C711C0894811C911C8D819E81029796
:1004B00009F037CF80917E0180938801809180017F
:1004C0008093890180918401882321F480918501A2
:1004D000882319F089E061E002C089E060E00E94B1
:1004E000AE0326960FB6F894DEBF0FBECDBFCF91F8
:1004F000DF911F910F91FF90EF90DF90CF90BF9011
:10050000AF909F908F907F906F905F904F903F90B3
:100510002F90089584E492E040E855E260E070E0B6
:100520000E94E3048FE060E00E946F0382E062E0DB
:100530000E946F0383E062E00E946F0389E061E044
:100540000E946F0320E030E00AC0119201968B30C8
:100550009105D9F72F5F3F4F2C30310561F0F9013C
:10056000EE0FFF1FE20FF31FEE0FFF1FED55FE4FC3
:1005700080E090E0EACF08951F920F920FB60F929D
:1005800011242F933F938F939F93AF93BF938091A9
:10059000B7019091B801A091B901B091BA01309121
:1005A000BB010196A11DB11D232F2D5F2D3720F01A
:1005B0002D570196A11DB11D2093BB018093B7015A
:1005C0009093B801A093B901B093BA018091B3019F
:1005D0009091B401A091B501B091B6010196A11D11
:1005E000B11D8093B3019093B401A093B501B09372
:1005F000B601BF91AF919F918F913F912F910F9035
:100600000FBE0F901F9018958FB7F8942091B701E7
:100610003091B8014091B9015091BA018FBFB90131
:10062000CA010895789484B5826084BD84B58160E0
:1006300084BD85B5826085BD85B5816085BDEEE6EA
:10064000F0E0808181608083E1E8F0E010828081C9
:1006500082608083808181608083E0E8F0E0808137
:1006600081608083E1EBF0E0808184608083E0EB57
:10067000F0E0808181608083EAE7F0E0808184603F
:10068000808380818260808380818160808380819B
:10069000806880831092C1000895982F8E3008F0F2
:1006A0009E50977080916B018295880F880F807C97
:1006B000892B80937C0080917A00806480937A00FB
:1006C00080917A0086FDFCCF2091780040917900DE
:1006D000942F80E030E0282B392BC9010895CF9367
:1006E000DF93482F50E0CA0186569F4FFC0134919A
:1006F0004A575F4FFA018491882369F190E0880F8F
:10070000991FFC01E859FF4FA591B491FC01EE58E7
:10071000FF4FC591D491662351F42FB7F8948C9173
:10072000932F909589238C93888189230BC0623005
:1007300061F42FB7F8948C91932F909589238C9323
:100740008881832B88832FBF06C09FB7F8948C9134
:10075000832B8C939FBFDF91CF910895482F50E05A
:10076000CA0182559F4FFC012491CA0186569F4FB2
:10077000FC0194914A575F4FFA013491332309F4F5
:1007800040C0222351F1233071F0243028F421306D
:10079000A1F0223011F514C02630B1F02730C1F09D
:1007A0002430D9F404C0809180008F7703C08091F9
:1007B00080008F7D8093800010C084B58F7702C049
:1007C00084B58F7D84BD09C08091B0008F7703C050
:1007D0008091B0008F7D8093B000E32FF0E0EE0FAA
:1007E000FF1FEE58FF4FA591B4912FB7F8946623E1
:1007F00021F48C919095892302C08C91892B8C9344
:100800002FBF0895682F70E0CB0182559F4FFC01E8
:100810002491CB0186569F4FFC0144916A577F4F2C
:10082000FB019491992319F420E030E03CC022238D
:1008300051F1233071F0243028F42130A1F022301E
:1008400011F514C02630B1F02730C1F02430D9F4AE
:1008500004C0809180008F7703C0809180008F7DDD
:100860008093800010C084B58F7702C084B58F7DDF
:1008700084BD09C08091B0008F7703C08091B00023
:100880008F7D8093B000892F90E0880F991F845846
:100890009F4FFC01A591B4918C9120E030E084231E
:1008A00011F021E030E0C901089508951F920F92E0
:1008B0000FB60F9211242F933F934F938F939F93D3
:1008C000EF93FF938091C00082FD1DC04091C60050
:1008D0002091FC013091FD012F5F3F4F2F7330704D
:1008E0008091FE019091FF012817390771F0E09186
:1008F000FC01F091FD01E454FE4F40833093FD0173
:100900002093FC0102C08091C600FF91EF919F915E
:100910008F914F913F912F910F900FBE0F901F908D
:100920001895E0915002F0915102E05CFF4F8191E7
:10093000919120813181805C9F4F821B930B60E4F9
:1009400070E00E940408892B11F00E94550408955C
:100950001F920F920FB60F9211242F933F938F93F4
:100960009F93EF93FF932091400230914102809139
:100970004202909143022817390731F48091C10057
:100980008F7D8093C10014C0E0914202F091430238
:10099000E050FE4F208180914202909143020196E7
:1009A0008F73907090934302809342022093C6000D
:1009B000FF91EF919F918F913F912F910F900FBEDB
:1009C0000F901F901895AF92BF92DF92EF92FF9217
:1009D0000F931F93CF93DF93EC017A018B01DD24FA
:1009E000403081EE580780E0680780E0780711F01A
:1009F000DD24D39491E0A92EB12CEC89FD89DD2072
:100A000069F0C50108A002C0880F991F0A94E2F797
:100A1000808360E079E08DE390E005C0108260E8BB
:100A200074E88EE190E0A80197010E941708215018
:100A3000304040405040569547953795279580E186
:100A40002030380720F0DD2011F0DD24D6CFE889F2
:100A5000F9893083EA89FB89208319A2EE89FF890D
:100A6000408121E030E0C9010C8C02C0880F991F41
:100A70000A94E2F7482B4083EE89FF894081C9013F
:100A80000D8C02C0880F991F0A94E2F7482B40830F
:100A9000EE89FF894081C9010E8C02C0880F991F21
:100AA0000A94E2F7482B4083EE89FF8980810F8CFE
:100AB00002C0220F331F0A94E2F7209528232083D7
:100AC000DF91CF911F910F91FF90EF90DF90BF903A
:100AD000AF900895DC011C96ED91FC911D97E05CB0
:100AE000FF4F8191919120813181805C9F4F821BCA
:100AF000930B60E470E00E9404080895DC011C96EA
:100B0000ED91FC911D97E05CFF4F20813181E05415
:100B1000F040DF01AE5BBF4F8D919C91119728177C
:100B2000390719F42FEF3FEF07C08D919C91E80F23
:100B3000F91F8081282F30E0C9010895DC011C963F
:100B4000ED91FC911D97E05CFF4F20813181E054D5
:100B5000F040DF01AE5BBF4F8D919C91119728173C
:100B6000390719F42FEF3FEF10C08D919C91119729
:100B7000E80FF91F20818D919C91119701968F7339
:100B8000907011969C938E9330E0C9010895DC011A
:100B900091968C919197882339F05496ED91FC9120
:100BA0005597808186FFF9CF91961C920895CF9337
:100BB000DF93EC01EE85FF85E05CFF4F2081318102
:100BC000E054F0402F5F3F4F2F733070DF01AE5B7A
:100BD000BF4F8D919C91119728173907D1F3E05C95
:100BE000FF4F80819181E054F040E80FF91F60834E
:100BF000EE85FF85E05CFF4F31832083EE89FF891E
:100C0000208181E090E00F8C02C0880F991F0A9428
:100C1000E2F7282B208381E089A3EC89FD8980817C
:100C20008064808381E090E0DF91CF9108951092FD
:100C300047021092460288EE93E0A0E0B0E0809375
:100C4000480290934902A0934A02B0934B0280E776
:100C500091E090934502809344028CEB91E0909355
:100C600051028093500280E092E09093530280936F
:100C7000520285EC90E0909355028093540284ECEC
:100C800090E0909357028093560280EC90E090930E
:100C900059028093580281EC90E090935B0280931C
:100CA0005A0282EC90E090935D0280935C0286ECA5
:100CB00090E090935F0280935E0284E080936002F4
:100CC00083E08093610287E08093620285E08093F5
:100CD000630281E08093640208950895CF93DF93C7
:100CE0000E9412030E946D060E948A02C1E9D4E0AC
:100CF0000E94CC002097E1F30E949104F9CFCF929B
:100D0000DF92EF92FF920F931F93CF93DF937C01BB
:100D10006B018A01C0E0D0E00FC0D6016D916D017A
:100D2000D701ED91FC910190F081E02DC70109956B
:100D3000C80FD91F015010400115110571F7CE01E0
:100D4000DF91CF911F910F91FF90EF90DF90CF90A7
:100D50000895EF92FF920F931F938C01DC01ED91A8
:100D6000FC910190F081E02D6DE009957C01D801A6
:100D7000ED91FC910190F081E02DC8016AE00995A8
:100D80009C012E0D3F1DC9011F910F91FF90EF9007
:100D90000895CF93DF93EC016115710519F420E0FC
:100DA00030E00FC0DB010D900020E9F71197A61B82
:100DB000B70BE881F9810280F381E02DAD0109953F
:100DC0009C01C901DF91CF9108954F925F927F926C
:100DD0008F929F92AF92BF92CF92DF92EF92FF924B
:100DE0000F931F93DF93CF93CDB7DEB7A1970FB6C5
:100DF000F894DEBF0FBECDBF2C01742ECB01223084
:100E000008F42AE019A231E2C32ED12CCC0EDD1E4B
:100E1000822E9924AA24BB24672D752FA501940145
:100E20000E94170879018A01C801B701A501940140
:100E30000E94E507472D461B0894C108D1084A3097
:100E400014F4405D01C0495CF6014083E114F104F3
:100E50000105110521F07E2C5F2DC801DDCFC201F7
:100E6000B6010E94C906A1960FB6F894DEBF0FBE68
:100E7000CDBFCF91DF911F910F91FF90EF90DF9049
:100E8000CF90BF90AF909F908F907F905F904F904A
:100E90000895CF92DF92EF92FF920F931F93CF931B
:100EA000DF93EC016A017B012115310541F4E881F2
:100EB000F9810190F081E02D642F09951FC02A303F
:100EC0003105D1F477FF17C0E881F9810190F081F5
:100ED000E02D6DE209958C0144275527BA014C1984
:100EE0005D096E097F09CE012AE00E94E50698019E
:100EF000280F391F04C02AE00E94E5069C01C901A1
:100F0000DF91CF911F910F91FF90EF90DF90CF90E5
:100F10000895EF92FF920F931F937C010E9449075F
:100F20008C01C7010E94A9069C01200F311FC90135
:100F30001F910F91FF90EF900895EF92FF920F9302
:100F40001F937B019A010027F7FC0095102FB80131
:100F5000A7010E9449071F910F91FF90EF900895FC
:100F6000CF92DF92EF92FF920F931F936C017B0160
:100F70009A010027F7FC0095102FB801A7010E94E5
:100F800049078C01C6010E94A906080F191FC80154
:100F90001F910F91FF90EF90DF90CF9008950E94E6
:100FA000C9060895EF92FF920F931F937C010E9450
:100FB000C9068C01C7010E94A906080F191FC801A4
:100FC0001F910F91FF90EF900895629FD001739F42
:100FD000F001829FE00DF11D649FE00DF11D929FD5
:100FE000F00D839FF00D749FF00D659FF00D992714
:100FF000729FB00DE11DF91F639FB00DE11DF91F38
:10100000BD01CF011124089597FB092E07260AD0B0
:1010100077FD04D02ED006D000201AF4709561958B
:101020007F4F0895F6F7909581959F4F0895A1E21F
:101030001A2EAA1BBB1BFD010DC0AA1FBB1FEE1F52
:10104000FF1FA217B307E407F50720F0A21BB30B9D
:10105000E40BF50B661F771F881F991F1A9469F719
:1010600060957095809590959B01AC01BD01CF0175
:101070000895AA1BBB1B51E107C0AA1FBB1FA617DF
:10108000B70710F0A61BB70B881F991F5A95A9F731
:1010900080959095BC01CD010895EE0FFF1F05903E
:0A10A000F491E02D0994F894FFCFBD
:1010AA00203D205265616374696F6E2044656C61EE
:1010BA0079002323232323204C6173742053696707
:1010CA006E616C3A20002D2D2D2D2D2D2D2D2D2DBF
:1010DA002D205265736574004C6173742054696DD8
:1010EA006520427574746F6E2050726573736564FF
:1010FA00203A2000206F6620427574746F6E204E6D
:10110A00722E3A2000BC023200F4010100000000F5
:0C111A00D7057F066A059E057E05C70507
:00000001FF
