:100000000C9462000C948A000C948A000C948A0070
:100010000C948A000C948A000C948A000C948A0038
:100020000C948A000C948A000C948A000C94190297
:100030000C948A000C948A000C948A000C948A0018
:100040000C94D7020C948A000C948A000C948A00B9
:100050000C948A000C948A000C948A000C948A00F8
:100060000C948A000C948A000000000024002700F1
:100070002A0000000000250028002B0000000000DE
:1000800023002600290004040404040404040202DA
:100090000202020203030303030301020408102007
:1000A0004080010204081020010204081020000012
:1000B0000007000201000003040600000000000029
:1000C00000008C0011241FBECFEFD8E0DEBFCDBFF3
:1000D00011E0A0E0B1E0E0E7FAE002C005900D9287
:1000E000A030B107D9F711E0A0E0B1E001C01D9246
:1000F000A233B107E1F710E0C4ECD0E004C02297CE
:10010000FE010E943205C23CD107C9F70E94470494
:100110000C9436050C94000080E091E00E94D5001C
:1001200008950F931F9368EE73E080E090E00E94C3
:100130001F0300E011E0C8016AE570E00E942B0196
:1001400068EE73E080E090E00E941F03C80164EB5A
:1001500070E00E942B0168EE73E080E090E00E9466
:100160001F03C8016AE570E00E942B0168EE73E08E
:1001700080E090E00E941F03C80160E070E00E94F0
:100180002B011F910F9108950F931F9300E011E031
:10019000C80169E070E00E941202C80160E070E0EE
:1001A0000E942B011F910F910895FC018091030182
:1001B0008C3090F480838F5F80930301815090E0B6
:1001C000FC01EE0FFF1FE80FF91FEC5FFE4F88EBFD
:1001D0009BE09283818308958FEF80830895FC01D3
:1001E00020812C30B8F58181992787FD909548E8CA
:1001F00050E0481B590B440F551F440F551F6417FF
:10020000750784F08281992787FD909548E552E033
:10021000481B590B440F551F440F551F6417750792
:100220000CF4AB0142505040CA01AA2797FDA0959B
:10023000BA2F880F991FAA1FBB1F4FB7F89430E041
:10024000F901EE0FFF1FE20FF31FEC5FFE4F9283E9
:1002500081834FBF0895AF92BF92CF92DF92EF920A
:10026000FF920F931F93CF93DF93EC019B0182E0EA
:10027000603278070CF048C077FF03C020E030E020
:1002800005C0653B710514F024EB30E000D000D0D0
:10029000B901882777FD8095982F2981332727FD7D
:1002A0003095E8E8AE2EB12CA21AB30AAA0CBB1CFA
:1002B000AA0CBB1CCC24B7FCC094DC2CEA81FF2721
:1002C000E7FDF09528E532E02E1B3F0B220F331F90
:1002D000220F331F442737FD4095542FEDB7FEB74B
:1002E000218332834383548320E030E040E050E0B8
:1002F00004EBE02EF12C012D112D0E9458049B01DE
:100300000F900F900F900F90CE01B9010E94EF0057
:10031000DF91CF911F910F91FF90EF90DF90CF90E1
:10032000BF90AF900895CF92DF92EF92FF921F930C
:10033000CF93DF93EC01162F7A01690188818C300D
:1003400008F064C0862F61E00E94B303888190E0CA
:10035000FC01EE0FFF1FE80FF91FEC5FFE4F1F734C
:100360008081807C812B808380E292E08E199F09BE
:1003700064E070E00E94CC04698380E699E08C1907
:100380009D0964E070E00E94CC046A83A8818A2FF2
:100390006CE00E94C004682F70E0AB01440F551F51
:1003A000460F571F440F551F440F551F20E030E0E4
:1003B000C901840F951FFC01EE0FFF1FE80FF91F05
:1003C000EC5FFE4F808186FD15C02F5F3F4F2C30C4
:1003D000310571F724C01092800082E08093810083
:1003E0001092850010928400B19A80916F00826013
:1003F00080936F008A2F90E0FC01EE0FFF1FE80F43
:10040000F91FEC5FFE4F8081806480838881DF91DB
:10041000CF911F91FF90EF90DF90CF900895672BC1
:10042000D1F2E8CF40E252E020E639E00E949301A9
:1004300008951F920F920FB60F9211242F933F939E
:100440004F935F936F937F938F939F93AF93BF93DC
:10045000EF93FF938091280187FF05C010928500DC
:10046000109284002BC020912801332727FD30955E
:100470008091030190E02817390704F58091280145
:10048000992787FD9095FC01EE0FFF1FE80FF91FDC
:10049000EC5FFE4F808186FF11C080912801992773
:1004A00087FD9095FC01EE0FFF1FE80FF91FEC5F31
:1004B000FE4F80818F7360E00E94F20380912801DB
:1004C0008F5F8093280120912801332727FD3095E5
:1004D0008091030190E0281739070CF04EC08091FD
:1004E00028018C300CF049C02091840030918500A7
:1004F00080912801992787FD9095FC01EE0FFF1F41
:10050000E80FF91FEC5FFE4F81819281280F391FA0
:10051000309389002093880080912801992787FDD6
:100520009095FC01EE0FFF1FE80FF91FEC5FFE4FE7
:10053000808186FF2BC080912801992787FD9095A7
:10054000FC01EE0FFF1FE80FF91FEC5FFE4F8081EB
:100550008F7361E00E94F20319C080E49CE905C03A
:1005600080918400909185000496909389008093F7
:1005700088008FEF8093280109C0809184009091BA
:100580008500049680549C4940F3EACFFF91EF9197
:10059000BF91AF919F918F917F916F915F914F919B
:1005A0003F912F910F900FBE0F901F9018951F92A3
:1005B0000F920FB60F9211242F933F938F939F9317
:1005C000AF93BF9380912D0190912E01A0912F01A7
:1005D000B0913001309131010196A11DB11D232F41
:1005E0002D5F2D3720F02D570196A11DB11D2093B1
:1005F000310180932D0190932E01A0932F01B09390
:1006000030018091290190912A01A0912B01B09194
:100610002C010196A11DB11D8093290190932A01FF
:10062000A0932B01B0932C01BF91AF919F918F911B
:100630003F912F910F900FBE0F901F9018959B0127
:10064000AC017FB7F8948091290190912A01A09183
:100650002B01B0912C0166B5A89B05C06F3F19F026
:100660000196A11DB11D7FBFBA2FA92F982F8827F2
:10067000860F911DA11DB11D62E0880F991FAA1F51
:10068000BB1F6A95D1F7BC012DC0FFB7F8948091CC
:10069000290190912A01A0912B01B0912C01E6B57E
:1006A000A89B05C0EF3F19F00196A11DB11DFFBF2A
:1006B000BA2FA92F982F88278E0F911DA11DB11D2C
:1006C000E2E0880F991FAA1FBB1FEA95D1F7861B8E
:1006D000970B885E9340C8F2215030404040504014
:1006E00068517C4F211531054105510571F608957A
:1006F000789484B5826084BD84B5816084BD85B5FD
:10070000826085BD85B5816085BDEEE6F0E08081C3
:1007100081608083E1E8F0E01082808182608083E4
:10072000808181608083E0E8F0E080818160808367
:10073000E1EBF0E0808184608083E0EBF0E0808199
:1007400081608083EAE7F0E080818460808380813B
:1007500082608083808181608083808180688083E3
:100760001092C1000895CF93DF93482F50E0CA0143
:1007700086569F4FFC0134914A575F4FFA0184918E
:10078000882369F190E0880F991FFC01E859FF4F19
:10079000A591B491FC01EE58FF4FC591D491662309
:1007A00051F42FB7F8948C91932F909589238C93C3
:1007B000888189230BC0623061F42FB7F8948C9143
:1007C000932F909589238C938881832B88832FBFC7
:1007D00006C09FB7F8948C91832B8C939FBFDF91B9
:1007E000CF910895482F50E0CA0182559F4FFC01D8
:1007F0002491CA0186569F4FFC0194914A575F4F3E
:10080000FA013491332309F440C0222351F12330FB
:1008100071F0243028F42130A1F0223011F514C0F9
:100820002630B1F02730C1F02430D9F404C08091D3
:1008300080008F7703C0809180008F7D809380003F
:1008400010C084B58F7702C084B58F7D84BD09C088
:100850008091B0008F7703C08091B0008F7D80932E
:10086000B000E32FF0E0EE0FFF1FEE58FF4FA59111
:10087000B4912FB7F894662321F48C919095892335
:1008800002C08C91892B8C932FBF08950895CF932C
:10089000DF930E9478030E9446040E94C400C0E0D7
:1008A000D0E00E9491002097E1F30E940000F9CF70
:1008B0002F923F924F925F926F927F928F929F9270
:1008C000AF92BF92CF92DF92EF92FF920F931F935E
:1008D000DF93CF93CDB7DEB73B014C0119012A015D
:1008E0006D897E898F89988D6A197B098C099D098C
:1008F000621A730A840A950AA40193010E94A10452
:10090000E218F30804091509A80197010E94DF0401
:100910002A0D3B1D4C1D5D1DB901CA01CF91DF9110
:100920001F910F91FF90EF90DF90CF90BF90AF900D
:100930009F908F907F906F905F904F903F902F90FF
:100940000895629FD001739FF001829FE00DF11D19
:10095000649FE00DF11D929FF00D839FF00D749F39
:10096000F00D659FF00D9927729FB00DE11DF91FE5
:10097000639FB00DE11DF91FBD01CF011124089542
:10098000991B79E004C0991F961708F0961B881FE1
:100990007A95C9F78095089597FB092E07260AD006
:1009A00077FD04D027D006D000201AF47095619509
:1009B0007F4F0895F6F7909581959F4F089597FB87
:1009C000092E05260ED057FD04D028D00AD0001CD1
:1009D00038F450954095309521953F4F4F4F5F4FDC
:1009E0000895F6F790958095709561957F4F8F4F9C
:1009F0009F4F0895AA1BBB1B51E107C0AA1FBB1F35
:100A0000A617B70710F0A61BB70B881F991F5A959A
:100A1000A9F780959095BC01CD010895A1E21A2E09
:100A2000AA1BBB1BFD010DC0AA1FBB1FEE1FFF1F92
:100A3000A217B307E407F50720F0A21BB30BE40BE2
:100A4000F50B661F771F881F991F1A9469F7609529
:100A50007095809590959B01AC01BD01CF010895E3
:100A6000EE0FFF1F0590F491E02D0994F894FFCF4D
:00000001FF
