:100000000C9463000C948B000C948B000C948B006C
:100010000C948B000C948B000C948B000C948B0034
:100020000C948B000C948B000C948B000C9443026A
:100030000C948B000C948B000C948B000C948B0014
:100040000C9401030C948B000C9493040C94E50421
:100050000C948B000C948B000C948B000C948B00F4
:100060000C948B000C948B000000000024002700EF
:100070002A0000000000250028002B0000000000DE
:1000800023002600290004040404040404040202DA
:100090000202020203030303030301020408102007
:1000A0004080010204081020010204081020000012
:1000B0000007000201000003040600000000000029
:1000C00000008D00540611241FBECFEFD8E0DEBF24
:1000D000CDBF11E0A0E0B1E0EAE8F1E102C0059097
:1000E0000D92A231B107D9F711E0A2E1B1E001C050
:1000F0001D92A03FB107E1F710E0C6ECD0E004C0CC
:100100002297FE010E94BF08C23CD107C9F70E9496
:10011000AB060C94C3080C94000082E191E00E94AD
:10012000FF000895AF92BF92CF92DF92EF92FF92BD
:100130000F931F9385E00E94DD0390931601809337
:10014000150100D000D0AA2797FDA095BA2F24EB67
:1001500030E040E050E0EDB7FEB7218332834383C7
:100160005483BC01CD0120E030E040E050E0EFEFEF
:10017000EE2EE3E0FE2E012D112DAA24BB246501F5
:100180000E94E5079B01AC010F900F900F900F901C
:1001900082E191E0B9010E94550168EE73E080E0D0
:1001A00090E00E94490360911501709116018EEC58
:1001B00091E04AE050E00E94C6071F910F91FF9026
:1001C000EF90DF90CF90BF90AF9008950F931F9363
:1001D00002E111E0C80169E070E00E943C02C80140
:1001E00060E070E00E9455018EEC91E040E855E23D
:1001F00060E070E00E9420051F910F910895FC01BE
:10020000809117018C3090F480838F5F8093170169
:10021000815090E0FC01EE0FFF1FE80FF91FE85E30
:10022000FE4F88EB9BE09283818308958FEF80835C
:100230000895FC0120812C30B8F58181992787FD34
:10024000909548E850E0481B590B440F551F440F48
:10025000551F6417750784F08281992787FD909553
:1002600048E552E0481B590B440F551F440F551FDA
:10027000641775070CF4AB0142505040CA01AA271D
:1002800097FDA095BA2F880F991FAA1FBB1F4FB7C4
:10029000F89430E0F901EE0FFF1FE20FF31FE85E64
:1002A000FE4F928381834FBF0895AF92BF92CF924A
:1002B000DF92EF92FF920F931F93CF93DF93EC01A6
:1002C0009B0182E0603278070CF048C077FF03C0E2
:1002D00020E030E005C0653B710514F024EB30E010
:1002E00000D000D0B901882777FD8095982F29810B
:1002F000332727FD3095E8E8AE2EB12CA21AB30AB9
:10030000AA0CBB1CAA0CBB1CCC24B7FCC094DC2CD4
:10031000EA81FF27E7FDF09528E532E02E1B3F0B31
:10032000220F331F220F331F442737FD4095542FD0
:10033000EDB7FEB7218332834383548320E030E05E
:1003400040E050E004EBE02EF12C012D112D0E9435
:10035000E5079B010F900F900F900F90CE01B90110
:100360000E941901DF91CF911F910F91FF90EF90A3
:10037000DF90CF90BF90AF900895CF92DF92EF9231
:10038000FF921F93CF93DF93EC01162F7A0169013F
:1003900088818C3008F064C0862F61E00E94FF03E2
:1003A000888190E0FC01EE0FFF1FE80FF91FE85E67
:1003B000FE4F1F738081807C812B808380E292E0DE
:1003C0008E199F0964E070E00E945908698380E6F5
:1003D00099E08C199D0964E070E00E9459086A83D5
:1003E000A8818A2F6CE00E944D08682F70E0AB0155
:1003F000440F551F460F571F440F551F440F551FDD
:1004000020E030E0C901840F951FFC01EE0FFF1FB3
:10041000E80FF91FE85EFE4F808186FD15C02F5F53
:100420003F4F2C30310571F724C01092800082E0DC
:10043000809381001092850010928400B19A80917F
:100440006F00826080936F008A2F90E0FC01EE0FB6
:10045000FF1FE80FF91FE85EFE4F808180648083F4
:100460008881DF91CF911F91FF90EF90DF90CF9027
:100470000895672BD1F2E8CF40E252E020E639E060
:100480000E94BD0108951F920F920FB60F92112482
:100490002F933F934F935F936F937F938F939F938C
:1004A000AF93BF93EF93FF9380913C0187FF05C00B
:1004B00010928500109284002BC020913C013327BC
:1004C00027FD30958091170190E02817390704F532
:1004D00080913C01992787FD9095FC01EE0FFF1F4D
:1004E000E80FF91FE85EFE4F808186FF11C0809102
:1004F0003C01992787FD9095FC01EE0FFF1FE80F47
:10050000F91FE85EFE4F80818F7360E00E943E0419
:1005100080913C018F5F80933C0120913C01332707
:1005200027FD30958091170190E0281739070CF0CE
:100530004EC080913C018C300CF049C02091840069
:100540003091850080913C01992787FD9095FC01B1
:10055000EE0FFF1FE80FF91FE85EFE4F81819281C9
:10056000280F391F309389002093880080913C0127
:10057000992787FD9095FC01EE0FFF1FE80FF91FEB
:10058000E85EFE4F808186FF2BC080913C01992759
:1005900087FD9095FC01EE0FFF1FE80FF91FE85E45
:1005A000FE4F80818F7361E00E943E0419C080E499
:1005B0009CE905C0809184009091850004969093F9
:1005C0008900809388008FEF80933C0109C080915F
:1005D000840090918500049680549C4940F3EACFB2
:1005E000FF91EF91BF91AF919F918F917F916F910B
:1005F0005F914F913F912F910F900FBE0F901F90E1
:1006000018951F920F920FB60F9211242F933F93BC
:100610008F939F93AF93BF9380914101909142013B
:10062000A0914301B0914401309145010196A11D73
:10063000B11D232F2D5F2D3720F02D570196A11DC1
:10064000B11D209345018093410190934201A093F5
:100650004301B093440180913D0190913E01A091EE
:100660003F01B09140010196A11DB11D80933D0154
:1006700090933E01A0933F01B0934001BF91AF9191
:100680009F918F913F912F910F900FBE0F901F90D0
:1006900018959B01AC017FB7F89480913D01909132
:1006A0003E01A0913F01B091400166B5A89B05C0F5
:1006B0006F3F19F00196A11DB11D7FBFBA2FA92F61
:1006C000982F8827860F911DA11DB11D62E0880F0C
:1006D000991FAA1FBB1F6A95D1F7BC012DC0FFB798
:1006E000F89480913D0190913E01A0913F01B0911D
:1006F0004001E6B5A89B05C0EF3F19F00196A11D8A
:10070000B11DFFBFBA2FA92F982F88278E0F911DDB
:10071000A11DB11DE2E0880F991FAA1FBB1FEA951A
:10072000D1F7861B970B885E9340C8F2215030406A
:100730004040504068517C4F21153105410551051D
:1007400071F60895789484B5826084BD84B5816023
:1007500084BD85B5826085BD85B5816085BDEEE6C9
:10076000F0E0808181608083E1E8F0E010828081A8
:1007700082608083808181608083E0E8F0E0808116
:1007800081608083E1EBF0E0808184608083E0EB36
:10079000F0E0808181608083EAE7F0E0808184601E
:1007A000808380818260808380818160808380817A
:1007B000806880831092C1000895982F8E3008F0D1
:1007C0009E509770809100018295880F880F807CE1
:1007D000892B80937C0080917A00806480937A00DA
:1007E00080917A0086FDFCCF2091780040917900BD
:1007F000942F80E030E0282B392BC9010895CF9346
:10080000DF93482F50E0CA0186569F4FFC01349178
:100810004A575F4FFA018491882369F190E0880F6D
:10082000991FFC01E859FF4FA591B491FC01EE58C6
:10083000FF4FC591D491662351F42FB7F8948C9152
:10084000932F909589238C93888189230BC06230E4
:1008500061F42FB7F8948C91932F909589238C9302
:100860008881832B88832FBF06C09FB7F8948C9113
:10087000832B8C939FBFDF91CF910895482F50E039
:10088000CA0182559F4FFC012491CA0186569F4F91
:10089000FC0194914A575F4FFA013491332309F4D4
:1008A00040C0222351F1233071F0243028F421304C
:1008B000A1F0223011F514C02630B1F02730C1F07C
:1008C0002430D9F404C0809180008F7703C08091D8
:1008D00080008F7D8093800010C084B58F7702C028
:1008E00084B58F7D84BD09C08091B0008F7703C02F
:1008F0008091B0008F7D8093B000E32FF0E0EE0F89
:10090000FF1FEE58FF4FA591B4912FB7F8946623BF
:1009100021F48C919095892302C08C91892B8C9322
:100920002FBF089508951F920F920FB60F921124B2
:100930002F933F934F938F939F93EF93FF938091C8
:10094000C00082FD1DC04091C600209186013091FB
:1009500087012F5F3F4F2F733070809188019091F6
:1009600089012817390771F0E0918601F09187011C
:10097000EA5BFE4F4083309387012093860102C0DB
:100980008091C600FF91EF919F918F914F913F9180
:100990002F910F900FBE0F901F901895E091DA01E4
:1009A000F091DB01E05CFF4F8191919120813181D9
:1009B000805C9F4F821B930B60E470E00E9459089B
:1009C000892B11F00E94920408951F920F920FB686
:1009D0000F9211242F933F938F939F93EF93FF9345
:1009E0002091CA013091CB018091CC019091CD0131
:1009F0002817390731F48091C1008F7D8093C100A1
:100A000014C0E091CC01F091CD01E657FE4F20815A
:100A10008091CC019091CD0101968F73907090934D
:100A2000CD018093CC012093C600FF91EF919F915F
:100A30008F913F912F910F900FBE0F901F9018959F
:100A4000AF92BF92DF92EF92FF920F931F93CF93DB
:100A5000DF93EC017A018B01DD24403081EE5807F1
:100A600080E0680780E0780711F0DD24D39491E0FE
:100A7000A92EB12CEC89FD89DD2069F0C50108A003
:100A800002C0880F991F0A94E2F7808360E079E042
:100A90008DE390E005C0108260E874E88EE190E09C
:100AA000A80197010E946C082150304040405040FE
:100AB000569547953795279580E12030380720F0E7
:100AC000DD2011F0DD24D6CFE889F9893083EA8969
:100AD000FB89208319A2EE89FF89408121E030E063
:100AE000C9010C8C02C0880F991F0A94E2F7482BA9
:100AF0004083EE89FF894081C9010D8C02C0880FB7
:100B0000991F0A94E2F7482B4083EE89FF894081C0
:100B1000C9010E8C02C0880F991F0A94E2F7482B76
:100B20004083EE89FF8980810F8C02C0220F331F22
:100B30000A94E2F7209528232083DF91CF911F911B
:100B40000F91FF90EF90DF90BF90AF900895DC0180
:100B50001C96ED91FC911D97E05CFF4F8191919166
:100B600020813181805C9F4F821B930B60E470E099
:100B70000E9459080895DC011C96ED91FC911D9787
:100B8000E05CFF4F20813181E054F040DF01AE5B3B
:100B9000BF4F8D919C9111972817390719F42FEFAA
:100BA0003FEF07C08D919C91E80FF91F8081282F9E
:100BB00030E0C9010895DC011C96ED91FC911D9770
:100BC000E05CFF4F20813181E054F040DF01AE5BFB
:100BD000BF4F8D919C9111972817390719F42FEF6A
:100BE0003FEF10C08D919C911197E80FF91F208164
:100BF0008D919C91119701968F73907011969C9393
:100C00008E9330E0C9010895DC0191968C91919703
:100C1000882339F05496ED91FC915597808186FF99
:100C2000F9CF91961C920895CF93DF93EC01EE8556
:100C3000FF85E05CFF4F20813181E054F0402F5F61
:100C40003F4F2F733070DF01AE5BBF4F8D919C9192
:100C5000119728173907D1F3E05CFF4F808191810C
:100C6000E054F040E80FF91F6083EE85FF85E05CFB
:100C7000FF4F31832083EE89FF89208181E090E05E
:100C80000F8C02C0880F991F0A94E2F7282B20834B
:100C900081E089A3EC89FD8980818064808381E083
:100CA00090E0DF91CF9108951092D1011092D00180
:100CB00088EE93E0A0E0B0E08093D2019093D3015E
:100CC000A093D401B093D50185E091E09093CF013A
:100CD0008093CE0186E491E09093DB018093DA016A
:100CE0008AE891E09093DD018093DC0185EC90E04F
:100CF0009093DF018093DE0184EC90E09093E1011A
:100D00008093E00180EC90E09093E3018093E20116
:100D100081EC90E09093E5018093E40182EC90E017
:100D20009093E7018093E60186EC90E09093E901CF
:100D30008093E80184E08093EA0183E08093EB01F3
:100D400087E08093EC0185E08093ED0181E0809362
:100D5000EE0108950895CF93DF930E94A2030E94AD
:100D6000AA060E94E600CEECD4E00E9492002097F2
:100D7000E1F30E94CE04F9CFCF92DF92EF92FF927F
:100D80000F931F93CF93DF937C016B018A01C0E027
:100D9000D0E00FC0D6016D916D01D701ED91FC91AE
:100DA0000190F081E02DC7010995C80FD91F0150AE
:100DB00010400115110571F7CE01DF91CF911F9100
:100DC0000F91FF90EF90DF90CF900895EF92FF92F8
:100DD0000F931F938C01DC01ED91FC910190F08148
:100DE000E02D6DE009957C01D801ED91FC91019019
:100DF000F081E02DC8016AE009959C012E0D3F1D90
:100E0000C9011F910F91FF90EF900895CF93DF9349
:100E1000EC016115710519F420E030E00FC0DB0131
:100E20000D900020E9F71197A61BB70BE881F98117
:100E30000280F381E02DAD0109959C01C901DF918C
:100E4000CF9108954F925F927F928F929F92AF922F
:100E5000BF92CF92DF92EF92FF920F931F93DF9397
:100E6000CF93CDB7DEB7A1970FB6F894DEBF0FBE14
:100E7000CDBF2C01742ECB01223008F42AE019A238
:100E800031E2C32ED12CCC0EDD1E822E9924AA2451
:100E9000BB24672D752FA50194010E946C08790170
:100EA0008A01C801B701A50194010E942E08472DAF
:100EB000461B0894C108D1084A3014F4405D01C0B3
:100EC000495CF6014083E114F1040105110521F0AC
:100ED0007E2C5F2DC801DDCFC201B6010E9406073E
:100EE000A1960FB6F894DEBF0FBECDBFCF91DF91B4
:100EF0001F910F91FF90EF90DF90CF90BF90AF9038
:100F00009F908F907F905F904F900895CF92DF9247
:100F1000EF92FF920F931F93CF93DF93EC016A013F
:100F20007B012115310541F4E881F9810190F081BF
:100F3000E02D642F09951FC02A303105D1F477FFC9
:100F400017C0E881F9810190F081E02D6DE20995EB
:100F50008C0144275527BA014C195D096E097F0998
:100F6000CE012AE00E9422079801280F391F04C0F1
:100F70002AE00E9422079C01C901DF91CF911F91B5
:100F80000F91FF90EF90DF90CF900895CF92DF9276
:100F9000EF92FF920F931F936C017B019A01002740
:100FA000F7FC0095102FB801A7010E9486078C015D
:100FB000C6010E94E606080F191FC8011F910F9174
:100FC000FF90EF90DF90CF9008952F923F924F9235
:100FD0005F926F927F928F929F92AF92BF92CF92C9
:100FE000DF92EF92FF920F931F93DF93CF93CDB7D2
:100FF000DEB73B014C0119012A016D897E898F8979
:10100000988D6A197B098C099D09621A730A840AF2
:10101000950AA40193010E942E08E218F30804091E
:101020001509A80197010E948E082A0D3B1D4C1D31
:101030005D1DB901CA01CF91DF911F910F91FF9002
:10104000EF90DF90CF90BF90AF909F908F907F9068
:101050006F905F904F903F902F900895629FD001C6
:10106000739FF001829FE00DF11D649FE00DF11D63
:10107000929FF00D839FF00D749FF00D659FF00D12
:101080009927729FB00DE11DF91F639FB00DE11DFF
:10109000F91FBD01CF0111240895991B79E004C007
:1010A000991F961708F0961B881F7A95C9F78095A7
:1010B000089597FB092E07260AD077FD04D049D062
:1010C00006D000201AF4709561957F4F0895F6F7C9
:1010D000909581959F4F0895A1E21A2EAA1BBB1BE4
:1010E000FD010DC0AA1FBB1FEE1FFF1FA217B307F4
:1010F000E407F50720F0A21BB30BE40BF50B661F0A
:10110000771F881F991F1A9469F7609570958095CD
:1011100090959B01AC01BD01CF01089597FB092E6D
:1011200005260ED057FD04D0D7DF0AD0001C38F4B6
:1011300050954095309521953F4F4F4F5F4F089503
:10114000F6F790958095709561957F4F8F4F9F4FE3
:101150000895AA1BBB1B51E107C0AA1FBB1FA617FE
:10116000B70710F0A61BB70B881F991F5A95A9F750
:1011700080959095BC01CD010895EE0FFF1F05905D
:0A118000F491E02D0994F894FFCFDC
:10118A0001000000001406BC06A705DB05BB050428
:02119A0006004D
:00000001FF
