:100000000C9462000C948A000C948A000C948A0070
:100010000C948A000C948A000C948A000C948A0038
:100020000C948A000C948A000C948A000C948A0028
:100030000C948A000C948A000C948A000C948A0018
:100040000C94ED000C948A000C9411020C945F0245
:100050000C948A000C948A000C948A000C948A00F8
:100060000C948A000C948A000000000024002700F1
:100070002A0000000000250028002B0000000000DE
:1000800023002600290004040404040404040202DA
:100090000202020203030303030301020408102007
:1000A0004080010204081020010204081020000012
:1000B0000007000201000003040600000000000029
:1000C0000000CB0311241FBECFEFD8E0DEBFCDBFB1
:1000D00011E0A0E0B1E0E4ECFBE002C005900D927D
:1000E000AA31B107D9F711E0AAE1B1E001C01D9230
:1000F000A33DB107E1F710E0C4ECD0E004C02297C3
:10010000FE010E94DC05C23CD107C9F70E94210410
:100110000C94E0050C9400000F931F9300911A01BA
:1001200010E08AE00E94BD010817190789F081E0FC
:1001300080931B0181EB91E060E071E00E948605F5
:1001400081EB91E060911A014AE050E00E940905BC
:1001500080911B01882341F180911A01882339F095
:100160000E94350170931F0160931E0115C00E940B
:1001700035019B01AC0180911E0190911F01281B4C
:10018000390B30931D0120931C0181EB91E0B901E3
:100190004AE050E00E94670510921B0181EB91E05C
:1001A00067E071E00E9486058AE00E94BD018093AD
:1001B0001A011F910F9108958AE062E00E947E016A
:1001C0008BE061E00E947E0181EB91E040E855E226
:1001D00060E070E00E949A0208951F920F920FB69D
:1001E0000F9211242F933F938F939F93AF93BF93BD
:1001F0008091240190912501A0912601B0912701C1
:10020000309128010196A11DB11D232F2D5F2D379F
:1002100020F02D570196A11DB11D20932801809338
:10022000240190932501A0932601B093270180918A
:10023000200190912101A0912201B091230101960A
:10024000A11DB11D8093200190932101A093220153
:10025000B0932301BF91AF919F918F913F912F91C7
:100260000F900FBE0F901F9018958FB7F8942091A4
:1002700024013091250140912601509127018FBF23
:10028000B901CA010895789484B5826084BD84B5AB
:10029000816084BD85B5826085BD85B5816085BD81
:1002A000EEE6F0E0808181608083E1E8F0E010829A
:1002B000808182608083808181608083E0E8F0E0DB
:1002C000808181608083E1EBF0E0808184608083C5
:1002D000E0EBF0E0808181608083EAE7F0E08081FC
:1002E000846080838081826080838081816080835C
:1002F0008081806880831092C1000895CF93DF933E
:10030000482F50E0CA0186569F4FFC0134914A574E
:100310005F4FFA018491882369F190E0880F991F5B
:10032000FC01E859FF4FA591B491FC01EE58FF4F35
:10033000C591D491662351F42FB7F8948C91932FE3
:10034000909589238C93888189230BC0623061F456
:100350002FB7F8948C91932F909589238C93888153
:10036000832B88832FBF06C09FB7F8948C91832B73
:100370008C939FBFDF91CF910895682F70E0CB01E0
:1003800082559F4FFC012491CB0186569F4FFC0163
:1003900044916A577F4FFB019491992319F420E00F
:1003A00030E03CC0222351F1233071F0243028F496
:1003B0002130A1F0223011F514C02630B1F02730E1
:1003C000C1F02430D9F404C0809180008F7703C03D
:1003D000809180008F7D8093800010C084B58F77DE
:1003E00002C084B58F7D84BD09C08091B0008F7735
:1003F00003C08091B0008F7D8093B000892F90E082
:10040000880F991F84589F4FFC01A591B4918C913E
:1004100020E030E0842311F021E030E0C9010895AC
:1004200008951F920F920FB60F9211242F933F93AE
:100430004F938F939F93EF93FF938091C00082FD22
:100440001DC04091C6002091690130916A012F5F63
:100450003F4F2F73307080916B0190916C01281782
:10046000390771F0E0916901F0916A01E75DFE4F93
:10047000408330936A012093690102C08091C600D5
:10048000FF91EF919F918F914F913F912F910F90FD
:100490000FBE0F901F901895E091BD01F091BE0125
:1004A000E05CFF4F8191919120813181821B930B00
:1004B0008F739070892B11F00E94100208951F9283
:1004C0000F920FB60F9211242F933F938F939F9308
:1004D000EF93FF932091AD013091AE018091AF0178
:1004E0009091B0012817390731F48091C1008F7DB8
:1004F0008093C10014C0E091AF01F091B001E359C5
:10050000FE4F20818091AF019091B00101968F73D1
:1005100090709093B0018093AF012093C600FF913B
:10052000EF919F918F913F912F910F900FBE0F9060
:100530001F901895AF92BF92DF92EF92FF920F93A8
:100540001F93CF93DF93EC017A018B01DD244030C0
:1005500081EE580780E0680780E0780711F0DD241D
:10056000D39491E0A92EB12CEC89FD89DD2069F0AE
:10057000C50108A002C0880F991F0A94E2F7808382
:1005800060E079E08DE390E005C0108260E874E8F7
:100590008EE190E0A80197010E94B80521503040FB
:1005A00040405040569547953795279580E120303B
:1005B000380720F0DD2011F0DD24D6CFE889F98955
:1005C0003083EA89FB89208319A2EE89FF89408163
:1005D00021E030E0C9010C8C02C0880F991F0A94F9
:1005E000E2F7482B4083EE89FF894081C9010D8CD9
:1005F00002C0880F991F0A94E2F7482B4083EE89C6
:10060000FF894081C9010E8C02C0880F991F0A948E
:10061000E2F7482B4083EE89FF8980810F8C02C06E
:10062000220F331F0A94E2F7209528232083DF91BD
:10063000CF911F910F91FF90EF90DF90BF90AF90FF
:100640000895DC011C96ED91FC911D97E05CFF4F35
:100650002191319180819181281B390B2F7330704A
:10066000C9010895DC011C96ED91FC911D97E05C99
:10067000FF4F20813181E054F040DF01AE5BBF4F7E
:100680008D919C9111972817390719F42FEF3FEF9F
:1006900007C08D919C91E80FF91F8081282F30E0D1
:1006A000C9010895DC011C96ED91FC911D97E05C59
:1006B000FF4F20813181E054F040DF01AE5BBF4F3E
:1006C0008D919C9111972817390719F42FEF3FEF5F
:1006D00010C08D919C911197E80FF91F20818D9189
:1006E0009C91119701968F73907011969C938E93A5
:1006F00030E0C9010895DC0191968C91919788238F
:1007000039F05496ED91FC915597808186FFF9CF91
:1007100091961C920895CF93DF93EC01EE85FF85AF
:10072000E05CFF4F20813181E054F0402F5F3F4F6C
:100730002F733070DF01AE5BBF4F8D919C9111978D
:1007400028173907D1F3E05CFF4F80819181E05495
:10075000F040E80FF91F6083EE85FF85E05CFF4FF6
:1007600031832083EE89FF89208181E090E00F8C26
:1007700002C0880F991F0A94E2F7282B208381E09A
:1007800089A3EC89FD8980818064808381E090E089
:10079000DF91CF9108951092B4011092B30188EEC9
:1007A00093E0A0E0B0E08093B5019093B601A093F0
:1007B000B701B093B8018DE091E09093B2018093BE
:1007C000B10189E291E09093BE018093BD018DE675
:1007D00091E09093C0018093BF0185EC90E09093ED
:1007E000C2018093C10184EC90E09093C401809396
:1007F000C30180EC90E09093C6018093C50181EC29
:1008000090E09093C8018093C70182EC90E09093B0
:10081000CA018093C90186EC90E09093CC0180934B
:10082000CB0184E08093CD0183E08093CE0187E00B
:100830008093CF0185E08093D00181E08093D10146
:100840000895CF93DF930E9443010E94DC00CCE423
:10085000D2E00E948C002097E1F30E944C02F9CF75
:10086000CF92DF92EF92FF920F931F93CF93DF937C
:100870007C016B018A01C0E0D0E00FC0D6016D9110
:100880006D01D701ED91FC910190F081E02DC70140
:100890000995C80FD91F015010400115110571F7B6
:1008A000CE01DF91CF911F910F91FF90EF90DF90DC
:1008B000CF900895EF92FF920F931F938C01DC016C
:1008C000ED91FC910190F081E02D6DE009957C01A6
:1008D000D801ED91FC910190F081E02DC8016AE012
:1008E00009959C012E0D3F1DC9011F910F91FF908D
:1008F000EF900895CF93DF93EC016115710519F422
:1009000020E030E00FC0DB010D900020E9F71197E7
:10091000A61BB70BE881F9810280F381E02DAD01C0
:1009200009959C01C901DF91CF9108954F925F9283
:100930007F928F929F92AF92BF92CF92DF92EF926F
:10094000FF920F931F93DF93CF93CDB7DEB7A1979D
:100950000FB6F894DEBF0FBECDBF2C01742ECB01B5
:10096000223008F42AE019A231E2C32ED12CCC0E99
:10097000DD1E822E9924AA24BB24672D752FA50184
:1009800094010E94B80579018A01C801B701A50147
:1009900094010E949905472D461B0894C108D1086F
:1009A0004A3014F4405D01C0495CF6014083E11413
:1009B000F1040105110521F07E2C5F2DC801DDCF6A
:1009C000C201B6010E947A04A1960FB6F894DEBF68
:1009D0000FBECDBFCF91DF911F910F91FF90EF9090
:1009E000DF90CF90BF90AF909F908F907F905F905F
:1009F0004F900895DC012115310541F4ED91FC91F2
:100A00000190F081E02D642F099508950E949604CD
:100A10000895CF92DF92EF92FF920F931F936C0194
:100A2000E62E9A01FF2400E010E0B801A7010E9421
:100A3000FA048C01C6010E945A04080F191FC8014C
:100A40001F910F91FF90EF90DF90CF900895CF927C
:100A5000DF92EF92FF920F931F93CF93DF93EC01FE
:100A60006A017B012115310541F4E881F98101908A
:100A7000F081E02D642F09951FC02A303105D1F493
:100A800077FF17C0E881F9810190F081E02D6DE2D8
:100A900009958C0144275527BA014C195D096E0947
:100AA0007F09CE012AE00E9496049801280F391F81
:100AB00004C02AE00E9496049C01C901DF91CF91F5
:100AC0001F910F91FF90EF90DF90CF900895CF92FC
:100AD000DF92EF92FF920F931F936C017B019A01BB
:100AE0000027F7FC0095102FB801A7010E942705E9
:100AF0008C01C6010E945A04080F191FC8011F91DA
:100B00000F91FF90EF90DF90CF900895EF92FF92BA
:100B10000F931F937C010E947A048C01C7010E94ED
:100B20005A04080F191FC8011F910F91FF90EF90F1
:100B30000895629FD001739FF001829FE00DF11D27
:100B4000649FE00DF11D929FF00D839FF00D749F47
:100B5000F00D659FF00D9927729FB00DE11DF91FF3
:100B6000639FB00DE11DF91FBD01CF011124089550
:100B7000A1E21A2EAA1BBB1BFD010DC0AA1FBB1FA1
:100B8000EE1FFF1FA217B307E407F50720F0A21B13
:100B9000B30BE40BF50B661F771F881F991F1A9480
:100BA00069F760957095809590959B01AC01BD01AA
:100BB000CF010895EE0FFF1F0590F491E02D0994E9
:040BC000F894FFCFD7
:100BC4004368616E6765004600000000008B0330D7
:0A0BD400042103520332037B0300E7
:040000050080011E58
:00000001FF
