:100000000C9461000C947E000C947E000C947E0095
:100010000C947E000C947E000C947E000C947E0068
:100020000C947E000C947E000C947E000C947E0058
:100030000C947E000C947E000C947E000C947E0048
:100040000C942B010C947E000C947E000C947E008A
:100050000C947E000C947E000C947E000C947E0028
:100060000C947E000C947E00000000002400270009
:100070002A0000000000250028002B0000000000DE
:1000800023002600290004040404040404040202DA
:100090000202020203030303030301020408102007
:1000A0004080010204081020010204081020000012
:1000B0000007000201000003040600000000000029
:1000C000000011241FBECFEFD8E0DEBFCDBF11E08E
:1000D000A0E0B1E0ECEEF7E002C005900D92AA308E
:1000E000B107D9F711E0AAE0B1E001C01D92A73134
:1000F000B107E1F70E949A020C94F4030C940000FB
:100100008091000161E00E94460280910601909179
:1001100007019C01442737FD4095542F97FD0BC0E4
:10012000CA01B9010E94410320E030E040E05FE3F2
:100130000E94AA020AC0CA01B9010E94410320E03C
:1001400030E040E05FE30E94A9020E940E03CB0171
:1001500070930B0160930A0164E670E00E94CD0386
:10016000882777FD8095982F0E9473018091000168
:1001700060E00E94460280910801909109019C0173
:10018000442737FD4095542F97FD0BC0CA01B90194
:100190000E94410320E030E040E05FE30E94AA02B9
:1001A0000AC0CA01B9010E94410320E030E040E0EA
:1001B0005FE30E94A9020E940E03CB0170930D0120
:1001C00060930C0164E670E00E94CD03882777FD00
:1001D0008095982F0E947301609102017091030134
:1001E0002091060130910701260F371F3093070138
:1001F000209306014091040150910501809108016E
:1002000090910901841B950B90930901809308013B
:100210002115310519F02855324049F488279927CE
:10022000861B970B9093030180930201089500971A
:1002300019F08855924041F488279927841B950B23
:10024000909305018093040108958091000161E07D
:100250000E94070208951F920F920FB60F92112469
:100260002F933F938F939F93AF93BF9380911201EE
:1002700090911301A0911401B091150130911601D4
:100280000196A11DB11D232F2D5F2D3720F02D5775
:100290000196A11DB11D2093160180931201909328
:1002A0001301A0931401B093150180910E01909158
:1002B0000F01A0911001B09111010196A11DB11D76
:1002C00080930E0190930F01A0931001B093110140
:1002D000BF91AF919F918F913F912F910F900FBE42
:1002E0000F901F9018959B01AC017FB7F8948091F7
:1002F0000E0190910F01A0911001B091110166B50E
:10030000A89B05C06F3F19F00196A11DB11D7FBFCD
:10031000BA2FA92F982F8827860F911DA11DB11DD7
:1003200062E0880F991FAA1FBB1F6A95D1F7BC0115
:100330002DC0FFB7F89480910E0190910F01A0910C
:100340001001B0911101E6B5A89B05C0EF3F19F06F
:100350000196A11DB11DFFBFBA2FA92F982F882785
:100360008E0F911DA11DB11DE2E0880F991FAA1FDC
:10037000BB1FEA95D1F7861B970B885E9340C8F2A6
:10038000215030404040504068517C4F211531058C
:100390004105510571F60895789484B5826084BD55
:1003A00084B5816084BD85B5826085BD85B5816079
:1003B00085BDEEE6F0E0808181608083E1E8F0E0D9
:1003C0001082808182608083808181608083E0E808
:1003D000F0E0808181608083E1EBF0E080818460E7
:1003E0008083E0EBF0E0808181608083EAE7F0E0E9
:1003F000808184608083808182608083808181604D
:1004000080838081806880831092C1000895CF939B
:10041000DF93482F50E0CA0186569F4FFC0134916C
:100420004A575F4FFA018491882369F190E0880F61
:10043000991FFC01E859FF4FA591B491FC01EE58BA
:10044000FF4FC591D491662351F42FB7F8948C9146
:10045000932F909589238C93888189230BC06230D8
:1004600061F42FB7F8948C91932F909589238C93F6
:100470008881832B88832FBF06C09FB7F8948C9107
:10048000832B8C939FBFDF91CF910895482F50E02D
:10049000CA0182559F4FFC012491CA0186569F4F85
:1004A000FC0194914A575F4FFA013491332309F4C8
:1004B00040C0222351F1233071F0243028F4213040
:1004C000A1F0223011F514C02630B1F02730C1F070
:1004D0002430D9F404C0809180008F7703C08091CC
:1004E00080008F7D8093800010C084B58F7702C01C
:1004F00084B58F7D84BD09C08091B0008F7703C023
:100500008091B0008F7D8093B000E32FF0E0EE0F7C
:10051000FF1FEE58FF4FA591B4912FB7F8946623B3
:1005200021F48C919095892302C08C91892B8C9316
:100530002FBF0895CF93DF930E94CC010E94250125
:10054000C0E0D0E00E9480002097E1F30E9400000C
:10055000F9CF5058BB27AA270ED0E5C0D6D030F02F
:10056000DBD020F031F49F3F11F41EF4CBC00EF429
:10057000E095E7FBC1C0E92FE7D080F3BA17620727
:1005800073078407950718F071F49EF5FFC00EF409
:10059000E0950B2EBA2FA02D0B01B90190010C0193
:1005A000CA01A0011124FF27591B99F0593F50F4AB
:1005B000503E68F11A16F040A22F232F342F442703
:1005C000585FF3CF469537952795A795F0405395FB
:1005D000C9F77EF41F16BA0B620B730B840BBAF0CB
:1005E0009150A1F0FF0FBB1F661F771F881FC2F736
:1005F0000EC0BA0F621F731F841F48F4879577954A
:100600006795B795F7959E3F08F0B3CF9395880F00
:1006100008F09927EE0F97958795089504D0689470
:10062000B111B5C0089598D088F09F5790F0B92FB8
:100630009927B751A0F0D1F0660F771F881F991F37
:100640001AF0BA95C9F712C0B13081F09FD0B1E06D
:1006500008959CC0672F782F8827B85F39F0B93F7D
:10066000CCF3869577956795B395D9F73EF4909539
:100670008095709561957F4F8F4F9F4F0895E894B7
:1006800009C097FB3EF490958095709561957F4FDA
:100690008F4F9F4F9923A9F0F92F96E9BB27939588
:1006A000F695879577956795B795F111F8CFFAF498
:1006B000BB0F11F460FF1BC06F5F7F4F8F4F9F4FC9
:1006C00016C0882311F096E911C0772321F09EE827
:1006D000872F762F05C0662371F096E8862F70E08D
:1006E00060E02AF09A95660F771F881FDAF7880F67
:1006F0009695879597F9089597F99F6780E870E038
:1007000060E008959FEF80EC089500240A94161687
:10071000170618060906089500240A9412161306EF
:10072000140605060895092E0394000C11F488237D
:1007300052F0BB0F40F4BF2B11F460FF04C06F5F99
:100740007F4F8F4F9F4F089557FD9058440F551F6F
:1007500059F05F3F71F04795880F97FB991F61F043
:100760009F3F79F087950895121613061406551FBA
:10077000F2CF4695F1DF08C0161617061806991F26
:10078000F1CF86957105610508940895E894BB271B
:1007900066277727CB0197F9089597FB092E07263F
:1007A0000AD077FD04D00CD006D000201AF4709542
:1007B00061957F4F0895F6F7909581959F4F089525
:1007C000AA1BBB1B51E107C0AA1FBB1FA617B70777
:1007D00010F0A61BB70B881F991F5A95A9F7809593
:0C07E0009095BC01CD010895F894FFCF66
:0A07EC000A0001000100640064002F
:00000001FF
