:100000000C9462000C948A000C948A000C948A0070
:100010000C948A000C948A000C948A000C948A0038
:100020000C948A000C948A000C948A000C948A0028
:100030000C948A000C948A000C948A000C948A0018
:100040000C9469010C948A000C943A030C94880374
:100050000C948A000C948A000C948A000C948A00F8
:100060000C948A000C948A000000000024002700F1
:100070002A0000000000250028002B0000000000DE
:1000800023002600290004040404040404040202DA
:100090000202020203030303030301020408102007
:1000A0004080010204081020010204081020000012
:1000B0000007000201000003040600000000000029
:1000C0000000F40411241FBECFEFD8E0DEBFCDBF87
:1000D00011E0A0E0B1E0ECEBFDE002C005900D9274
:1000E000A232B107D9F712E0A2E2B1E001C01D923D
:1000F000AB30B107E1F710E0C4ECD0E004C02297C8
:10010000FE010E94D806C23CD107C9F70E944A05E9
:100110000C94DC060C9400000F931F93CF93DF9395
:100120008AE00E94E60220E0892B09F421E0209376
:10013000250130E0809122019091230182179307DD
:10014000F1F080912C0190912D0190932B018093DF
:100150002A010E94B10170932D0160932C0120911E
:100160002A0130912B01621B730B20910D013091FC
:100170000E01261737071CF481E08093240180913B
:100180002401882309F442C080912501882349F085
:10019000109224010E94B1017093290160932801FB
:1001A00035C0109224010E94B101209128013091A4
:1001B0002901621B730B70932701609326018091C4
:1001C0000D0190910E0186179707D4F4E0912E014E
:1001D000F0912F01EE0FFF1FE05DFE4F71836083F2
:1001E00089EE91E04AE050E00E94630680912E0182
:1001F00090912F01019690932F0180932E0106C0BC
:1002000089EE91E060E071E00E9482060E94B101F7
:1002100020912C0130912D01442737FD4095542F1A
:10022000621B730B840B950B20910F013091100111
:10023000442737FD4095542F26173707480759079D
:1002400060F500E311E0C0E0D0E01CC08BE061E0AD
:100250000E949202F80160817181882777FD809564
:10026000982F0E94BF018BE060E00E94920260E93B
:1002700071E080E090E00E94BF01F80111921192BC
:100280008F01219680912E0190912F01C817D907D7
:10029000ECF210922F0110922E0180912501809393
:1002A000220110922301DF91CF911F910F910895A8
:1002B0008AE062E00E9453028BE061E00E945302F8
:1002C00089EE91E040E855E260E070E00E94C303EF
:1002D00008951F920F920FB60F9211242F933F9300
:1002E0008F939F93AF93BF9380915C0190915D0139
:1002F000A0915E01B0915F01309160010196A11D56
:10030000B11D232F2D5F2D3720F02D570196A11DF4
:10031000B11D2093600180935C0190935D01A093D7
:100320005E01B0935F018091580190915901A091B5
:100330005A01B0915B010196A11DB11D8093580136
:1003400090935901A0935A01B0935B01BF91AF9173
:100350009F918F913F912F910F900FBE0F901F9003
:1003600018958FB7F89420915C0130915D01409110
:100370005E0150915F018FBFB901CA0108959B01D1
:10038000AC017FB7F8948091580190915901A091E8
:100390005A01B0915B0166B5A89B05C06F3F19F08B
:1003A0000196A11DB11D7FBFBA2FA92F982F8827B5
:1003B000860F911DA11DB11D62E0880F991FAA1F14
:1003C000BB1F6A95D1F7BC012DC0FFB7F89480918F
:1003D000580190915901A0915A01B0915B01E6B585
:1003E000A89B05C0EF3F19F00196A11DB11DFFBFED
:1003F000BA2FA92F982F88278E0F911DA11DB11DEF
:10040000E2E0880F991FAA1FBB1FEA95D1F7861B50
:10041000970B885E9340C8F22150304040405040D6
:1004200068517C4F211531054105510571F608953C
:10043000789484B5826084BD84B5816084BD85B5BF
:10044000826085BD85B5816085BDEEE6F0E0808186
:1004500081608083E1E8F0E01082808182608083A7
:10046000808181608083E0E8F0E08081816080832A
:10047000E1EBF0E0808184608083E0EBF0E080815C
:1004800081608083EAE7F0E08081846080838081FE
:1004900082608083808181608083808180688083A6
:1004A0001092C1000895CF93DF93482F50E0CA0106
:1004B00086569F4FFC0134914A575F4FFA01849151
:1004C000882369F190E0880F991FFC01E859FF4FDC
:1004D000A591B491FC01EE58FF4FC591D4916623CC
:1004E00051F42FB7F8948C91932F909589238C9386
:1004F000888189230BC0623061F42FB7F8948C9106
:10050000932F909589238C938881832B88832FBF89
:1005100006C09FB7F8948C91832B8C939FBFDF917B
:10052000CF910895482F50E0CA0182559F4FFC019A
:100530002491CA0186569F4FFC0194914A575F4F00
:10054000FA013491332309F440C0222351F12330BE
:1005500071F0243028F42130A1F0223011F514C0BC
:100560002630B1F02730C1F02430D9F404C0809196
:1005700080008F7703C0809180008F7D8093800002
:1005800010C084B58F7702C084B58F7D84BD09C04B
:100590008091B0008F7703C08091B0008F7D8093F1
:1005A000B000E32FF0E0EE0FFF1FEE58FF4FA591D4
:1005B000B4912FB7F894662321F48C9190958923F8
:1005C00002C08C91892B8C932FBF0895682F70E007
:1005D000CB0182559F4FFC012491CB0186569F4F42
:1005E000FC0144916A577F4FFB019491992319F4C0
:1005F00020E030E03CC0222351F1233071F0243060
:1006000028F42130A1F0223011F514C02630B1F0C9
:100610002730C1F02430D9F404C0809180008F7756
:1006200003C0809180008F7D8093800010C084B5CE
:100630008F7702C084B58F7D84BD09C08091B000E2
:100640008F7703C08091B0008F7D8093B000892F99
:1006500090E0880F991F84589F4FFC01A591B49199
:100660008C9120E030E0842311F021E030E0C901DA
:10067000089508951F920F920FB60F9211242F9391
:100680003F934F938F939F93EF93FF938091C0007D
:1006900082FD1DC04091C6002091A1013091A201B0
:1006A0002F5F3F4F2F7330708091A3019091A40171
:1006B0002817390771F0E091A101F091A201EF59DB
:1006C000FE4F40833093A2012093A10102C080918C
:1006D000C600FF91EF919F918F914F913F912F9184
:1006E0000F900FBE0F901F901895E091F501F091BB
:1006F000F601E05CFF4F8191919120813181821B55
:10070000930B8F739070892B11F00E943903089519
:100710001F920F920FB60F9211242F933F938F9336
:100720009F93EF93FF932091E5013091E601809133
:10073000E7019091E8012817390731F48091C10051
:100740008F7D8093C10014C0E091E701F091E80132
:10075000EB55FE4F20818091E7019091E8010196D1
:100760008F7390709093E8018093E7012093C60007
:10077000FF91EF919F918F913F912F910F900FBE1D
:100780000F901F901895AF92BF92DF92EF92FF9259
:100790000F931F93CF93DF93EC017A018B01DD243C
:1007A000403081EE580780E0680780E0780711F05C
:1007B000DD24D39491E0A92EB12CEC89FD89DD20B4
:1007C00069F0C50108A002C0880F991F0A94E2F7DA
:1007D000808360E079E08DE390E005C0108260E8FE
:1007E00074E88EE190E0A80197010E94B4062150C0
:1007F000304040405040569547953795279580E1C9
:100800002030380720F0DD2011F0DD24D6CFE88934
:10081000F9893083EA89FB89208319A2EE89FF894F
:10082000408121E030E0C9010C8C02C0880F991F83
:100830000A94E2F7482B4083EE89FF894081C90181
:100840000D8C02C0880F991F0A94E2F7482B408351
:10085000EE89FF894081C9010E8C02C0880F991F63
:100860000A94E2F7482B4083EE89FF8980810F8C40
:1008700002C0220F331F0A94E2F720952823208319
:10088000DF91CF911F910F91FF90EF90DF90BF907C
:10089000AF900895DC011C96ED91FC911D97E05CF2
:1008A000FF4F2191319180819181281B390B2F734A
:1008B0003070C9010895DC011C96ED91FC911D97E3
:1008C000E05CFF4F20813181E054F040DF01AE5BFE
:1008D000BF4F8D919C9111972817390719F42FEF6D
:1008E0003FEF07C08D919C91E80FF91F8081282F61
:1008F00030E0C9010895DC011C96ED91FC911D9733
:10090000E05CFF4F20813181E054F040DF01AE5BBD
:10091000BF4F8D919C9111972817390719F42FEF2C
:100920003FEF10C08D919C911197E80FF91F208126
:100930008D919C91119701968F73907011969C9355
:100940008E9330E0C9010895DC0191968C919197C6
:10095000882339F05496ED91FC915597808186FF5C
:10096000F9CF91961C920895CF93DF93EC01EE8519
:10097000FF85E05CFF4F20813181E054F0402F5F24
:100980003F4F2F733070DF01AE5BBF4F8D919C9155
:10099000119728173907D1F3E05CFF4F80819181CF
:1009A000E054F040E80FF91F6083EE85FF85E05CBE
:1009B000FF4F31832083EE89FF89208181E090E021
:1009C0000F8C02C0880F991F0A94E2F7282B20830E
:1009D00081E089A3EC89FD8980818064808381E046
:1009E00090E0DF91CF9108951092EC011092EB010D
:1009F00088EE93E0A0E0B0E08093ED019093EE01EB
:100A0000A093EF01B093F00185E191E09093EA01AA
:100A10008093E90181E691E09093F6018093F501DE
:100A200085EA91E09093F8018093F70185EC90E0DE
:100A30009093FA018093F90184EC90E09093FC018B
:100A40008093FB0180EC90E09093FE018093FD0188
:100A500081EC90E0909300028093FF0182EC90E0A3
:100A6000909302028093010286EC90E0909304023E
:100A70008093030284E08093050283E08093060262
:100A800087E08093070285E08093080281E08093ED
:100A900009020895CF93DF930E9418020E94580123
:100AA000C5E7D3E00E948C002097E1F30E94750314
:100AB000F9CFCF92DF92EF92FF920F931F93CF93D4
:100AC000DF937C016B018A01C0E0D0E00FC0D6014A
:100AD0006D916D01D701ED91FC910190F081E02DB8
:100AE000C7010995C80FD91F015010400115110504
:100AF00071F7CE01DF91CF911F910F91FF90EF9091
:100B0000DF90CF900895EF92FF920F931F938C0187
:100B1000DC01ED91FC910190F081E02D6DE00995F3
:100B20007C01D801ED91FC910190F081E02DC8018C
:100B30006AE009959C012E0D3F1DC9011F910F917F
:100B4000FF90EF900895CF93DF93EC01611571054D
:100B500019F420E030E00FC0DB010D900020E9F730
:100B60001197A61BB70BE881F9810280F381E02D74
:100B7000AD0109959C01C901DF91CF9108954F9274
:100B80005F927F928F929F92AF92BF92CF92DF92AD
:100B9000EF92FF920F931F93DF93CF93CDB7DEB702
:100BA000A1970FB6F894DEBF0FBECDBF2C01742EF7
:100BB000CB01223008F42AE019A231E2C32ED12C55
:100BC000CC0EDD1E822E9924AA24BB24672D752FFE
:100BD000A50194010E94B40679018A01C801B701F8
:100BE000A50194010E949506472D461B0894C10853
:100BF000D1084A3014F4405D01C0495CF6014083DD
:100C0000E114F1040105110521F07E2C5F2DC801CE
:100C1000DDCFC201B6010E94A305A1960FB6F894DC
:100C2000DEBF0FBECDBFCF91DF911F910F91FF901F
:100C3000EF90DF90CF90BF90AF909F908F907F907C
:100C40005F904F900895CF92DF92EF92FF920F93B3
:100C50001F93CF93DF93EC016A017B0121153105CE
:100C600041F4E881F9810190F081E02D642F09952C
:100C70001FC02A303105D1F477FF17C0E881F98110
:100C80000190F081E02D6DE209958C0144275527F4
:100C9000BA014C195D096E097F09CE012AE00E9454
:100CA000BF059801280F391F04C02AE00E94BF0524
:100CB0009C01C901DF91CF911F910F91FF90EF909F
:100CC000DF90CF900895CF92DF92EF92FF920F9333
:100CD0001F936C017B019A010027F7FC0095102FF0
:100CE000B801A7010E9423068C01C6010E9483055A
:100CF000080F191FC8011F910F91FF90EF90DF900F
:100D0000CF900895EF92FF920F931F937C010E9462
:100D1000A3058C01C7010E948305080F191FC80194
:100D20001F910F91FF90EF900895629FD001739FE4
:100D3000F001829FE00DF11D649FE00DF11D929F77
:100D4000F00D839FF00D749FF00D659FF00D9927B6
:100D5000729FB00DE11DF91F639FB00DE11DF91FDA
:100D6000BD01CF0111240895A1E21A2EAA1BBB1BBD
:100D7000FD010DC0AA1FBB1FEE1FFF1FA217B30767
:100D8000E407F50720F0A21BB30BE40BF50B661F7D
:100D9000771F881F991F1A9469F760957095809541
:100DA00090959B01AC01BD01CF010895EE0FFF1F8F
:0C0DB0000590F491E02D0994F894FFCF19
:100DBC006E6F74207265636F72646564003200DC60
:100DCC000500000000B40459054A047B045B04A42C
:020DDC00040011
:04000005008001284E
:00000001FF
