:100000000C9462000C948A000C948A000C948A0070
:100010000C948A000C948A000C948A000C948A0038
:100020000C948A000C948A000C948A000C948A0028
:100030000C948A000C948A000C948A000C948A0018
:100040000C946E010C948A000C943F030C948D0365
:100050000C948A000C948A000C948A000C948A00F8
:100060000C948A000C948A000000000024002700F1
:100070002A0000000000250028002B0000000000DE
:1000800023002600290004040404040404040202DA
:100090000202020203030303030301020408102007
:1000A0004080010204081020010204081020000012
:1000B0000007000201000003040600000000000029
:1000C0000000F90411241FBECFEFD8E0DEBFCDBF82
:1000D00011E0A0E0B1E0E2E0FCE002C005900D928A
:1000E000A232B107D9F712E0A2E2B1E001C01D923D
:1000F000A133B107E1F710E0C4ECD0E004C02297CF
:10010000FE010E94FB05C23CD107C9F70E944F05C2
:100110000C94FF050C9400000F931F93CF93DF9373
:100120008AE00E94EB0220E0892B09F421E0209371
:10013000250130E0809122019091230182179307DD
:10014000F1F080912A0190912B01909329018093E5
:1001500028010E94B60170932B0160932A0120911F
:10016000280130912901621B730B20910D01309100
:100170000E01261737071CF481E08093240180913B
:100180002401882309F440C0109224010E94B60182
:100190002091280130912901621B730B7093270174
:1001A0006093260180910D0190910E0186179707AB
:1001B0002CF520912C0130912D01F901EE0FFF1F3C
:1001C000EE0FFF1FE25DFE4F71836083F901EE0FBA
:1001D000FF1FEE0FFF1FE05DFE4F11821082809126
:1001E0002501882321F481E090E0918380832F5FB3
:1001F0003F4F30932D0120932C0106C08FE092E0F9
:1002000060E071E00E94C4050E94B60120912A01BD
:1002100030912B01442737FD4095542F621B730BFF
:10022000840B950B20910F0130911001442737FD6D
:100230004095542F261737074807590798F5CEE2FF
:10024000D1E000E010E013C08BE06A810E949702C9
:1002500068817981882777FD8095982F0E94C40155
:10026000198218821B821A820F5F1F4F2496809179
:100270002C0190912D010817190734F310922901D0
:100280001092280110922B0110922A0110922D0138
:1002900010922C0110922701109226018BE060E051
:1002A0000E949702809125018093220110922301E0
:1002B000DF91CF911F910F9108958AE062E00E9433
:1002C00058028BE061E00E9458028FE092E040E823
:1002D00055E260E070E00E94C80308951F920F92FB
:1002E0000FB60F9211242F933F938F939F93AF9349
:1002F000BF938091820190918301A0918401B0917C
:100300008501309186010196A11DB11D232F2D5F1E
:100310002D3720F02D570196A11DB11D2093860188
:100320008093820190938301A0938401B09385010F
:1003300080917E0190917F01A0918001B091810117
:100340000196A11DB11D80937E0190937F01A09322
:100350008001B0938101BF91AF919F918F913F91A7
:100360002F910F900FBE0F901F9018958FB7F89494
:100370002091820130918301409184015091850147
:100380008FBFB901CA0108959B01AC017FB7F894F2
:1003900080917E0190917F01A0918001B0918101B7
:1003A00066B5A89B05C06F3F19F00196A11DB11D50
:1003B0007FBFBA2FA92F982F8827860F911DA11DC7
:1003C000B11D62E0880F991FAA1FBB1F6A95D1F764
:1003D000BC012DC0FFB7F89480917E0190917F0100
:1003E000A0918001B0918101E6B5A89B05C0EF3FC7
:1003F00019F00196A11DB11DFFBFBA2FA92F982F8B
:1004000088278E0F911DA11DB11DE2E0880F991F55
:10041000AA1FBB1FEA95D1F7861B970B885E9340F6
:10042000C8F2215030404040504068517C4F211567
:1004300031054105510571F60895789484B58260BF
:1004400084BD84B5816084BD85B5826085BD85B578
:10045000816085BDEEE6F0E0808181608083E1E827
:10046000F0E010828081826080838081816080835F
:10047000E0E8F0E0808181608083E1EBF0E0808162
:1004800084608083E0EBF0E0808181608083EAE734
:10049000F0E08081846080838081826080838081BD
:1004A000816080838081806880831092C10008957C
:1004B000CF93DF93482F50E0CA0186569F4FFC012F
:1004C00034914A575F4FFA018491882369F190E093
:1004D000880F991FFC01E859FF4FA591B491FC01C9
:1004E000EE58FF4FC591D491662351F42FB7F8947D
:1004F0008C91932F909589238C93888189230BC0AD
:10050000623061F42FB7F8948C91932F90958923E2
:100510008C938881832B88832FBF06C09FB7F89464
:100520008C91832B8C939FBFDF91CF910895482F9F
:1005300050E0CA0182559F4FFC012491CA018656A2
:100540009F4FFC0194914A575F4FFA013491332336
:1005500009F440C0222351F1233071F0243028F4F3
:100560002130A1F0223011F514C02630B1F027302F
:10057000C1F02430D9F404C0809180008F7703C08B
:10058000809180008F7D8093800010C084B58F772C
:1005900002C084B58F7D84BD09C08091B0008F7783
:1005A00003C08091B0008F7D8093B000E32FF0E016
:1005B000EE0FFF1FEE58FF4FA591B4912FB7F8949F
:1005C000662321F48C919095892302C08C91892B0C
:1005D0008C932FBF0895682F70E0CB0182559F4FF9
:1005E000FC012491CB0186569F4FFC0144916A5730
:1005F0007F4FFB019491992319F420E030E03CC037
:10060000222351F1233071F0243028F42130A1F05D
:10061000223011F514C02630B1F02730C1F024305B
:10062000D9F404C0809180008F7703C0809180004E
:100630008F7D8093800010C084B58F7702C084B511
:100640008F7D84BD09C08091B0008F7703C08091F9
:10065000B0008F7D8093B000892F90E0880F991FA4
:1006600084589F4FFC01A591B4918C9120E030E01B
:10067000842311F021E030E0C901089508951F920C
:100680000F920FB60F9211242F933F934F938F9396
:100690009F93EF93FF938091C00082FD1DC0409116
:1006A000C6002091C7013091C8012F5F3F4F2F73C3
:1006B00030708091C9019091CA012817390771F0F3
:1006C000E091C701F091C801E957FE4F4083309394
:1006D000C8012093C70102C08091C600FF91EF912D
:1006E0009F918F914F913F912F910F900FBE0F903F
:1006F0001F901895E0911B02F0911C02E05CFF4FE7
:100700008191919120813181821B930B8F73907025
:10071000892B11F00E943E0308951F920F920FB68D
:100720000F9211242F933F938F939F93EF93FF93F7
:1007300020910B0230910C0280910D0290910E02DB
:100740002817390731F48091C1008F7D8093C10053
:1007500014C0E0910D02F0910E02E553FE4F20818E
:1007600080910D0290910E0201968F73907090937C
:100770000E0280930D022093C600FF91EF919F918E
:100780008F913F912F910F900FBE0F901F90189552
:10079000AF92BF92DF92EF92FF920F931F93CF938E
:1007A000DF93EC017A018B01DD24403081EE5807A4
:1007B00080E0680780E0780711F0DD24D39491E0B1
:1007C000A92EB12CEC89FD89DD2069F0C50108A0B6
:1007D00002C0880F991F0A94E2F7808360E079E0F5
:1007E0008DE390E005C0108260E874E88EE190E04F
:1007F000A80197010E94D705215030404040504049
:10080000569547953795279580E12030380720F099
:10081000DD2011F0DD24D6CFE889F9893083EA891B
:10082000FB89208319A2EE89FF89408121E030E015
:10083000C9010C8C02C0880F991F0A94E2F7482B5B
:100840004083EE89FF894081C9010D8C02C0880F69
:10085000991F0A94E2F7482B4083EE89FF89408173
:10086000C9010E8C02C0880F991F0A94E2F7482B29
:100870004083EE89FF8980810F8C02C0220F331FD5
:100880000A94E2F7209528232083DF91CF911F91CE
:100890000F91FF90EF90DF90BF90AF900895DC0133
:1008A0001C96ED91FC911D97E05CFF4F21913191D9
:1008B00080819181281B390B2F733070C9010895F5
:1008C000DC011C96ED91FC911D97E05CFF4F2081AF
:1008D0003181E054F040DF01AE5BBF4F8D919C91C0
:1008E00011972817390719F42FEF3FEF07C08D91A3
:1008F0009C91E80FF91F8081282F30E0C9010895ED
:10090000DC011C96ED91FC911D97E05CFF4F20816E
:100910003181E054F040DF01AE5BBF4F8D919C917F
:1009200011972817390719F42FEF3FEF10C08D9159
:100930009C911197E80FF91F20818D919C9111973F
:1009400001968F73907011969C938E9330E0C9013D
:100950000895DC0191968C919197882339F05496F3
:10096000ED91FC915597808186FFF9CF91961C926D
:100970000895CF93DF93EC01EE85FF85E05CFF4F98
:1009800020813181E054F0402F5F3F4F2F73307052
:10099000DF01AE5BBF4F8D919C91119728173907EE
:1009A000D1F3E05CFF4F80819181E054F040E80F8B
:1009B000F91F6083EE85FF85E05CFF4F3183208364
:1009C000EE89FF89208181E090E00F8C02C0880FC2
:1009D000991F0A94E2F7282B208381E089A3EC89F0
:1009E000FD8980818064808381E090E0DF91CF91F8
:1009F0000895109212021092110288EE93E0A0E086
:100A0000B0E08093130290931402A0931502B09368
:100A1000160285E191E09093100280930F0287E81F
:100A200091E090931C0280931B028BEC91E09093D9
:100A30001E0280931D0285EC90E09093200280932B
:100A40001F0284EC90E0909322028093210280ECBC
:100A500090E0909324028093230281EC90E09093A5
:100A600026028093250282EC90E0909328028093E6
:100A7000270286EC90E090932A028093290284E07A
:100A800080932B0283E080932C0287E080932D02D9
:100A900085E080932E0281E080932F020895CF930A
:100AA000DF930E941D020E945D01CAE7D3E00E940D
:100AB0008C002097E1F30E947A03F9CFCF92DF9266
:100AC000EF92FF920F931F93CF93DF937C016B0103
:100AD0008A01C0E0D0E00FC0D6016D916D01D70151
:100AE000ED91FC910190F081E02DC7010995C80FAF
:100AF000D91F015010400115110571F7CE01DF918A
:100B0000CF911F910F91FF90EF90DF90CF900895BC
:100B1000EF92FF920F931F938C01DC01ED91FC91FA
:100B20000190F081E02D6DE009957C01D801ED91F7
:100B3000FC910190F081E02DC8016AE009959C01CB
:100B40002E0D3F1DC9011F910F91FF90EF90089549
:100B5000CF93DF93EC016115710519F420E030E0CB
:100B60000FC0DB010D900020E9F71197A61BB70B12
:100B7000E881F9810280F381E02DAD0109959C01A6
:100B8000C901DF91CF910895EF92FF920F931F93C8
:100B90007C010E94A8058C01C7010E948805080FEE
:100BA000191FC8011F910F91FF90EF900895A1E2C6
:100BB0001A2EAA1BBB1BFD010DC0AA1FBB1FEE1FD7
:100BC000FF1FA217B307E407F50720F0A21BB30B22
:100BD000E40BF50B661F771F881F991F1A9469F79E
:100BE00060957095809590959B01AC01BD01CF01FA
:100BF0000895EE0FFF1F0590F491E02D0994F894ED
:020C0000FFCF24
:100C02006E6F74207265636F72646564003200DC1B
:100C12000500000000B9045E054F0480046004A9C9
:020C22000400CC
:00000001FF
